:020000040800F2
:10000000E8050020E53B0008A5010008A70100085D
:10001000AB010008AF010008B301000800000000B8
:10002000000000000000000000000000B701000810
:10003000B901000800000000BB010008FD3B0008FA
:10004000FF3B0008FF3B0008FF3B0008FF3B0008A8
:10005000FF3B0008FF3B0008FF3B0008FF3B000898
:10006000FF3B0008D348000871480008FF3B000828
:100070000B060008FF3B0008FF3B0008FF3B0008A1
:10008000FF3B0008FF3B0008FF3B0008FF3B000868
:10009000FF3B0008FF3B0008FF3B0008FF3B000858
:1000A000FF3B0008FF3B0008FF3B0008FF3B000848
:1000B00071020008FF3B0008FF3B0008FF3B0008FF
:1000C000FF3B0008FF3B0008FF3B0008FF3B000828
:1000D000FF3B0008FF3B0008FF3B0008FF3B000818
:1000E000FF3B0008FF3B0008FF3B0008FF3B000808
:1000F000FF3B0008FF3B0008FF3B0008FF3B0008F8
:10010000FF3B0008FF3B0008FF3B0008FF3B0008E7
:10011000FF3B0008FF3B0008FF3B0008FF3B0008D7
:10012000FF3B0008FF3B0008FF3B0008FF3B0008C7
:10013000FF3B0008FF3B0008FF3B00085B04000892
:10014000FF3B000877040008FF3B0008FF3B000866
:100150007F080008FF3B0008FF3B0008FF3B00084A
:10016000FF3B0008FF3B0008FF3B0008FF3B000887
:10017000FF3B0008FF3B0008FF3B0008FF3B000877
:10018000FF3B0008FF3B0008DFF80CD006F038FC0E
:10019000004800479D010008E805002000F04AFFE4
:1001A00000BFFEE7704700BFFEE700BFFEE700BFED
:1001B000FEE700BFFEE77047704770471CB501219E
:1001C000042001F0EDFF0620009001208DF80400CE
:1001D00000208DF8060003208DF8050069460648CA
:1001E00002F010FF0221044802F088FF04210248B7
:1001F00002F084FF1CBD00000008024010B5002181
:1002000007E04AF2104200BF1300A2F10102FBD145
:10021000491C8142F5D310BD10B5002106E028220B
:1002200000BF1300A2F10102FBD1491C8142F6D3A9
:1002300010BD00000EB50121084601F0E4FF4FF0AB
:10024000FF3001905320ADF800000020ADF8080009
:10025000ADF802000121880701F0E2F869464FF08D
:10026000804001F072F80121880701F0F7F80EBD17
:1002700010B50121880701F020FD58B10121880740
:1002800001F02CFD0121880701F014FD0421044830
:1002900002F03FFF10BD4FF08040406A7047000001
:1002A0000008024000B589B00121084601F078FF3E
:1002B0000121480601F0A7FF09220C21284802F07D
:1002C0002CFF09220B21264802F027FF4FF4C050D3
:1002D000009002208DF804006946214802F092FE49
:1002E000204802F09BF806A802F0BCF900208DF827
:1002F0001E008DF81F008DF820008DF821008DF86C
:10030000220001208DF8230000208DF81A008DF8BE
:100310001B0008208DF81C0003208DF81D00ADF88F
:10032000180006A90F4802F092F800208DF812007C
:100330008DF8130001208DF814000020ADF808009E
:10034000ADF80A00ADF80C00ADF80E00ADF81000E5
:1003500001208DF8150002A802F003F909B000BDD4
:10036000000002400064004000B589B00121022075
:1003700001F016FF0121480601F045FF0121880622
:1003800001F041FF09220D215C4802F0C6FE09225E
:100390000C215A4802F0C1FE4FF440500090022058
:1003A0008DF804006946554802F02CFE0123022214
:1003B0000021412000F079FE0123002211463F2058
:1003C00000F073FE4E4802F029F806A802F04AF940
:1003D00000208DF81E008DF81F008DF820008DF88C
:1003E00021008DF8220001208DF8230000208DF8D7
:1003F0001A008DF81B0008208DF81C0003208DF8D2
:100400001D00ADF8180006A93D4802F020F80E20A6
:100410008DF8120000208DF8130001208DF81400D3
:100420000020ADF80800ADF80A00ADF80C00ADF8FA
:100430000E000120ADF810008DF8150002A802F0A2
:1004400090F8012211462E4802F08AFB0122102169
:100450002B4802F085FB09B000BD10B501212848EA
:1004600002F0E6FB30B10121254802F07CFC0120BE
:100470002449087010BD00B585B01021204802F055
:10048000D7FB48B110211E4802F06DFC6A460121DD
:100490001B4802F04AFA00BF05B000BDF0B585B0B8
:1004A00004460D4616461F464FF40070009000208B
:1004B0008DF808008DF8090008208DF80A00200A40
:1004C0008DF80B00E1B28DF80C10290A8DF80D1093
:1004D000E9B28DF80E10310A8DF80F10F1B28DF8D7
:1004E0001010390A8DF81110F9B28DF81210694602
:1004F000034802F025F905B0F0BD000000040240F9
:10050000006800400000002000B595B001214E4871
:1005100001F046FE0121880401F075FE07220A2140
:100520004A4802F0FAFD07220B21484802F0F5FD87
:100530004FF440600F9002208DF8400000208DF8AD
:10054000420003208DF8410000208DF843000FA9E0
:100550003E4802F057FD4FF4165011900020ADF8C0
:100560004800ADF84A00ADF84C000C20ADF84E0044
:100570000020ADF8500011A9354803F025F80121FD
:10058000334803F0A9F801224021314803F051F922
:10059000012303221146272000F087FD01230222B8
:1005A00000210C2000F081FD2A4802F0EBFD4FF005
:1005B000006000902648001D01902748029000200E
:1005C000039006200490002005904FF48060069070
:1005D0000020079008904FF4807009904FF440304D
:1005E0000A9000200B900C900D900E9069461948CF
:1005F00002F06AFE01221021164802F02CFF0121B0
:10060000144802F09BFE15B000BD10B51349114807
:1006100002F03EFF38B112490E4802F008FF0F49C0
:100620000C4802F05FFF10BD70B504460D4600BFD8
:100630004021074803F02BF90028F9D0E1B2044823
:1006400003F075F8204670BD02002000000402404F
:10065000004800402860024001000020008800108F
:100660000008001002780A708278D200038842EAFB
:1006700023224A7002799201438842EA63128A7007
:100680000279CA7082795200838842EAA3220A71F1
:10069000427A9201037A42EA0312C38842EAE312E1
:1006A0004A71827A8A714289120ACA71027B0A727D
:1006B0008289120A4A72827B8A72C289120ACA72BB
:1006C000027C0A73427C4A73827C8A73428A1212C9
:1006D000CA73027D0A74828A12124A7470470A78B9
:1006E0004B7842EA0322C2F30A0202804A78D2100F
:1006F0008B7842EA4312C2F30A0242808A7892114E
:10070000CB7842EA83020B7942EA8322C2F30A02DF
:1007100082800A7952104B7942EAC312C2F30A026C
:10072000C2804A791211920802724A79C2F3011208
:1007300042728A79CB7942EA032212B242810A7A62
:100740004B7A42EA032213B283818A7ACB7A42EA55
:10075000032213B2C3810B7B03744B7B43748A7BEC
:10076000CB7B42EA032242820A7C4B7C42EA032290
:10077000828270470FB49DF8080028B19DF80900E7
:1007800010B1012004B070470020FBE700B595B020
:100790000121444801F004FD0121102001F044FD35
:1007A00007221146404802F0B8FC80200F9002203A
:1007B0008DF8400000208DF8420003208DF84100A4
:1007C00000208DF843000FA9374802F01BFC374882
:1007D00002F0ACFE364811900020ADF84800ADF8AC
:1007E0004A004FF48060ADF84C000420ADF84E0094
:1007F0000020ADF8500011A92C4802F0E5FE0121BF
:100800002A4802F069FF01224021284803F011F82C
:1008100001231A460021442000F047FC254802F03D
:10082000B1FC4FF0006000902048001D019022486C
:1008300002900020039012200490002005904FF4B5
:10084000806006900020079008904FF48070099017
:100850004FF440300A9000200B900C900D900E90B9
:100860006946144802F030FD01221021114802F0BF
:10087000F2FD01210F4802F061FD15B000BD10B579
:100880000E490C4802F004FE58B10D49094802F027
:10089000CEFD0A49074802F025FE07490948FFF73F
:1008A0001EFF10BD02004000000402400010014085
:1008B000A0860100886402403001002000880020EA
:1008C000000800204201002010B52DED048BB0EE91
:1008D000408AF0EE608AB0EE419AF0EE619AB3EE93
:1008E000030A28EE000ABDEEC00A10EE100A00B29C
:1008F000F849C880B1EE680AF3EE030A20EE200A38
:10090000BDEEC00A10EE100A00B2F349C880B3EE83
:10091000030A29EE000ABDEEC00A10EE100A00B26A
:10092000EE49C880B1EE690AF3EE030A20EE200A10
:10093000BDEEC00A10EE100A00B2E949C880E548D1
:10094000B0F9060001EE100AB8EEC11AF0EE410A45
:10095000E048B0F9020001EE100AB8EEC11AB0EE9C
:10096000410A00F077FADB4880ED030ADA48B0F973
:10097000060001EE100AB8EEC11AF0EE410AD648A0
:10098000B0F9020001EE100AB8EEC11AB0EE410A49
:1009900000F060FAD04880ED030AD048B0F90600B4
:1009A00001EE100AB8EEC11AF0EE410ACB48B0F9D8
:1009B000020001EE100AB8EEC11AB0EE410A00F0D2
:1009C00049FAC64880ED030AC548B0F9060001EEB1
:1009D000100AB8EEC11AF0EE410AC148B0F902009F
:1009E00001EE100AB8EEC11AB0EE410A00F032FA78
:1009F000BB4880ED030A044694ED030ABDEEC00A2D
:100A000010EE104A23B2B54C94ED030ABDEEC00AB5
:100A100010EE104A22B2B04C94ED030ABDEEC00AAB
:100A200010EE104A21B2AB4C94ED030ABDEEC00AA1
:100A300010EE104A20B2FFF731FDBDEC048B10BD63
:100A400010B52DED048BB0EE408AF0EE608AB0EE6A
:100A5000419AF0EE619ABDEEC80A10EE100A00B29B
:100A60009C4988809FED9F0A30EE680ABDEEC00A5F
:100A700010EE100A00B298498880BDEEC90A10EE47
:100A8000100A00B2954988809FED960A30EE690AF7
:100A9000BDEEC00A10EE100A00B2914988808D4860
:100AA000B0F9040001EE100AB8EEC11AF0EE410AE6
:100AB0008848B0F9000001EE100AB8EEC11AB0EE95
:100AC000410A00F031FA834880ED020A90ED021AE3
:100AD000F0EE410AB0F9020001EE100AB8EEC11AB8
:100AE000B0EE410A00F0B6F97A4880ED030A7A4880
:100AF000B0F9040001EE100AB8EEC11AF0EE410A96
:100B00007548B0F9000001EE100AB8EEC11AB0EE57
:100B1000410A00F009FA704880ED020A90ED021ACD
:100B2000F0EE410AB0F9020001EE100AB8EEC11A67
:100B3000B0EE410A00F08EF9674880ED030A67487D
:100B4000B0F9040001EE100AB8EEC11AF0EE410A45
:100B50006248B0F9000001EE100AB8EEC11AB0EE1A
:100B6000410A00F0E1F95D4880ED020A90ED021AB9
:100B7000F0EE410AB0F9020001EE100AB8EEC11A17
:100B8000B0EE410A00F066F9544880ED030A54487B
:100B9000B0F9040001EE100AB8EEC11AF0EE410AF5
:100BA0004F48B0F9000001EE100AB8EEC11AB0EEDD
:100BB000410A00F0B9F94A4880ED020A90ED021AA4
:100BC000F0EE410AB0F9020001EE100AB8EEC11AC7
:100BD000B0EE410A00F03EF9414880ED030A0446B8
:100BE00094ED030ABDEEC00A10EE104A23B23B4C4E
:100BF00094ED030ABDEEC00A10EE104A22B2364C44
:100C000094ED030ABDEEC00A10EE104A21B2314C39
:100C100094ED030ABDEEC00A10EE104A20B2FFF7B1
:100C20003DFCBDEC048B10BD2DE9FF5F06460C4674
:100C30001546002C01DD204600E06042002D01DD5C
:100C4000294600E06942884205DD002C01DD20468E
:100C500006E0604204E0002D01DD284600E0684225
:100C6000002E01DD314600E07142884205DA002E97
:100C700001DD304618E0704216E0002C01DD204610
:100C800000E06042002D01DD294600E06942884213
:100C900005DD002C01DD204606E0604204E0002D69
:100CA00001DD284600E06842039948434FF425716E
:100CB00090FBF1FB002E01DD304600E07042002C7D
:100CC00001DD214600E061420144002D0CDD284693
:100CD0000BE000000C000020200000203400002069
:100CE0004800002000F8FF45684201EB000A002799
:100CF000B846B946BAF1000F0BD004FB0BF090FBDD
:100D0000FAF706FB0BF090FBFAF805FB0BF090FBF3
:100D1000FAF907EB0800A0EB090002EE100AB8EEA2
:100D2000C22AF0EE421AA7EB0800484402EE100A6D
:100D3000B8EEC22AB0EE421AA7EB0800A0EB0900F9
:100D400002EE100AB8EEC22AF0EE420A07EB0800E3
:100D5000484402EE100AB8EEC22AB0EE420AFFF78B
:100D6000B3FDBDE8FF9F2DE9FE4F06460F469046B6
:100D70001D460C9C04F01000029004F0200904F0C1
:100D8000010A04F00400019004F0020B04F00800D2
:100D90000090029808B101200290B9F1000F01D033
:100DA0004FF00109BAF1000F01D04FF0010A01988C
:100DB00008B101200190BBF1000F01D04FF0010BF1
:100DC000009808B1012000900A2021490860012DF7
:100DD00002D10F2008600AE0032D03D10A201C492C
:100DE000086004E0022D02D1012019490860B9F120
:100DF000010F02D10120164908600298012802D192
:100E00000F2013490860A8F58063DDF834C0CCEBEF
:100E10000C1C03EB4C02A7F58063AAEB0B0C0CEB4C
:100E20004C1C0CEB8C0C03EB8C01A6F58063DDE90C
:100E300000CEACEB0E0C0CEB4C1C0CEB8C0C03EB57
:100E40008C00034B1B68FFF7EFFEBDE8FE8F000030
:100E50000800002010B52DED088BB0EE408AF0EEB2
:100E6000608A9FED660AB0EE40AA9FED650AF0EE3B
:100E700040AAB1EE040AB0EE40BA624890ED010A11
:100E800080ED000A38EEC80A80ED010A90ED010AF3
:100E90005D48D0ED000A30EE200A80ED000A594886
:100EA00090ED010ADFED550A20EE200A5648D0EDFC
:100EB000000A9FED531A00EE810A5248D0ED010A54
:100EC00090ED001A70EEC10AB1EE041A00EE810A2C
:100ED0004E4880ED000A006805F02CFC41EC190B2F
:100EE0009FED4B0B53EC102B05F050FC04D29FED03
:100EF0004A0A464880ED000A4448006805F01AFC9A
:100F000041EC190B9FED450B53EC102B05F026FC23
:100F100004D29FED440A3D4880ED000A3B4890ED25
:100F2000000ABDEC088B10BD10B52DED088BB0EE9E
:100F3000408AF0EE608AB2EE040AB0EE40AA9FED5D
:100F4000300AF0EE40AA9FED2E0AB0EE40BA3648C5
:100F500090ED010A80ED000A38EEC80A80ED010A22
:100F600090ED010A3148D0ED000A30EE200A80ED04
:100F7000000A2D4890ED010AF2EE040A20EE200A44
:100F80002A48D0ED000A9FED1E1A00EE810A26487D
:100F9000D0ED010A90ED001A70EEC10A9FED181A0B
:100FA00000EE810A224880ED000A006805F0C2FBCD
:100FB00041EC190B9FED160B53EC102B05F0E6FBE3
:100FC00004D29FED150A1A4880ED000A18480068FF
:100FD00005F0B0FB41EC190B9FED100B53EC102BFF
:100FE00005F0BCFB04D29FED0F0A114880ED000A0A
:100FF0000F4890ED000ABDEC088B10BD00001643B1
:10100000000000005C000020680000206400002058
:10101000000000000070A74000803B450000000079
:101020000070A7C000803BC56C0000207800002045
:101030007400002010B5002402F03AFD4FF4A060C7
:1010400000F066F8FFF7BAF800F044F8FFF79EFBEF
:10105000FFF75AFAFFF7EEF8FFF724F9FFF784F9E4
:101060004FF4FA70FFF7CAF80BE0641C0A2C08DD95
:1010700006E002210B4802F04CF83220FFF7BEF8E0
:10108000F7E702F0C1FDFF28EFD002F02DFEFF28A8
:10109000EBD003F0D7F803F0A9FB4FF4FA70FFF799
:1010A000ADF810BD000802407047F8B507460C4681
:1010B00015461E46F8B28DF80000E0B28DF801002A
:1010C000E8B28DF802008DF80360684600F025F85C
:1010D000F8BD00001CB50121084601F061F84FF48D
:1010E0008070009001208DF8040000208DF806002B
:1010F00003208DF805006946044801F083FF4FF492
:101100008071024801F0FCFF1CBD0000000002409D
:1011100032490143324A1160704770B50021002303
:101120000F22C4781CB32E4C246804F4E064C4F588
:10113000E064C4F30721C1F10404E3B20A41447836
:101140009C40E1B28478144021430C07210E254CC9
:1011500005786155047804F01F050124AC4005783A
:101160006D11AD0005F1E025C5F8004109E00478F6
:1011700004F01F050124AC401B4D0678761145F89C
:10118000264070BD194A0A400243154B1B1F1A60C6
:10119000704739B1124A121D12680243104B1B1DD1
:1011A0001A6006E00E4A121D126882430C4B1B1D8A
:1011B0001A607047042808D14FF0E021096941F016
:1011C00004014FF0E022116107E04FF0E0210969CE
:1011D00021F004014FF0E022116170470000FA0590
:1011E0000CED00E000E400E080E100E080FFFF1F84
:1011F00010B50446FE48844208D10121084601F09A
:101200007BF80021012001F077F89DE0B4F1804FD8
:1012100008D10121084601F05EF80021012001F00B
:101220005AF891E0F348844208D10121022001F0EC
:1012300052F80021022001F04EF885E0EE48844289
:1012400008D10121042001F046F80021042001F01A
:1012500042F879E0E948844208D10121082001F0F0
:101260003AF80021082001F036F86DE0E4488442A5
:1012700008D10121102001F02EF80021102001F0EA
:101280002AF861E0DF48844208D10121202001F0E2
:1012900022F80021202001F01EF855E0DA488442AF
:1012A00008D10121022001F027F80021022001F0DD
:1012B00023F849E0D548844209D10121080401F00E
:1012C0001BF800214FF4803001F016F83CE0D048C4
:1012D000844209D10121480401F00EF800214FF4A5
:1012E000003001F009F82FE0CA48844209D10121F9
:1012F000880401F001F800214FF4802000F0FCFF89
:1013000022E0C548844208D10121402000F0E3FFDB
:101310000021402000F0DFFF16E0C048844208D1E1
:101320000121802000F0D7FF0021802000F0D3FFB2
:101330000AE0BB48844207D10121801500F0CBFFB1
:101340000021A01500F0C7FF10BD00220288A84BA5
:1013500098420ED0AC4B98420BD0B0F1804F08D0E1
:10136000A44B984205D0A44B984202D0A34B98427C
:1013700004D14FF68F731A404B881A43A04B984202
:1013800007D0A04B984204D04FF6FF431A400B8978
:101390001A4302804B68C3620B880385944B9842C2
:1013A00002D0994B984201D18B7A03860123838224
:1013B00070474FF0FF314160002101800181418081
:1013C000817270470185828270470A460021018838
:1013D0004FF68F7319401143018070474162704787
:1013E000C16270470146486A70470146088D7047E0
:1013F00021B1028842F00202028004E002884FF626
:10140000FD731A400280704721B1028842F0040245
:10141000028004E002884FF6FB731A400280704796
:1014200021B1028842F08002028004E002884FF677
:101430007F731A400280704702884FF6F7731A4094
:10144000028002880A430280704702884FF6FF43F9
:101450001A40028002880A430280704721B1028844
:1014600042F00102028004E002884FF6FE731A4047
:101470000280704770B5002400220023058C4FF6CF
:10148000FE7635400584028C8388048B4FF68F7579
:101490002C40B51E2C400D882C43751E2A408D898A
:1014A0002A434D882A43524DA84202D0564DA842A5
:1014B00013D14FF6F7752A40CD892A434FF6FB75B5
:1014C0002A408D882A434FF6FF652B404FF6FF5583
:1014D0002B400D8A2B434D8A2B43838004838D68D8
:1014E0004563028470BD70B5002400220023058C82
:1014F0004FF6EF7635400584028C8388048B48F6DE
:10150000FF752C404FF6FF452C400D884FF6FF76B7
:1015100006EA05252C434FF6DF752A408D8906EA39
:1015200005152A434D8806EA05152A43304DA84281
:1015300002D0354DA8421DD14FF67F752A40CD8986
:101540004FF6FF7606EA05152A434FF6BF752A4087
:101550008D8806EA05152A434FF6FF352B404FF2DA
:10156000FF752B400D8A06EA85052B434D8A06EA56
:1015700085052B43838004838D688563028470BD59
:1015800070B5002400220023058C4FF6FF6635401D
:101590000584028C8388848B4FF68F752C404FF620
:1015A000FC752C400D882C434FF6FF552A408D8941
:1015B0004FF6FF7606EA05252A434D8806EA0525FB
:1015C0002A430B4DA84202D00F4DA84238D14FF20A
:1015D000FF752A40CD894FF6FF7606EA05252A4396
:1015E0004FF6FF352A408D8806EA05252A4319E083
:1015F000000001400004004000080040000C0040D2
:101600000010004000140040000401400040014070
:10161000004401400048014000180040001C004008
:10162000002000404EF6FF752B404DF6FF752B4015
:101630000D8A06EA05152B434D8A06EA05152B434C
:10164000838084838D68C563028470BD70B5002279
:1016500000230024058C4EF6FF7635400584038C6C
:101660008488828B48F6FF752A404FF6FF452A4052
:101670000D884FF6FF7606EA05252A434DF6FF75DD
:101680002B408D8906EA05352B434D8806EA053542
:101690002B43FE4DA84202D0FD4DA84208D14BF687
:1016A000FF752C400D8A4FF6FF7606EA85152C4310
:1016B000848082838D680564038470BD002101806D
:1016C0004180818081608181C18101824182704736
:1016D00070B50346002000241846183001258D40BF
:1016E000ACB21D8CA5431D8409B108290AD100EBB9
:1016F000610005684FF68F76354005600568154333
:1017000005600FE00D1FC5F34E052844056848F637
:10171000FF763540056005684FF6FF7606EA02263B
:101720003543056070BD4163704781637047C16395
:101730007047016470470A460021018B4FF68F7392
:1017400019401143018370470A460021018B48F676
:10175000FF7319404FF6FF7303EA02231943018315
:1017600070470A460021818B4FF68F731940114351
:10177000818370470A460021818B48F6FF73194028
:101780004FF6FF7303EA02231943818370470A4629
:101790000021018B4FF6F773194011430183704705
:1017A0000A460021018B4FF2FF7319404FF6FF7379
:1017B00003EA02231943018370470A460021818B03
:1017C0004FF6F77319401143818370470A46002191
:1017D000818B4FF2FF7319404FF6FF7303EA022328
:1017E0001943818370470A460021018B4FF6FB7332
:1017F00019401143018370470A460021018B4FF6BF
:10180000FF3319404FF6FF7303EA022319430183A4
:1018100070470A460021818B4FF6FB731940114334
:10182000818370470A460021818B4FF6FF331940B0
:101830004FF6FF7303EA02231943818370470A4678
:101840000021018B4FF67F731940114301837047CC
:101850000A460021018BC1F30E014FF6FF7303EA24
:1018600002231943018370470A460021818B4FF6FA
:101870007F7319401143818370470A460021818B91
:10188000C1F30E014FF6FF7303EA0223194381836C
:1018900070470A460021018C4FF6FD731940114331
:1018A000018470470A460021018C4FF6F7731940F6
:1018B0001143018470470A460021018C4FF6DF7303
:1018C00019404FF6FF7303EA02131943018470476E
:1018D0000A460021018C4FF67F7319404FF6FF73C3
:1018E00003EA02131943018470470A460021018C60
:1018F0004FF6FF5319404FF6FF7303EA02231943D3
:10190000018470470A460021018C4FF2FF73194091
:101910004FF6FF7303EA02231943018470470A4616
:101920000021018C4DF6FF7319404FF6FF7303EA57
:10193000023319430184704730B5002301248C40E1
:10194000A3B2048C9C430484048C02FA01F5ADB26A
:101950002C43048430BD30B5002304248C40A3B252
:10196000048C9C430484048C02FA01F5ADB22C4330
:10197000048430BD828B4FF2FF331A408283828B06
:101980004FF6FF7303EA01231A4382837047F0B5D1
:101990000C461546002100220026078C4EF6FF7CDF
:1019A00007EA0C070784818B028C4FF6FF7707EA62
:1019B000043640F6FF4739404FF6FF7707EA052720
:1019C00039434FF6FF7707EA0337394345F6FF7788
:1019D0003A4046F480573A4381830284F0BD828BBB
:1019E0004FF6F3731A408283828B0A4382837047D7
:1019F000F0B50C461546002100220026078C4FF654
:101A0000FF6C07EA0C070784818B028C4FF6FF7787
:101A100007EA04264FF60C7739404FF6FF7707EABE
:101A200003172F4339434FF2FF573A4046F480776C
:101A30003A4381830284F0BD028B4FF2FF331A4098
:101A40000283028B4FF6FF7303EA01231A430283DA
:101A50007047F0B50C461546002100220026078C81
:101A60004FF6EF7C07EA0C070784018B028C4FF6D8
:101A7000FF7707EA041640F6FF4739404FF6FF7735
:101A800007EA033739434FF6FF7703E000000140D0
:101A90000004014007EA052739434FF65F773A40D3
:101AA00046F010073A4301830284F0BD028B4FF6E3
:101AB000F3731A400283028B0A4302837047F0B526
:101AC0000C46154600210022068C4FF6FE773E405C
:101AD0000684018B028C4FF60C7631407E1C06EAA0
:101AE00003162E4331434FF6F576324044F001069B
:101AF000324301830284F0BD70B505460C46208850
:101B000050B92389A28861882846FFF7D8FFE18869
:101B10002846FFF7CBFF25E0208804280AD1238937
:101B2000A28861882846FFF794FFE1882846FFF7DE
:101B300083FF17E0208808280AD12389A2886188BA
:101B40002846FFF755FFE1882846FFF748FF09E0E0
:101B50002389A28861882846FFF719FFE188284673
:101B6000FFF708FF70BD00210180418001218180C5
:101B70000021C180018170472DE9F04105460C46E6
:101B800000260127608808B9022600E00026A08808
:101B9000012801D1022700E001272088A0B923896C
:101BA000A28861882846FFF78AFFE1882846FFF768
:101BB0007DFF23893A4631462846FFF74AFFE188F0
:101BC0002846FFF739FF13E02389A2886188284659
:101BD000FFF73FFFE1882846FFF72EFF23893A46AB
:101BE00031462846FFF76BFFE1882846FFF75EFF86
:101BF000BDE8F0810146486B70470146886B70472D
:101C00000146C86B70470146086C70470A884B88CC
:101C10001A438B881A43CB881A430B891A434B8982
:101C20001A438B891A43A0F8442070470021018091
:101C300041808180C180018141818181704731B1C2
:101C4000B0F8442042F40042A0F8442005E0B0F887
:101C50004420C2F30E02A0F84420704721B18288CC
:101C600042F00402828004E082884FF6FB731A403F
:101C70008280704721B1828842F00102828004E0B4
:101C800082884FF6FE731A40828070471AB18389AA
:101C90000B43838102E083898B4383817047818278
:101CA000704702460020138A0B400BB1012000E070
:101CB00000207047CA430282704730B502460020B8
:101CC00000230024158A05EA0103958905EA010429
:101CD00013B10CB1012000E0002030BDCA430282E4
:101CE000704741EA0203A0F8483070471AB183896F
:101CF0000B43838102E083898B438381704721B149
:101D0000828842F00802828004E082884FF6F773EE
:101D10001A408280704701894FF6F87211400181A4
:101D200070470A46002101894FF68F73194011430D
:101D30000181704730B504460D4629462046FFF71D
:101D4000F0FF208940F00700208130BD2DE9F041EF
:101D500004460D4616461F46602D06D13B4601221D
:101D600031462046FFF775FE05E03B46012231462D
:101D70002046FFF7A4FE29462046FFF7D2FF208920
:101D800040F007002081BDE8F08130B50C4600210D
:101D90000189C9B24FF6FF7505EA032515432543AE
:101DA0002943018130BD2DE9F04105460E46174615
:101DB0009846002443463A4631462846FFF7E5FF59
:101DC0002C894FF6F870044044F007044FF68F70EA
:101DD000044044F070042C81BDE8F081F0B5044665
:101DE0000D4616461F463B46324629462046FFF71B
:101DF000CCFF208940F480402081F0BD82884FF6DE
:101E00008F731A40828082880A43828070470289D9
:101E10004FF6F8731A40028102890A430281704723
:101E200002894FF67F731A40028102890A430281B8
:101E30007047F0B50C4615461E46002100220023CF
:101E40000189028B038C4FF6F877394021434FF616
:101E5000FC473A4040F201173A434FF6DD773B40EA
:101E60004FF6FF7707EA06172F433B4301810283B2
:101E70000384F0BD21B1828842F08002828004E0B8
:101E800082884FF67F731A4082807047A0F8501006
:101E900070470000FA48006840F00100F849086007
:101EA0000020F74908310860F5480068F549084006
:101EB000F3490860F448091D0860081F006820F411
:101EC0008020091F08600020ED490C310860704730
:101ED0000021EB4A921C117011460870704710B532
:101EE00001460022002300204A11012A02D1E44CBD
:101EF000236808E0022A03D1E14C7034236802E031
:101F0000DF4C7434236801F01F02012494401C400C
:101F10000CB1012000E0002010BD38B50020009079
:101F20000024002500BF3120FFF7D9FF05460098A7
:101F3000401C00900098B0F5A06F01D0002DF2D0A9
:101F40003120FFF7CCFF08B1012400E00024204637
:101F500038BD01460020CA4A106820F0F80040EA67
:101F6000C10010607047C949086070470021C44A29
:101F7000703211701170012802D004280AD104E0D7
:101F80000121BF4A7032117005E00521BC4A703250
:101F9000117000E000BF00BF7047BD490860704786
:101FA00070B5049C41EA82150126C6EB530645EA4A
:101FB0000645054345EA0465B14E361D356070BDE2
:101FC000B24908667047820142EA0172AC4B843321
:101FD0001A607047AD4988667047AC49C86470475D
:101FE00002460020A64B0833186820F0EC6042EA55
:101FF00001031843A24B08331860704702460020C3
:102000009F4B0833186820F0784042EA01031843D8
:102010009B4B08331860704701460020984A0832ED
:10202000106820F00300084310607047944808309F
:10203000006800F00C00704701460020904A08320A
:10204000106820F0F000084310607047014600203F
:102050008B4A0832106820F4E05008431060704743
:1020600001460020864A0832106820F4604040EAA9
:10207000C10010607047F0B5002100220024022545
:10208000002602237E4F08373F6807F00C0121B17C
:10209000042905D0082937D105E07E4F076036E0D6
:1020A0007D4F076033E0764F3F1D3F68C7F3805692
:1020B000734F3F1D3F6807F03F036EB1764FB7FB8C
:1020C000F3F7DFF8BCC10CF1040CDCF800C0CCF372
:1020D000881C07FB0CF40CE06E4FB7FBF3F7DFF83E
:1020E000A0C10CF1040CDCF800C0CCF3881C07FB89
:1020F0000CF4634F3F1D3F68C7F301477F1C7D0011
:10210000B4FBF5F7076002E0624F076000BF00BF55
:102110005B4F08373F6807F0F00109095F4F7A5CB1
:102120000768D7404760564F08373F6807F4E051CB
:10213000890A5A4F7A5C4768D7408760504F083702
:102140003F6807F46041490B544F7A5C4768D740B9
:10215000C760F0BD002100F44072B2F5407F0AD1A3
:10216000474A0832116821F4F8114D4A02401143E0
:10217000434A08321160424A70321268C0F30B03BE
:102180001A433F4B70331A60704741494439086025
:1021900070473F49403908607047424908607047BE
:1021A00039B1374A303212680243354B30331A6046
:1021B00006E0334A303212688243314B30331A60C2
:1021C000704739B12E4A3432126802432C4B3433F3
:1021D0001A6006E02A4A343212688243284B3433AC
:1021E0001A60704739B1264A383212680243244BCC
:1021F00038331A6006E0224A383212688243204B94
:1022000038331A60704739B11D4A403212680243B0
:102210001B4B40331A6006E0194A40321268824371
:10222000174B40331A60704739B1154A443212686F
:102230000243134B44331A6006E0114A44321268D9
:1022400082430F4B44331A60704739B10C4A103245
:10225000126802430A4B10331A6006E0084A103233
:1022600012688243064B10331A607047E1B1044A8A
:10227000143212680243024B14331A6019E0000052
:1022800000380240FFFFF6FE1030002400004742F5
:10229000800E47420024F40040787D017C0000203D
:1022A000FFFCFF0F5C0147425B4A126882435A4BB6
:1022B0001A60704739B1584A121D12680243564BD2
:1022C0001B1D1A6006E0544A121D12688243524BCD
:1022D0001B1D1A60704739B14F4A0C321268024315
:1022E0004D4B0C331A6006E04B4A0C3212688243A5
:1022F000494B0C331A60704739B1474A10321268A3
:102300000243454B10331A6006E0434A103212680C
:102310008243414B10331A60704739B13E4A3C3218
:10232000126802433C4B3C331A6006E03A4A3C32A6
:1023300012688243384B3C331A60704739B1364AD1
:10234000403212680243344B40331A6006E0324A8E
:10235000403212688243304B40331A60704739B1C3
:102360002D4A4432126802432B4B44331A6006E074
:10237000294A443212688243274B44331A6070471B
:1023800039B1254A4C3212680243234B4C331A6050
:1023900006E0214A4C32126882431F4B4C331A60CC
:1023A000704739B11C4A5032126802431A4B5033FD
:1023B0001A6006E0184A503212688243164B5033B6
:1023C0001A60704739B1144AD21F12780243124B77
:1023D000DB1F1A7006E0104AD21F127882430E4BA0
:1023E000DB1F1A7070470C486030006840F0807046
:1023F000094960310860704701460020064A083AE2
:1024000012680A400AB1012000E00020704702492A
:10241000891F0870704700001438024010B5044648
:10242000FE48844209D101214806FFF754FF0021EC
:102430004FF00070FFF74FFF08E001218806FFF71B
:102440004AFF00214FF08060FFF745FF10BD30B517
:10245000024600200023146824F00204146014686B
:1024600044F00104146000E05B1C546804F00104B3
:102470001CB94FF6FF74A342F6D1546804F001046E
:102480000CB900206CE08C79012C04D1146844F064
:102490008004146003E0146824F080041460CC7994
:1024A000012C04D1146844F04004146003E0146863
:1024B00024F0400414600C7A012C04D1146844F018
:1024C0002004146003E0146824F0200414604C7AA3
:1024D000012C04D1146844F01004146003E0146863
:1024E00024F0100414608C7A012C04D1146844F098
:1024F0000804146003E0146824F008041460CC7A23
:10250000012C04D1146844F00404146003E014683E
:1025100024F0040414608C78A407CD7844EA0564A0
:102520000D7944EA05444D7944EA05540D886D1E41
:102530002C43D461146824F001041460002300E0EB
:102540005B1C546804F001041CB14FF6FF74A342F5
:10255000F6D1546804F001040CB1002000E0012021
:1025600030BD10B50021837A012202FA03F1AC4A92
:10257000126842F00102AA4B1A60A94A1C32126882
:102580008A43A74B1C331A60027BCAB9A44A0C3297
:1025900012688A43A24B0C331A604288C38842EA0D
:1025A00003439F4A4032847A42F834300288838859
:1025B00042EA03439A4A4032847A02EBC4025360EF
:1025C000027B012A19D1964A0C3212680A43944BB5
:1025D0000C331A604288038842EA0343904A40322F
:1025E000847A42F83430C288838842EA03438C4AB2
:1025F0004032847A02EBC4025360C27A3AB9884A04
:10260000121D12688A43864B1B1D1A6006E0844A1D
:10261000121D12680A43824B1B1D1A60028932B9CF
:102620007F4A143212688A437D4B14331A60028940
:10263000012A06D17A4A143212680A43784B1433BD
:102640001A60427B012A06D1754A1C3212680A437D
:10265000734B1C331A60724A126822F00102704BED
:102660001A6010BD00218171C171017241728172C5
:10267000C1728170C1700321017102214171012178
:10268000018070476649096841F00101644A1160A0
:102690001146096843F60E729143614A1160114672
:1026A000096841EA002111601146096821F0010121
:1026B0001160704721B1026842F48032026003E089
:1026C000026822F4803202607047E1B1026842F091
:1026D000800202604FF4C272125842F480734FF4C9
:1026E000C27213504FF4CA72125842F480734FF4FE
:1026F000CA7213504FF4D272125842F480734FF4DE
:10270000D27213501BE0026822F0800202604FF484
:10271000C272125822F480734FF4C27213504FF4F5
:10272000CA72125822F480734FF4CA7213504FF4D5
:10273000D272125822F480734FF4D2721350704741
:1027400010B502460020936803F08063B3F1806FF8
:1027500000D110E0936803F00063B3F1006F01D182
:10276000012008E0936803F08053B3F1805F01D14A
:10277000022000E00420042879D002F5C07303EBA6
:1027800000131B6803F0010402F5C07303EB001390
:102790001C600B7A7BB94B7A0C8843EA445302F5F0
:1027A000C07404EB00142468234302F5C07404EBE6
:1027B0000014236010E00B7A4C6843EAC4034C7A9F
:1027C000234302F5C07404EB00142468234302F58C
:1027D000C07404EB001423608B7A03F00F038B7238
:1027E00002F5C07303EB00135B6823F00F0402F5DE
:1027F000C07303EB00135C6002F5C07303EB0013BE
:102800005B688C7A234302F5C07404EB00146360A8
:102810008B7B1C064B7B44EA034403E000640040CE
:10282000006600400B7B44EA0323CC7A234302F585
:10283000C07404EB0014A3608B7C1C064B7C44EA40
:1028400003440B7C44EA0323CC7B234302F5C0748E
:1028500004EB0014E36002F5C07303EB00131B6884
:1028600043F0010402F5C07303EB00131C6010BDBC
:1028700010B50246002321B1012907D002290FD14A
:1028800009E09068F94C00EA04030BE09068F84C0A
:1028900000EA040306E09068F64C00EA040301E055
:1028A000002300BF00BFF44C181BA34216D007DC66
:1028B00083B16FF08060184470B1022818D111E024
:1028C000B0F5007F10D0ED4C204448B1B0F5003F8A
:1028D0000ED10BE002230DE000230BE0002309E002
:1028E000002307E0012305E0012303E0012301E0C9
:1028F000002300BF00BFD8B210BD21B1012907D00D
:1029000002290FD109E0826842F0800282600AE069
:10291000826842F40042826005E0826842F400026C
:10292000826000E000BF00BF704710B500F5D873AB
:1029300003EB01131B6803F004031372137A53B9FA
:1029400000F5D87303EB01131B6840F2FF7404EA2F
:102950005353136009E000F5D87303EB01131B68B0
:102960006FF0604404EAD303536000F5D87303EBBF
:1029700001131B6803F00203537200F5D87303EBD5
:1029800001135B6803F00F03937200F5D87303EB38
:1029900001135B681B0AD37400F5D87303EB0113B2
:1029A0009B68D37200F5D87303EB01139B681C0A74
:1029B000147300F5D87303EB01139B681C0C54735C
:1029C00000F5D87303EB01139B681B0E937300F59E
:1029D000D87303EB0113DB68D37300F5D87303EBF3
:1029E0000113DB681C0A147400F5D87303EB0113A0
:1029F000DB681C0C547400F5D87303EB0113DB681F
:102A00001B0E937421B9C36843F02003C36003E035
:102A1000036943F02003036110BD21B9C26842F08D
:102A20002002C26003E0026942F0200202617047A6
:102A30000246002019B9D36803F0030006E001291B
:102A400003D1136903F0030000E00020704710B5C4
:102A500002460B4600204FF6FF71BBB9146824F004
:102A6000020444F00104146000E0491E546804F0BC
:102A70000304012C01D00029F7D1546804F00304A9
:102A8000012C01D0002032E0012030E0012B13D1D5
:102A9000146824F00304146000E0491E546804F034
:102AA00003040CB10029F8D1546804F003040CB1FC
:102AB00000201CE001201AE0022B17D1146824F03A
:102AC000010444F00204146000E0491E546804F05C
:102AD0000304022C01D00029F7D1546804F0030448
:102AE000022C01D0002002E0012000E0002010BDF7
:102AF000014600200A6822F0010242F002020A6048
:102B00004A6802F00302022A00D101207047014600
:102B10004FF6FF7200200B6823F002030B6000E009
:102B2000521E4B6803F00203022B01D1002AF7D199
:102B30004B6803F00203022B00D0012070470146CE
:102B400000208A6902F070007047014600208A69FF
:102B5000100E7047014600208A69C2F30740704793
:102B60001AB143690B43436102E043698B434361FC
:102B7000704710B50246002001F4700343B1936919
:102B8000C1F3130423400BB101202DE000202BE002
:102B900001F0807343B15368C1F3130423400BB1B8
:102BA000012021E000201FE001F0006343B19368A1
:102BB000C1F3130423400BB1012015E0002013E002
:102BC00001F0007343B1D368C1F3130423400BB188
:102BD000012009E0002007E01369C1F3130423403A
:102BE0000BB1012000E0002010BD0022244B9942CF
:102BF00002D10023836111E0C1F3130201F00073DD
:102C00000BB1C2600AE001F080630BB1026105E024
:102C100001F000630BB1826000E042607047024641
:102C2000002002EA01030BB1012000E00020704700
:102C300070B504460D46002660692840002872D011
:102C4000B5F5807F69D01DDC082D42D006DC012D52
:102C50002DD0022D31D0042D7FD134E0102D3ED067
:102C6000202D42D0402D78D145E000000300000423
:102C70000003000800000310000100080001FFF736
:102C80007000F030B5F5004F61D009DCB5F5007F7C
:102C90004AD0B5F5806F4DD0B5F5006F5DD150E0ED
:102CA000B5F5803F2DD0B5F5003F56D12FE0A06897
:102CB0005549FFF7B4FF064651E0E0680321FFF7EE
:102CC000AEFF06464BE0E0680821FFF7A8FF064686
:102CD00045E0E0681021FFF7A2FF06463FE02069CB
:102CE0000321FFF79CFF064639E020690821FFF722
:102CF00096FF064633E020691021FFF790FF064655
:102D00002DE060680821FFF78AFF064627E060682B
:102D10001021FFF784FF064621E0A0690121FFF79B
:102D20007EFF06461BE01BE0A0690221FFF777FF4C
:102D3000064614E0A0690421FFF771FF06460EE085
:102D40000BE0A0697021FFF76AFF064607E06068A4
:102D50000421FFF764FF064601E0002600BF00E003
:102D60000026304670BDB1F5007F3AD00FDC202937
:102D700028D006DC01291CD004291DD0082940D107
:102D80001DE0402921D0B1F5807F3AD126E0B1F590
:102D9000004F31D006DCB1F5806F25D0B1F5006F62
:102DA0002FD124E0B1F5803F12D0B1F5003F28D1FA
:102DB00011E0154A826025E00822C26022E010225C
:102DC000C2601FE0082202611CE01022026119E0CB
:102DD0000822426016E01022426013E004224260A2
:102DE00010E0042242600DE0042242600AE000226A
:102DF00082610422426005E0002282610422426076
:102E000000E000BF00BF70470101010000204449FD
:102E10000860091D0860091D0860091D0860414817
:102E20003F4914310860704700213D498279002AEA
:102E30003AD00A46126803689A430B461A600A1D84
:102E4000126803689A430B1D1A60027911440A68DC
:102E500003681A430A60324A0832126803689A43C8
:102E60002F4B08331A601A1D126803689A432C4BC3
:102E70000C331A604279102A0ED11A1F12680368A7
:102E80001A43274B08331A601A1D126803681A4345
:102E9000234B0C331A600DE02149427911440A6832
:102EA00003681A430A6005E0027911440A6803685E
:102EB0009A430A6070470021016001710C21417141
:102EC0000021817170471649103109680143144A85
:102ED00010321160704701460020114A1432126806
:102EE0000A400AB1012000E0002070470C4914316B
:102EF00008607047014600200022094B1B6803EA66
:102F00000102074B14331B680B4013B10AB10120B7
:102F100000E000207047024914310860704700004B
:102F2000003C0140FFFF7F0010B504468C488442FE
:102F300008D101210846FFF788F900210120FFF799
:102F400084F95EE08748844208D101210220FFF71E
:102F50007CF900210220FFF778F952E08248844290
:102F600008D101210420FFF770F900210420FFF7A8
:102F70006CF946E07D48844208D101210820FFF722
:102F800064F900210820FFF760F93AE078488442AC
:102F900008D101211020FFF758F900211020FFF778
:102FA00054F92EE07348844208D101212020FFF714
:102FB0004CF900212020FFF748F922E06E488442B6
:102FC00008D101214020FFF740F900214020FFF700
:102FD0003CF916E06948844208D101218020FFF7BE
:102FE00034F900218020FFF730F90AE06448844278
:102FF00007D101218015FFF728F90021A015FFF75F
:1030000024F910BDF0B50A4600210023002400BFBA
:103010003DE0012505FA01F3156805EA03049C4229
:1030200034D105684F000326BE40B54305601579CD
:103030004E00B5400668354305601579012D02D074
:103040001579022D16D185684F000326BE40B54381
:10305000856055794E00B540866835438560456882
:1030600001268E40B5434560456896798E40B6B2DC
:1030700035434560C5684F000326BE40B543C56073
:10308000D5794E00B540C6683543C560491C102946
:10309000BFD3F0BD4FF6FF71016000210171417196
:1030A0008171C171704708B54FF480320092009A67
:1030B0000A430092009AC261C161009AC261C2696A
:1030C0000092C269009208BD0246002013690B40BD
:1030D0000BB1012000E0002070470146086980B272
:1030E00070470246002053690B400BB1012000E0FD
:1030F000002070470146486980B2704701837047DD
:10310000418370470AB1018300E041837047416108
:10311000704742694A4042617047F0B5002300247D
:103120004D07ED0E02FA05F3CE1000F1200555F81B
:1031300026504E07F70E0F26BE40B543CF1000F1C4
:10314000200646F82750CE1000F1200555F82650ED
:1031500045EA0304CE1000F1200545F82640F0BDF5
:10316000000002400004024000080240000C02403F
:10317000001002400014024000180240001C0240EF
:1031800000200240016821F001010160002101607E
:1031900041608160C160016121214161DB49884258
:1031A00004D13D21D94A103A91608CE0D7491831B9
:1031B000884205D14FF47461D44A103A916082E09C
:1031C000D2493031884205D14FF47411CF4A103AB8
:1031D000916078E0CD494831884205D14FF0746163
:1031E000CA4A103A91606EE0C8496031884204D101
:1031F000C749C64A103AD16065E0C449783188426F
:1032000004D1C449C14A103AD1605CE0BF49903151
:10321000884204D1C049BD4A103AD16053E0BB494D
:10322000A831884205D14FF03D51B84A103AD160DB
:1032300049E0BA49884204D13D21B84A083A1160B0
:1032400041E0B6491831884205D14FF47461B34A60
:10325000083A116037E0B1493031884205D14FF466
:103260007411AE4A083A11602DE0AC4948318842E9
:1032700005D14FF07461A94A083A116023E0A749CB
:103280006031884204D1A249A44A121F11601AE099
:10329000A2497831884204D19E49A04A121F116088
:1032A00011E09E499031884204D19B499B4A121FEC
:1032B000116008E09949A831884204D14FF03D518E
:1032C000964A121F1160704710B500220268944B95
:1032D0001A40CC680B6823434C6923438C69234311
:1032E000CC6923430C6A23434C6A23438C6A2343EF
:1032F0004C6B23438C6B23431A430260426922F0D8
:103300000702D1E90B3423431A4342610B6943603E
:103310004B6883608B68C36010BD00210160416011
:103320008160C160016141618161C161016241628D
:103330008162C162016341638163704721B10268A8
:1033400042F00102026003E0026822F00102026022
:10335000704721B1026842F40042026003E0026853
:1033600022F400420260704721B1026842F020025C
:10337000026003E0026822F02002026070474160B0
:1033800070470146486880B2704722B1036843F431
:103390000023036003E0036823F40023036001615A
:1033A000704721B1026842F48022026003E00268A3
:1033B00022F48022026070470AB1016100E0C1601E
:1033C0007047014600200A6802F400220AB1012079
:1033D00000E000207047014600200A6802F0010268
:1033E0000AB1012000E000207047014600204A6930
:1033F00002F03800704730B503460A46002000242A
:10340000464DAB4202D24149103901E043491039DF
:1034100002F000550DB14C6800E00C68414D2C40A5
:1034200004EA02050DB1012000E0002030BD024693
:103430003A4B9A4202D23548103801E037481038EA
:1034400001F000531BB1374B0B40C36002E0354B1A
:103450000B408360704710B501F080034BB122B17F
:10346000436943F08003436103E0436923F0800331
:10347000436180290BD02AB1036801F01E04234365
:10348000036004E0036801F01E04A343036010BD61
:1034900070B50246002000240025204EB24202D220
:1034A0001A4B103B01E01D4B103B1F4E0E4036B136
:1034B0001E2606EAD124166806EA040502E05669CB
:1034C00006F0800501F000560EB15C6800E01C6853
:1034D000144E344004EA010616B10DB1012000E09B
:1034E000002070BD02460D4B9A4202D207481038A8
:1034F00001E00A48103801F000531BB1094B0B40A2
:10350000C36002E0074B0B408360704710600240CD
:103510003D000020400F002000003D2010640240CC
:103520003F801CF07D0F7D0F3C0F3C0F10B5044613
:10353000F748844208D101211020FEF7DDFE00216A
:103540001020FEF7D9FE3EE0F248844209D1012165
:103550004804FEF7C0FE00214FF40030FEF7BBFE2A
:1035600031E0ED48844209D101218804FEF7B3FE21
:1035700000214FF48020FEF7AEFE24E0E7488442AD
:1035800009D10121C804FEF7A6FE00214FF4002056
:10359000FEF7A1FE17E0E248844209D101210805A7
:1035A000FEF799FE00214FF48010FEF794FE0AE02A
:1035B000DC48844207D101212020FEF79DFE002136
:1035C0002020FEF799FE10BD2DE9FF4705460E4667
:1035D0000024A14600BFA046B08900B100BF2C8ADC
:1035E00024F44054F08804432C82AC8941F20C60EE
:1035F0008443B08831890843718908430443AC810E
:10360000AC8A24F44074B0890443AC826846FEF767
:1036100032FDBF48854202D0C248854202D1DDF862
:103620000C9001E0DDF80890A88900F4004040B15A
:1036300009EBC90000EB091031684900B0FBF1F754
:1036400007E009EBC90000EB091031688900B0FB05
:10365000F1F76420B7FBF0F004012009642101FBBD
:103660001078A88900F4004040B1322000EBC80077
:10367000B0FBF1F000F00700044308E0322000EB5B
:1036800008106421B0FBF1F000F00F0004432C811E
:10369000BDE8FF874FF41651016000218180C18091
:1036A00001810C21418100218181704710B50246C2
:1036B0000020108A20F470600B884C8823438C888B
:1036C0002343CC8823431843108210BD002101807E
:1036D00041808180C180704721B1828942F40052CB
:1036E000828104E082894DF6FF731A40828170471F
:1036F000028B02F47F420283028B0A4302837047EB
:1037000021B1828942F40042828103E08289C2F3BE
:103710000E028281704721B1828A42F40062828265
:1037200004E0828A4FF2FF731A4082827047C1F32D
:1037300008028280704701468888C0F308007047FD
:10374000028A4FF6F0731A400282028A0A4302820A
:10375000704721B1828942F00202828104E08289AD
:103760004FF6FD731A408281704782894FF2FF73D2
:103770001A40828182890A4382817047028A4FF609
:10378000DF731A400282028A0A430282704721B123
:10379000028A42F48042028204E0028A4BF6FF73FE
:1037A0001A4002827047818941F00101818170478E
:1037B00021B1828A42F00802828204E0828A4FF6B6
:1037C000F7731A4082827047028BD2B20283028B57
:1037D00042EA01220283704721B1828A42F020022C
:1037E000828204E0828A4FF6DF731A408282704739
:1037F00021B1828A42F01002828204E0828A4FF66E
:10380000EF731A4082827047828A4FF6FB731A4028
:103810008282828A0A438282704721B1828A42F080
:103820000202828204E0828A4FF6FD731A4082828D
:1038300070471AB1838A0B43838202E0838A8B43E9
:1038400083827047F0B5034600240026002500203F
:1038500040F66A17B94200D100BF1846C1F34214BE
:1038600001F01F06012707FA06F5012C01D10C30E3
:1038700004E0022C01D1103000E014301AB10768C6
:103880002F43076002E00768AF430760F0BD0246C0
:103890000020B1F5007F00D100BF13880B400BB1B1
:1038A000012000E00020704701F40072B2F5007FB3
:1038B00000D100BFCA430280704770B502460024A1
:1038C00000230025002040F66A16B14200D100BF57
:1038D000C1F3421501F01F03012606FA03F3012D7F
:1038E00002D19689334006E0022D02D1168A334078
:1038F00001E0968A33400C12012606FA04F4168879
:10390000344013B10CB1012000E0002070BD000074
:10391000001001400044004000480040004C0040BE
:10392000005000400014014010B50022002340F672
:103930006A14A14200D100BF0A1201249440A3B22C
:10394000DC43048010BD000010B501218803FEF7A0
:10395000D3FC00214FF48040FEF7CEFC10BD1A4985
:103960000860704730B500228B071C0F0F2303FA45
:1039700004F2154B08338C1053F824309343124C47
:1039800008348D1044F8253023468C1053F8243029
:103990008C07240F00FA04F423430B4C08348D10D9
:1039A00044F8253030BD094908607047084908606F
:1039B0007047002004492031096801F4807109B181
:1039C000012000E00020704700380140DC00274261
:1039D000000427420CB50020019000907648006852
:1039E00040F480307449086000BF7348006800F4F8
:1039F000003000900198401C0190009818B901987F
:103A0000B0F5A06FF1D16C48006800F4003010B13F
:103A10000120009001E0002000900098012846D18C
:103A200065484030006840F080506349403108608C
:103A30006248006840F48040604908605E48083091
:103A400000685D49083108600846006840F400409D
:103A500008600846006840F4A05008605848091FF4
:103A60000860081F006840F08070091F086000BFF0
:103A70005148006800F000700028F9D040F205605D
:103A8000504908604C480830006820F003004A495B
:103A9000083108600846006840F00200086000BF76
:103AA00045480830006800F00C000828F8D10CBD2B
:103AB00010B54548006840F47000434908603E482E
:103AC000006840F001003C49086000203A49083194
:103AD0000860394800683D490840374908603C485B
:103AE000091D0860081F006820F48020091F086075
:103AF000002031490C310860FFF76CFF4FF0006087
:103B000031498039086010BD70B5002000220223C1
:103B100000240221284D08352D6805F00C0020B145
:103B2000042806D0082834D107E02A4D2A4E3560F3
:103B300033E02A4D284E35602FE01F4D2D1D2D6896
:103B4000C5F380541C4D2D1D2D6805F03F0154B167
:103B5000224DB5FBF1F5184E361D3668C6F38816B2
:103B600005FB06F209E01B4DB5FBF1F5124E361DC3
:103B70003668C6F3881605FB06F20F4D2D1D2D681D
:103B8000C5F301456D1C6B00B2FBF3F5124E3560B9
:103B900003E0104D104E356000BF00BF064D0835E4
:103BA0002D68C5F303150E4E705D0B4D2D68C54095
:103BB000094E356070BD00000038024000700040C2
:103BC00019544007003C024088ED00E0FFFFF6FE7C
:103BD000103000240024F4008C00002040787D0187
:103BE000900000200648804706480047FEE7FEE7B1
:103BF000FEE7FEE7FEE7FEE7FEE7FEE7FEE7FEE79D
:103C0000B13A00088901000808B50020009000F0D2
:103C1000DDFB01236A467521D02000F025FD40B967
:103C20009DF80000682809D0E0A002F073FFFF2093
:103C300008BDE6A002F06EFFFF20F9E701226B212C
:103C4000D02000F0E3FCFF2804D1E8A002F062FFDE
:103C5000FF20EDE707221921D02000F0D7FCFF2834
:103C600004D1EAA002F056FFFF20E1E700221A216A
:103C7000D02000F0CBFCFF2804D1ECA002F04AFFDA
:103C8000FF20D5E708221B21D02000F0BFFCFF2831
:103C900004D1EDA002F03EFFFF20C9E708221C215D
:103CA000D02000F0B3FCFF2804D1F0A002F032FFD6
:103CB000FF20BDE702223721D02000F0A7FCFF281B
:103CC00004D1F3A002F026FFFF20B1E70122382142
:103CD000D02000F09BFCFF2804D1F6A002F01AFFD0
:103CE000FF20A5E70020A3E708B5002000900123EE
:103CF0006A4675213C2000F0B7FC38B99DF80000F9
:103D000048B1F4A002F006FFFF2008BDF9A002F0C0
:103D100001FFFF20F9E7142200213C2000F076FC8F
:103D2000FF2804D1FCA002F0F5FEFF20EDE7002201
:103D300002213C2000F06AFCFF2804D1FEA002F022
:103D4000E9FEFF20E1E70020DFE700B52DED088B5D
:103D500083B0062301AA03213C2000F085FCFF2844
:103D600007D1FCA002F0D6FEFF2003B0BDEC088B0B
:103D700000BD9DF805009DF8041040EA012000B246
:103D8000FB4908809DF807009DF8061040EA0120D5
:103D900000B2F74988809DF809009DF8081040EAB4
:103DA000012000B2F24948800846B0F9020000EE56
:103DB000100AB8EEC00AB1EE400A10EE101A08461A
:103DC00002F0B8FC41EC190B9FEDEA0B53EC102B01
:103DD00002F041FC41EC180B02F0F0FCE7490860EE
:103DE000E348B0F9040000EE100AB8EEC00ADFEDB7
:103DF000E40A80EE201A084680ED021ADC48B0F989
:103E0000000000EE100AB8EEC00ADFEDDD0A80EE19
:103E1000201A084680ED011A90ED000A10EE101AE3
:103E2000084602F087FC41EC1A0BD44890ED010AD9
:103E300010EE101A084602F07DFC41EC1B0BB0EEB0
:103E40004A1AF0EE6A1AB0EE4B0AF0EE6B0A03F073
:103E50009FF9B0EE409AF0EE609A9FEDCA0B53ECDA
:103E6000102B51EC190B02F084FB41EC180B02F003
:103E7000A5FCC249C860002077E700B52DED068B90
:103E800085B00E2301AA3B21D02000F0EDFBFF28D6
:103E900007D1BEA002F03EFEFF2005B0BDEC068BB0
:103EA00000BD9DF805009DF8041040EA012000B215
:103EB000BD4908809DF807009DF8061040EA0120E2
:103EC00000B2B94948809DF809009DF8081040EA01
:103ED000012000B2B44988809DF80B009DF80A10BB
:103EE00040EA012000B2B049C8809DF80D009DF85D
:103EF0000C1040EA012000B2AB4908819DF80F0088
:103F00009DF80E1040EA012000B2A74948819DF8B3
:103F100011009DF8101040EA012000B2A2498881EA
:103F20000846B0F9060000EE100AB8EEC00A10EE1E
:103F3000101A084602F0FEFB41EC1A0B9FED9B0B9A
:103F400053EC102B02F087FB41EC190B9FED990B02
:103F500053EC102B02F066FA41EC180B02F02EFC29
:103F60009649C8609048B0F90800954A1268801ACE
:103F700000EE100AB8EEC00AB1EE400A10EE101AB8
:103F8000084602F0D7FB41EC190B9FED8E0B53EC6A
:103F9000102B02F060FB41EC180B02F00FFC87497C
:103FA00008618148B0F90A00884A11E16572726FB0
:103FB00072204D5055363035305F496E69745F5709
:103FC000726F6E6749440D0A000000006572726FDF
:103FD00072204D5055363035305F496E69745F44FC
:103FE00065766963654C6F73740D0A006572726F54
:103FF00072204D5055363035305F496E69745F50D0
:1040000057525F4D474D545F310D0A006572726F14
:1040100072204D5055363035305F496E69745F53AC
:104020004D504C52545F4449560D0A006572726FF0
:1040300072204D5055363035305F496E69745F439C
:104040004F4E4649470D0A006572726F72204D50FF
:1040500055363035305F496E69745F4759524F5F4E
:10406000434F4E4649470D0A000000006572726FCB
:1040700072204D5055363035305F496E69745F415E
:104080004343454C5F434F4E4649470D0A000000ED
:104090006572726F72204D5055363035305F496E03
:1040A00069745F494E545F50494E5F4346470D0A5D
:1040B000000000006572726F72204D505536303529
:1040C000305F496E69745F494E545F454E41424CC2
:1040D000450D0A006572726F7220484D43353838BD
:1040E000334C5F496E69745F57726F6E6749440D58
:1040F0000A0000006572726F7220484D43353838EF
:10410000334C5F496E69745F4465766963654C6FD3
:1041100073740D0A000000006572726F7220484DC2
:1041200043353838334C5F496E69745F434F4E46B0
:104130004947410D0A0000006572726F7220484DB8
:1041400043353838334C5F496E69745F4D4F444591
:104150000D0A00006572726F7220484D4335383881
:10416000334C5F52656164446174610D0A00000064
:10417000A000002000000000000891408401002001
:1041800000408844775AF01ADCA54C406572726F83
:1041900072204D5055363035305F52656164446150
:1041A00074610D0A000000005801002000000000AA
:1041B00000407540A4703D0AD7434240680100208A
:1041C000A80000200000000000605040AC0000206B
:1041D0001268801A00EE100AB8EEC00AB1EE400A6A
:1041E00010EE101A084602F0A5FA41EC190B1FED6B
:1041F0000B0B53EC102B02F02EFA41EC180B02F0D3
:10420000DDFA564948615648B0F90C00554A126823
:10421000801A00EE100AB8EEC00A10EE101A084616
:1042200002F088FA41EC190B1FED1A0B53EC102B1E
:1042300002F011FA41EC180B02F0C0FA474988610C
:1042400000202AE610B52DED088B9FED470AB0EE51
:10425000408A9FED450AF0EE408A9FED430AB0EE9A
:10426000409A02214148FEF74BFF002427E0FFF768
:1042700004FE0120FBF7C2FF3948B0F9080000EE48
:10428000100AB8EEC00A30EE080AB0EE408A344890
:10429000B0F90A0000EE100AB8EEC00A30EE280AA3
:1042A000F0EE408A2E48B0F90C0000EE100AB8EE8D
:1042B000C00A30EE090AB0EE409A601C84B2B4F530
:1042C0007A7FD4DB18EE100A02F034FA41EC1B0BB3
:1042D0009FED270B53EC102B02F0BDF941EC1A0BAC
:1042E00002F06CFA08EE100A18EE900A02F022FAB8
:1042F00041EC1B0B9FED1E0B53EC102B02F0ABF9A6
:1043000041EC1A0B02F05AFA08EE900A19EE100A64
:1043100002F010FA41EC1B0B9FED150B53EC102B28
:1043200002F099F941EC1A0B02F048FA09EE100A72
:10433000BDEEC80A104880ED000ABDEEE80A0F483D
:1043400080ED000ABDEEC90A064880ED000A022190
:104350000648FEF7D3FEBDEC088B10BD68010020B7
:1043600058010020B00000200000000000080240BA
:104370000000000000408F40A8000020AC0000209A
:1043800010B5002106E0062200BF1300A2F10102D1
:10439000FBD1491C8142F6D310BD1CB5012102207E
:1043A000FDF7FEFE1020009001208DF80400002093
:1043B0008DF8060003208DF805006946CF48FEF70A
:1043C00021FE1021CD48FEF79BFE1CBD1CB501212E
:1043D0000220FDF7E5FE4FF44070009001208DF8BB
:1043E00004008DF8060003208DF805006946C348D7
:1043F000FEF708FE1CBD1CB54FF4007000900120B4
:104400008DF804008DF8060003208DF8050069463C
:10441000BA48FEF7F7FD1CBD1CB54FF400700090C4
:1044200000208DF804008DF806008DF807000220AA
:104430008DF805006946B148FEF7E4FD1CBD10B5D6
:10444000FFF7D9FF4FF40071AC48FEF757FE4FF469
:104450008071AA48FEF752FE0120FFF791FF4FF44A
:104460000071A648FEF74CFE0120FFF789FF4FF4CC
:104470008071A248FEF744FE10BD10B5FFF7BBFFE8
:104480004FF480719D48FEF73BFE4FF400719B484E
:10449000FEF736FE0120FFF773FF4FF48071974857
:1044A000FEF72CFE4FF400719448FEF727FE012022
:1044B000FFF766FF10BD10B50446FFF79CFF2CB157
:1044C0004FF400718D48FEF719FE04E04FF40071BF
:1044D0008A48FEF715FE4FF480718848FEF70EFEFD
:1044E0000120FFF74DFF4FF480718448FEF708FE6E
:1044F0000120FFF745FF10BD10B54FF47A744FF45B
:1045000000717E48FEF7FAFDFFF786FF0120FFF7F6
:1045100037FF4FF480717948FEF7F0FD0120FFF777
:104520002FFF0AE0601E80B2040006D0FFF7A5FF4F
:1045300073A002F0EFFAFF2010BD4FF400716F4836
:10454000FEF7C2FD0028EDD14FF480716B48FEF7F5
:10455000D7FD0020F0E770B50446FFF74CFF4FF49D
:1045600080716648FEF7CCFD002521E004F0800054
:1045700028B14FF400716148FEF7C0FD04E04FF42C
:1045800000715E48FEF7BCFD6006040E0120FFF7D7
:10459000F7FE4FF480715948FEF7B0FD0120FFF798
:1045A000EFFE4FF480715548FEF7AAFD681CC5B2B6
:1045B000082DDBDB70BD70B50024FFF72DFF002553
:1045C0001BE04FF480714D48FEF79AFD0120FFF784
:1045D000D7FE4FF480714948FEF790FD6006040E47
:1045E0004FF400714548FEF76FFD08B1601CC4B27E
:1045F0000120FFF7C5FE681CC5B2082DE1DB4FF4B2
:1046000080713E48FEF77CFD204670BD70B50646C1
:104610000C461546FFF713FF3046FFF79CFFFFF7E8
:104620006BFFFF2804D13BA002F074FAFF2070BD9D
:104630002046FFF790FFFFF75FFFFF2804D13EA061
:1046400002F068FAFF20F2E72846FFF784FFFFF741
:1046500053FFFF2804D141A002F05CFAFF20E6E7F7
:10466000FFF70BFF0020E2E72DE9F04106460F4679
:1046700014469846FFF7E3FE3046FFF76CFFFFF75E
:104680003BFFFF2805D13EA002F044FAFF20BDE821
:10469000F0813846FFF75FFFFFF72EFFFF2804D1B8
:1046A00040A002F037FAFF20F1E7FFF7C8FE711CC7
:1046B000C8B2FFF750FFFFF71FFFFF2804D142A049
:1046C00002F028FAFF20E2E7002508E0FFF773FF79
:1046D00020700020FFF7EFFE641C681CC5B2A8F133
:1046E0000100A842F2DCFFF766FF20700120FFF70F
:1046F000E2FEFFF7C2FE0020C9E70000000402400E
:104700006572726F72204949435F576169744163F2
:104710006B0D0A006572726F72204949435F5772D0
:10472000697465446174615F6465765F576169743B
:1047300041636B0D0A0000006572726F7220494977
:10474000435F5772697465446174615F7265675F46
:104750005761697441636B0D0A0000006572726FE6
:1047600072204949435F5772697465446174615F9F
:10477000646174615F5761697441636B0D0A000085
:104780006572726F72204949435F5265616444618A
:1047900074615F6465765F5761697441636B0D0A8C
:1047A000000000006572726F72204949435F5265D4
:1047B0006164446174615F7265675F5761697441E8
:1047C000636B0D0A000000006572726F7220494928
:1047D000435F52656164446174615F6465762B3147
:1047E0005F5761697441636B0D0A00001FB50121B9
:1047F0008803FDF719FD01210846FDF7D1FC1020C3
:10480000029000208DF80C008DF80E0001208DF82C
:104810000F0002208DF80D0002A94A48FEF7F2FBB6
:104820000820029002A94748FEF7ECFB0321002074
:10483000FFF798F804210020FFF794F8102000906B
:1048400000208DF804000C208DF8050001208DF863
:1048500006006846FEF7E8FA082000906846FEF772
:10486000E3FA0123002211460A20FCF71EFC1FBDBB
:1048700010B588B01020FEF73DFB012827D1FFF7C7
:10488000FCFA00F069F8304801690091808AADF8BF
:10489000040016222C4902A801F0B2FD02A80FC89C
:1048A000FBF768FF68B12848B0F90A002649498A31
:1048B000254CCDE90010237AA28861882088FCF776
:1048C00052FA1020FEF712FB1020FEF724FB08B06E
:1048D00010BD10B50820FEF70DFB012830D1FFF701
:1048E00034FA1A48D0ED024AB0EE644AD0ED014ADB
:1048F000F0EE643AD0ED004AB0EE643A1448D0EDE0
:10490000024AF0EE642AD0ED014AB0EE642AD0EDFE
:10491000004AF0EE641A0F48D0ED024AB0EE641A75
:10492000D0ED014AF0EE640AD0ED004AB0EE640A20
:1049300000F02CFF0820FEF7D9FA0820FEF7EBFA6A
:1049400010BD000000000240420100208401002050
:1049500068010020A00100202DE9F0412DED048B1D
:104960000024002500260027FE480068B8B9012071
:10497000FC49086000BF0FE0FB480088FB4921F8B4
:104980001400F9484088FA4921F81400F648808854
:10499000F84921F81400641C0A2CEDD31FE0F248FA
:1049A0000088F249F44A126821F81200EE48408863
:1049B000EF49F14A126821F81200EB488188ED486E
:1049C000ED4A126820F81210EB480068401CEA49D2
:1049D0000860084600680A2801D100200860002409
:1049E0000CE0E24830F914000544E14830F91400C5
:1049F0000644E04830F914000744641C0A2CF0D344
:104A000000EE105AB8EEC00A10EE100A01F092FE45
:104A100041EC190B9FEDD90B53EC102B01F01BFE51
:104A200041EC180B01F0CAFED649086000EE106A8E
:104A3000B8EEC00A10EE100A01F07CFE41EC190B32
:104A40009FEDCE0B53EC102B01F005FE41EC180B43
:104A500001F0B4FECB49486000EE107AB8EEC00A0F
:104A600010EE100A01F066FE41EC190B9FEDC30B2E
:104A700053EC102B01F0EFFD41EC180B01F09EFE02
:104A8000C0498860084690ED000AB1EE400ADFEDAB
:104A9000BE0A80EE201ABD4880ED001A084690ED4F
:104AA000010AB1EE400ADFEDB80A80EE201AB748DD
:104AB00080ED011A084690ED020ADFEDB30A80EEA0
:104AC000201AB24880ED021A90ED040A10EE101A76
:104AD000084601F02FFE41EC190B9FEDAD0B53EC96
:104AE000102B01F046FD41EC180B01F067FEAA49BE
:104AF0000860A64890ED050A10EE101A084601F06D
:104B000019FE41EC190B9FEDA20B53EC102B01F099
:104B100030FD41EC180B01F051FE9F4948609B4865
:104B200090ED060A10EE101A084601F003FE41EC63
:104B3000190B9FED970B53EC102B01F01AFD41EC74
:104B4000180B01F03BFE94498860BDEC048BBDE876
:104B5000F081F0EE400AF6EE001A60EEA11AB0EE17
:104B6000611AB0EE600A10EE100A8C49A1EB6000E9
:104B700000EE100A21EE002AF7EE081A42EE401A63
:104B800061EE801AB0EE610A704700B5ABB04FF429
:104B90007A7028909FED820A8DED270A9FED800A9A
:104BA0008DED260A9FED7E0A8DED250A9FED7C0A8C
:104BB0008DED240A9FED7A0A8DED230A9FED780A88
:104BC0008DED220A002029903AE0FFF756F9FFF711
:104BD000C3FEFFF7BAF86D48D0ED000A9DED270A35
:104BE00030EE800A8DED270AD0ED010A9DED260AF0
:104BF00030EE800A8DED260AD0ED020A9DED250AE1
:104C000030EE800A8DED250A6648D0ED000A9DED54
:104C1000240A30EE800A8DED240AD0ED010A9DEDC4
:104C2000230A30EE800A8DED230AD0ED020A9DEDB5
:104C3000220A30EE800A8DED220A2998401C299024
:104C40002998B0F57A7FC0D39DED270ADFED560A8B
:104C500080EE201A8DED271A9DED260ADFED520A0F
:104C600080EE201A8DED261A9DED250ADFED4E0A05
:104C700080EE201A8DED251A9DED240ADFED4A0AFB
:104C800080EE201A8DED241A9DED230ADFED460AF1
:104C900080EE201A8DED231A9DED220ADFED420AE7
:104CA00080EE201A8DED221A279801F043FD9FED2A
:104CB0003F0B53EC102BCDE912019DED120B51EC83
:104CC000100B01F0C8FCCDE914019DED140B02F0AE
:104CD000F3F88DED160B9DED160B51EC100B81F0DA
:104CE0000041CDE918019DED180B51EC100B01F0BE
:104CF00065FD21909DED260ADDED250A80EE201A46
:104D00008DED151A159801F015FDCDE916019DEDF3
:104D1000160B02F0D1F88DED180B9DED180B51EC30
:104D2000100B01F04BFD2090209801F003FDCDE920
:104D300008019DED080B02F023FB8DED0C0B219873
:104D400001F0F8FCCDE904019DED040B02F07CFBC1
:104D50008DED080B229801F0EDFCCDE906019DEDEB
:104D6000080B27E0FC00002058010020AC010020C7
:104D7000C0010020D401002000010020000000003C
:104D8000000024409401002000000046680100203B
:104D900012E7FAA146DF913FA0010020DF59375FFB
:104DA000000000008401002000007A441F85EB51C0
:104DB000B81EF13F53EC102B9DED060B51EC100B80
:104DC00001F0D7FBCDE90A019DED0C0B53EC102B44
:104DD0009DED0A0B51EC100B01F0CBFBCDE910015E
:104DE000209801F0A7FCCDE904019DED040B02F031
:104DF0002BFB8DED080B219801F09CFCCDE9000107
:104E00009DED000B02F020FB8DED040B239801F0CB
:104E100091FCCDE902019DED040B53EC102B9DEDAF
:104E2000020B51EC100B01F0A4FBCDE906019DED46
:104E3000080B53EC102B9DED060B51EC100B01F001
:104E400098FBCDE90C01219801F074FCCDE9040137
:104E50009DED040B02F094FA8DED080B249801F0FF
:104E600069FCCDE906019DED080B53EC102B9DED7F
:104E7000060B51EC100B01F07CFBCDE90A019DED16
:104E80000C0B53EC102B9DED0A0B51EC100B01F0A9
:104E9000C9FACDE90E019DED100B53EC102B9DEDE1
:104EA0000E0B51EC100B01F0BDFACDE91401209866
:104EB00001F040FCCDE906019DED060B02F0C4FABD
:104EC0008DED0A0B229801F035FCCDE908019DED2E
:104ED0000A0B53EC102B9DED080B51EC100B01F05D
:104EE00048FBCDE90E01209801F024FCCDE9060134
:104EF0009DED060B02F044FA8DED0A0B239801F0AC
:104F000019FCCDE908019DED0A0B53EC102B9DED2A
:104F1000080B51EC100B01F02CFBCDE90C019DEDC1
:104F20000E0B53EC102B9DED0C0B51EC100B01F004
:104F30001AFBCDE910019DED100B51EC100B81F027
:104F40000041CDE912019DED140B53EC102B9DEDAA
:104F5000120B51EC100B01F07EFBCDE916019DED1B
:104F6000160B01F0A9FF8DED180B9DED180B51EC00
:104F7000100B01F023FC1F909DED1F0AB0EE001AEC
:104F8000C0EE010ACDED0D0A0D9801F0D3FBCDE97D
:104F90000E019DED0E0B02F057FA8DED120B9DEDFB
:104FA000210AB0EE001AC0EE010ACDED090A0998F7
:104FB00001F0C0FBCDE90A019DED0A0B02F044FAB5
:104FC0008DED0E0B9DED200AB0EE001AC0EE010A29
:104FD000CDED090A099801F0ADFBCDE90A019DED7F
:104FE0000A0B02F031FA8DED0C0B9DED0E0B53EC1C
:104FF000102B9DED0C0B51EC100B01F0BAFACDE922
:1050000010019DED120B53EC102B9DED100B51EC8C
:10501000100B01F0AEFACDE916019DED1F0AB0EEBE
:10502000001AC0EE010ACDED0D0A0D9801F082FBC9
:10503000CDE90E019DED0E0B02F0A2F98DED120BE4
:105040009DED210AB0EE001AC0EE010ACDED090A6D
:10505000099801F06FFBCDE90A019DED0A0B02F002
:105060008FF98DED0E0B9DED200AB0EE001AC0EE0B
:10507000010ACDED090A099801F05CFBCDE90A01AE
:105080009DED0A0B02F07CF98DED0C0B9DED0E0BE6
:1050900053EC102B9DED0C0B51EC100B01F069FA49
:1050A000CDE910019DED120B53EC102B9DED100B73
:1050B00051EC100B01F05DFACDE914019DED160BDA
:1050C00053EC102B9DED140B51EC100B01F0AAF9D1
:1050D000CDE918019DED180B51EC100B01F06EFBA2
:1050E0001E909DED1F0AB0EE001AC0EE010ACDED34
:1050F0000D0A0D9801F01EFBCDE90E019DED0E0B82
:1051000002F0A2F98DED120B9DED210AB0EE001A0E
:10511000C0EE010ACDED090A099801F00BFBCDE9BB
:105120000A019DED0A0B02F08FF98DED0E0B9DED3E
:10513000200AB0EE001AC0EE010ACDED090A099866
:1051400001F0F8FACDE90A019DED0A0B02F018F919
:105150008DED0C0B9DED0E0B53EC102B9DED0C0B00
:1051600051EC100B01F005FACDE910019DED120B89
:1051700053EC102B9DED100B51EC100B01F0F9F9D5
:10518000CDE916019DED1F0AB0EE001AC0EE010A2E
:10519000CDED0D0A0D9801F0CDFACDE90E019DED92
:1051A0000E0B02F0EDF88DED120B9DED210AB0EE25
:1051B000001AC0EE010ACDED090A099801F0BAFA09
:1051C000CDE90A019DED0A0B02F0DAF88DED0E0B28
:1051D0009DED200AB0EE001AC0EE010ACDED090ADD
:1051E000099801F0A7FACDE90A019DED0A0B02F03A
:1051F0002BF98DED0C0B9DED0E0B53EC102B9DED53
:105200000C0B51EC100B01F0B4F9CDE910019DED40
:10521000120B53EC102B9DED100B51EC100B01F009
:10522000A8F9CDE914019DED160B53EC102B9DED63
:10523000140B51EC100B01F096F9CDE918019DED1E
:10524000180B51EC100B01F0B9FA1D909DED1F0ADF
:10525000B0EE001AC0EE010ACDED0D0A0D9801F076
:1052600069FACDE90E019DED0E0B02F0EDF88DED22
:10527000120B9DED210AB0EE001AC0EE010ACDED31
:10528000090A099801F056FACDE90A019DED0A0BC9
:1052900002F076F88DED0E0BDDED200AB0EE001A6F
:1052A00080EE810A8DED090A099801F043FACDE9F3
:1052B0000A019DED0A0B02F0C7F88DED0C0B9DED78
:1052C0000E0B53EC102B9DED0C0B51EC100B01F061
:1052D00050F9CDE910019DED120B53EC102B9DED13
:1052E000100B51EC100B01F044F9CDE916019DEDC6
:1052F0001F0AB0EE001AC0EE010ACDED0D0A0D989E
:1053000001F018FACDE90E019DED0E0B02F038F810
:105310008DED120BDDED210AB0EE001A80EE810A50
:105320008DED090A099801F005FACDE90A019DED14
:105330000A0B02F089F88DED0E0B9DED200AB0EE00
:10534000001AC0EE010ACDED090A099801F0F2F940
:10535000CDE90A019DED0A0B02F012F88DED0C0B60
:105360009DED0E0B53EC102B9DED0C0B51EC100B27
:1053700001F0FFF8CDE910019DED120B53EC102B5D
:105380009DED100B51EC100B01F0F3F8CDE9140179
:105390009DED160B53EC102B9DED140B51EC100BE7
:1053A00001F040F8CDE918019DED180B51EC100B00
:1053B00001F004FA1C909DED1F0AB0EE001AC0EE39
:1053C000010ACDED0D0A0D9801F0B4F9CDE90E01F9
:1053D0009DED0E0B01F0D4FF8DED120B9DED210A1A
:1053E000B0EE001AC0EE010ACDED090A099801F0ED
:1053F000A1F9CDE90A019DED0A0B02F025F88DED2A
:105400000E0B9DED200AB0EE001AC0EE010ACDEDA4
:10541000090A099801F08EF9CDE90A019DED0A0B00
:1054200002F012F88DED0C0B9DED0E0B53EC102BD2
:105430009DED0C0B51EC100B01F09BF8CDE9100128
:105440009DED120B53EC102B9DED100B51EC100B3E
:1054500001F08FF8CDE916019DED1F0AB0EE001A9C
:10546000C0EE010ACDED0D0A0D9801F063F9CDE90A
:105470000E019DED0E0B01F0E7FF8DED120B9DED82
:10548000210AB0EE001AC0EE010ACDED090A099812
:1054900001F050F9CDE90A019DED0A0B01F070FF12
:1054A0008DED0E0B9DED200AB0EE001AC0EE010A44
:1054B000CDED090A099801F03DF9CDE90A019DED0C
:1054C0000A0B01F05DFF8DED0C0B9DED0E0B53EC07
:1054D000102B9DED0C0B51EC100B01F04AF8CDE9AF
:1054E00010019DED120B53EC102B9DED100B51ECA8
:1054F000100B01F03EF8CDE914019DED160B53ECB5
:10550000102B9DED140B51EC100B00F08BFFCDE92F
:1055100018019DED180B51EC100B01F04FF91B9089
:105520009DED1E0A20EE000ADDED1D0A00EEA00A28
:10553000DDED1C0A00EEA00ADDED1B0A00EEA00A5C
:105540008DED190A9DED190AFFF703FB8DED1A0A7F
:10555000DDED1E0A9DED1A0A20EE800A8DED1E0A71
:10556000DDED1D0A9DED1A0A20EE800A8DED1D0A63
:10557000DDED1C0A9DED1A0A20EE800A8DED1C0A55
:10558000DDED1B0A9DED1A0A20EE800A8DED1B0A47
:105590009DED1E0AFE4880ED090A9DED1D0A80ED75
:1055A0000A0A9DED1C0A80ED0B0A9DED1B0A80ED99
:1055B0000C0A9DED1D0AF8EE000A60EE200A9DED32
:1055C0001B0A20EE800ADDED1E0AB0EE001A20EE66
:1055D000811ADDED1C0A01EE200A8DED130A1398E5
:1055E00001F0A8F8CDE914019DED140B01F0B4FA17
:1055F0008DED160B9FEDE70B53EC102B9DED160B6D
:1056000051EC100B00F0B5FFCDE918019DED180B22
:1056100051EC100B01F0D2F8DD4948639DED1D0AF5
:10562000F8EE000A60EE200A9DED1D0A20EE800AC9
:10563000DDED1C0AB0EE001A20EE811ADDED1C0A29
:1056400001EE600AF7EE000A30EE200A8DED110A35
:10565000119801F06FF8CDE914019DED1C0AF0EEF0
:10566000000A60EE200A9DED1B0A20EE800ADDEDA7
:105670001E0AB0EE001A20EE811ADDED1D0A01EEC1
:10568000200A8DED110A119801F054F8CDE91201AC
:105690009DED141B9DED120B01F07AFD8DED160BA7
:1056A0009FEDBC0B53EC102B9DED160B51EC100B2A
:1056B00000F05FFFCDE918019DED180B51EC100BC8
:1056C00001F07CF8B24988639DED1C0A20EE000AC7
:1056D000DDED1B0A9DED1C1A00EE810A8DED0D0A11
:1056E0000D9801F027F89FEDAD0B53EC102BCDE991
:1056F0000E019DED0E0B51EC100B00F03AFF9FEDEB
:10570000A90B53EC102BCDE910019DED100B51ECC2
:10571000100B00F02BFFCDE914019DED1D0AF0EEFA
:10572000000A60EE200A9DED1C0A20EE800ADDEDE5
:105730001E0AB0EE001A20EE811ADDED1B0A01EE02
:10574000200A8DED110A119800F0F4FFCDE9120145
:105750009DED141B9DED120B01F01AFD8DED160B46
:105760009FED8C0B53EC102B9DED160B51EC100B99
:1057700000F0FFFECDE918019DED180B51EC100B68
:1057800001F01CF88249C8632BB000BD10B52DEDA7
:105790000A0B2DED108BAEB0B0EE61EAB0EE428A8E
:1057A000F0EE628AB2EE0E0A8DED270AB6EE000A1E
:1057B0008DED250A9FED7D0A8DED240A9FED7C0A73
:1057C0008DED230A0024FAF766FD7A490860084641
:1057D000006879490968884203D278A001F09AF9F3
:1057E0000CE07448006874490968401A00EE100A19
:1057F000B8EE400ADFED740AC0EE20BA6D480068CA
:105800006D4908606248D0ED09AA90ED0A9AD0ED82
:105810000B9A90ED0CAA2AEEAA0A8DED2D0A2AEE1B
:10582000890A8DED2C0A6AEEA9EA2AEE8A0A8DED24
:105830002B0A29EE09FA29EE290A8DED2A0A69EECA
:105840000AFA29EEA9BA29EE8A0A8DED290A2AEE6A
:105850000A0A8DED280A2EEE0E0A08EE080A08EE56
:10586000A80A10EE101A084600F064FFCDE9040102
:105870009DED040B01F04CFE8DED060B9FED530BDF
:1058800053EC102B9DED060B51EC100B00F06BFE52
:105890009FED500B53EC102BCDE908019DED080B4B
:1058A00051EC100B00F072FF1DD22EEE0E0A08EE26
:1058B000080A08EEA80A10EE101A084600F03AFF8F
:1058C000CDE906019DED060B01F022FE8DED080BE2
:1058D0009FED3E0B53EC102B9DED080B51EC100B84
:1058E00000F041FE24E02EEE0E0A08EE080A08EE53
:1058F000A80A10EE101A084600F01CFFCDE90401BA
:105900009DED040B01F004FE8DED060B9FED2F0BBA
:1059100053EC102B9DED060B51EC100B00F023FE09
:10592000CDE908019DED080B51EC100B81F0004111
:105930009FED2A0B53EC102BCDE90A019DED0A0BCC
:1059400051EC100B00F00AFF01D2012000E0002012
:1059500004466EEE0E0A48EE080A48EEA80AB0EEBB
:10596000600AFFF7F6F8B0EE40CA2EEE0C0A8DED95
:10597000140A28EE0C0A8DED130A28EE8C0A8DED20
:10598000120ADDED440A60EEA00A9DED451A29E0F9
:10599000B4000020775AF01ADCA54C40000000004B
:1059A00000000040000000000000F03FC3F5883F09
:1059B0009EEF1C41F8000020F400002074696D6522
:1059C0006572726F72200A000024F44900000060C2
:1059D000B81EF13F00000000000000000000004081
:1059E000E17AA43F41EE010A9DED461A41EE010A1B
:1059F000B0EE600AFFF7ADF8B0EE40CA9DED440A84
:105A000060EE0CCA9DED450A20EE0CDA9DED460ACB
:105A100060EE0CDAB0EE000A6CEE800AB6EE000A18
:105A200030EE4B1A9DED280A31EE400A60EE800AF6
:105A3000B0EE000A6DEE001A9DED2A1A9DED2B0ABC
:105A400031EE401AB0EE600A01EE810AF0EE000A73
:105A50006DEEA00A3FEEAE1A00EE810A8DED220A2D
:105A6000B0EE000A2CEE801A9DED2A0ADDED2B0A1D
:105A700030EE200A21EE000AF0EE000A2DEE201A88
:105A8000F6EE000A70EECF1ADDED280A71EEE00A9C
:105A900001EE200AF0EE000A6DEEA01ADDED290AF3
:105AA0009DED2C1A70EEC10A01EEA00A8DED210ABF
:105AB000B0EE000A2CEE800A7FEEEE0A20EE200AFD
:105AC000F0EE000A6DEE201ADDED290A9DED2C1A8C
:105AD00070EE810A01EEA00AF0EE000A6DEEA00A57
