:020000040800F2
:10000000A0500020590200086102000863020008A5
:10001000650200086702000869020008000000008D
:100020000000000000000000000000009D0100082A
:100030006D02000800000000F101000825530008CF
:1000400073020008730200087302000873020008BC
:1000500073020008730200087302000873020008AC
:10006000730200087302000873020008730200089C
:100070007302000859160008730200087302000892
:100080006516000873020008730200087302000876
:10009000350D00087302000873020008730200089F
:1000A000730200087302000873020008730200085C
:1000B000730200087302000873020008730200084C
:1000C000730200087302000873020008730200083C
:1000D00073020008195A0008315A00087302000818
:1000E000730200087302000873020008730200081C
:1000F000730200087302000873020008730200080C
:1001000073020008730200087302000873020008FB
:1001100055560008730200087302000873020008B5
:1001200073020008730200087116000873020008C9
:1001300073020008000000000000000073020008C5
:1001400073020008730200087302000873020008BB
:1001500073020008730200087302000873020008AB
:10016000730200087302000873020008730200089B
:100170007302000873020008000000000000000085
:100180007302000873020008DFF80CD000F09EFB39
:1001900000480047A5720008A05000202B4B1968AA
:1001A0000868B0E8F04F80F30988BFF36F8F4FF015
:1001B000000080F3118870470000000006480068C6
:1001C000006880F3088862B661B6BFF34F8FBFF353
:1001D0006F8F00DF00BF00BF08ED00E0DFF80C000C
:1001E000016841F470010160704700BF88ED00E0D4
:1001F000EFF30980BFF36F8F144B1A681EF0100FD6
:1002000008BF20ED108A20E9F04F106008B44FF0CD
:10021000500080F31188BFF34F8FBFF36F8F08F04A
:1002200091F84FF0000080F3118808BC1968086845
:10023000B0E8F04F1EF0100F08BFB0EC108A80F34A
:100240000988BFF36F8F704700BF00BF0400002014
:10025000EFF30580704700000648804706480047D6
:10026000FEE7FEE7FEE7FEE7FEE7FEE7FEE7FEE766
:10027000FEE7FEE7BD5300088901000840EA0103DC
:100280009B0703D009E008C9121F08C0042AFAD24C
:1002900003E011F8013B00F8013B521EF9D2704710
:1002A000D2B201E000F8012B491EFBD270470022B8
:1002B000F6E710B513460A4604461946FFF7F0FF65
:1002C000204610BD421C10F8011B0029FBD1801AEA
:1002D0007047034611F8012B00F8012B002AF9D1D1
:1002E000184670472DE9FE4F804681EA0300C00F93
:1002F0000C46009021F0004123F00045B8EB0200CD
:10030000A94105D24046214690461C460B4602466E
:1003100023F00040104347D0270DC7F30A00C3F372
:100320000A510290401A019040286BDAC3F313007F
:1003300040F4801B0098924620B10023D2EB030AC0
:1003400063EB0B0B01985946C0F14002504600F098
:1003500069F906460D4650465946019A00F071F972
:1003600010EB08006141002487EA115284EAE77328
:100370001A4340D0009A62B3019A012A4FEA075209
:1003800015DC001B61EB02014FF0004202EA07524C
:10039000CDE90042001C41F5801132462B4600F0A9
:1003A000A8F903B0BDE8F08F40462146F9E7001BED
:1003B00061EB0201001C41F5801300185B4120181D
:1003C000A2F5001747EB030140EAD570B6196D415D
:1003D00011E06D084FEA360645EAC0754FEA07524C
:1003E000001B61EB0201001C41F5801149084FEA36
:1003F00030000019514132462B4603B0BDE8F04FA2
:1004000000F068B90098012240000023D0EB0202FE
:1004100063EBE073009821464FEAE074B8EB00000C
:1004200061EB0401E9E783F000435BE781F0004101
:1004300058E72DE9FE4F81EA030404F0004421F05F
:10044000004100944FF0000B23F0004350EA0104F8
:100450005ED052EA03045BD0C3F30A54C1F30A55D9
:100460002C44A4F2F3340194A0FB0254C1F3130111
:1004700041F48011C3F3130343F4801301FB0244DE
:1004800000FB034E840A970A44EA815447EA8357E3
:10049000A4FB076802958D0A05FB07854FEA932C9C
:1004A00004FB0C542705029D4FEA065847EA16370D
:1004B000B5EB08056EEB070C870E920E47EA811725
:1004C00042EA8312A7FB0201B6EB0B0164EB0004C6
:1004D0002B0D43EA0C335E1844EB1C50DA465146B0
:1004E000E7FB0201C5F313044FEA0B3343EA14534D
:1004F0004FEA0432019C43EA0603A4F10C0402947F
:10050000009CCDE900B400F0F4F803B0BDE8F08F32
:1005100000200146F9E70EB5C10F80EAE0700844FB
:10052000CA07002140F233438DE80E000A460B460D
:1005300000F0DFF803B000BD00F0004230F00040F2
:100540000AD0C10D01F56071C0F3160042EA0151F5
:10055000C20840071143704700200146704701F070
:10056000004330B421F0004150EA010206D00A0DE8
:10057000A2F56072C1F31301002A02DC30BC002036
:100580007047440F44EAC104C100E01830BC00EBDE
:10059000C25000F068B830B50B460146002020225A
:1005A000012409E021FA02F59D4205D303FA02F580
:1005B000491B04FA02F52844151EA2F10102F1DCE0
:1005C00030BD2DE9F05F0546002092469B468846E7
:1005D0000646814640241BE02846414647462246BF
:1005E00000F086F953465A46C01A914110D311467D
:1005F0001846224600F016F82D1A67EB01084F4600
:1006000022460120002100F00DF817EB00094E41B1
:10061000201EA4F10104DFDC484631462A46434649
:10062000BDE8F09F202A04DB203A00FA02F1002006
:1006300070479140C2F1200320FA03F31943904020
:100640007047202A06DBCB17203A41FA02F043EA32
:10065000E07306E041FA02F3D040C2F1200291407B
:100660000843194670470029A8BF7047401C49003D
:1006700008BF20F00100704710B4B0FA80FC00FA07
:100680000CF050EA010404BF10BC704749B1CCF132
:10069000200421FA04F411FA0CF118BF01212143BE
:1006A0000843A3EB0C01CB1D4FEA00614FEA102079
:1006B00042BF002010BC704700EBC350104400291B
:1006C000A4BF10BC7047401C490008BF20F00100C7
:1006D00010BC704710B5141E73F1000408DA401CFA
:1006E00041F1000192185B411A4301D120F0010051
:1006F00010BD2DE9F04D92469B4611B1B1FA81F241
:1007000002E0B0FA80F220329046FFF78BFF0446F9
:100710000F4640EA0A0041EA0B0153465A46084395
:1007200013D0114653EA010019D0C8F140025046D7
:1007300000F0DEF805460E46504659464246FFF7A1
:1007400071FF084305D0012004E020463946BDE88A
:10075000F08D0020054346EAE0762C4337430A98A3
:100760006305E40AA0EB08000022FD0A44EA4754AE
:100770000A3002D500200146E9E701051019694158
:10078000DDE9084500196941BDE8F04DA2E72DE912
:10079000F04D81EA030404F0004B21F000451446BB
:1007A0004FF0000A23F0004150EA050220D054EA3D
:1007B00001021DD0C5F30A570246C5F31303C1F366
:1007C0001300C1F30A5640F4801543F48013A7EBDD
:1007D0000608101BD64608F2FD3873EB050002D35D
:1007E00008F1010801E092185B41B8F1000F03DA4B
:1007F00000200146BDE8F08D00204FF48011064630
:1008000084460EE0171B73EB050705D3121B63EB41
:10081000050306434CEA010C49084FEA30009218E0
:100820005B4150EA0107EDD152EA030012D082EA9F
:10083000040083EA0501084305D0101BAB4106D232
:100840000122002306E000224FF0004302E06FF097
:10085000010253101AEB06004CEB085110EB0A0092
:1008600041EB0B01BDE8F04DFFF734BFC1F30A5275
:10087000C1F3130140F2FF3341F480119A4202DACE
:1008800000200146704740F233439A42A2F23342BD
:1008900002DC524200F02CB8FFF7C4BE30B5041E93
:1008A00071F1000404DB4FF00044404264EB0101AD
:1008B000141E73F1000405DB1C464FF00043524246
:1008C00063EB0403994208BF904230BD064C074DCC
:1008D00006E0E06840F0010394E807009847103410
:1008E000AC42F6D3FFF754FC509900087099000809
:1008F000202A04DB203A21FA02F00021704721FA75
:1009000002F3D040C2F120029140084319467047DB
:100910000EB540F2334102910021CDE900110A46A3
:100920000B46FFF7E6FE03B000BD70B5C1F30A52F7
:1009300001F000450024C1F3130140F2FF3341F4FC
:1009400080119A4201DA002070BD40F233439A428E
:10095000A2F2334203DC5242FFF7CAFF00E09040AC
:100960002C43F1D0404270BD70B58C1810F8015B7B
:1009700015F0070301D110F8013B2A1106D110F838
:10098000012B03E010F8016B01F8016B5B1EF9D13C
:100990002B0705D40023521E0DD401F8013BFAE7C2
:1009A00010F8013BCB1A921C03E013F8015B01F82D
:1009B000015B521EF9D5A142D8D3002070BD0000C2
:1009C0002DE9F05FA248A34B02462DED028B46783D
:1009D00093F84C1092F903209FED9F8A9F4CA04DF5
:1009E000012E0DD08678012E0AD0012A07D09D4A0B
:1009F0001278002A6FD0032A6ED00229FCD01FE1A2
:100A0000012AFCD0984890F83800022805D0BDECA7
:100A1000028BBDE8F05F04F079BA40F22627022984
:100A20003DD1588940F6C411884238D3DFF83C8262
:100A3000002644F6206998F803004FF4167A01283E
:100A40000CD098F80000012814D098F80100012873
:100A50001AD08748017D022925D020E002F056F9FE
:100A6000D8F83C20821A4A4501D988F80360002250
:100A700051467DE002F04AF9D8F80C20821A4A4526
:100A8000F5D988F80060F2E702F040F9D8F81C20A8
:100A9000801A46F2A812904201D988F8016000221B
:100AA0003846394666E00278DFF8B0A1DFF8C49135
:100AB0006F480AF13C0AD9ED010ADAF8481090EDC6
:100AC000010A4FF0814B42B1012A45D0022A04D0DD
:100AD000032A3AD1E3E79CE0AFE0C82028636648E8
:100AE000007810F0820F08D084ED028A84ED038A2A
:100AF00084ED050A84ED068A81E0584884ED050AF4
:100B000084ED068A4E463C30884700EE100AB8EE67
:100B1000C00A84ED040A84ED028A94ED051AD6ED2C
:100B2000010A31EE600AB5EEC00AF1EE10FA01DA00
:100B300030EEC10A10EE100A58450ADA9FED4F0A4E
:100B400084ED030A686B401C6863BDEC028BBDE852
:100B5000F09F84ED038AF8E7286B10B1401E2863EC
:100B6000C2E798F802004546012809D00122002179
:100B70004FF4FA70BDEC028BBDE8F05F04F07ABA76
:100B80003A4995F92800DFED3E0A91ED0C0A40B193
:100B90009FED3C1A012807D0022824D0032807D152
:100BA00024E030EE200A01E030EE010A84ED050A6F
:100BB00002F0ACF8E96A401A41F28831884210D854
:100BC000D9ED010A94ED050A30EEC01AB5EEC01A4F
:100BD000F1EE10FA01DA30EE601A11EE100A584503
:100BE00007DAAE70B1E730EE410ADFE730EE600AB7
:100BF000DCE784ED028A84ED038ADAF848101748AE
:100C00003C30884700EE100AB8EEC00A84ED040AB2
:100C10009BE7022911D0E96A002902DC01218170D9
:100C20000EE002F073F8E96C401A4FF47A71B0FBF1
:100C3000F1F0C0F12800E86202E002F067F8E86431
:100C400084ED028A84ED038A84ED048A7DE7000046
:100C500000010020504A002000000000E047002072
:100C60008800002008010020E84100200049002001
:100C70000843002024420020340100200000AF433C
:100C80000000074300005C422DE9F0412148027852
:100C9000552A3CD14278AA2A39D1027AFF2A36D184
:100CA0001D4B5A88521C5A808278C678057944793F
:100CB00093192F191F448379C0791F44FFB2B8429A
:100CC00025D166F3070165F30F2164F3174163F340
:100CD0001F61212A0FD108B200EE100A0E48B8EEAB
:100CE000C00A0C30091480ED000A00EE101AB8EEAC
:100CF000C00A80ED010AB2EE080A3A21074806F060
:100D0000D1F9BDE8F04106A1044804F0D9BCBDE822
:100D1000F0810000CC430020D8000020CC0100204E
:100D20004F4B21212121212121212121212121215B
:100D300021212100014801F087B900004C01002069
:100D40001CB50649D1E90101CDE900010021684641
:100D500006F02BFB024948601CBD0000B091000862
:100D6000F000002010B54FF4D872036802EB0112B6
:100D70009B5813F00404436B9C600468436BA458B5
:100D800056D0E4085C6003689A58436B02F0020294
:100D9000DA604FF4DA72036802EB01129B58446B7D
:100DA00003F00F03236103689A58436BC2F30722D1
:100DB000DA614FF4DC72036802EB01129B58446B5A
:100DC000237503689B58446B1B0A637503689B5823
:100DD000446B1B0CA37503689A58436B120EDA75AB
:100DE0004FF4DE72036802EB01129B58446B2376CA
:100DF00003689B58446B1B0A637603689B58446BDB
:100E00001B0CA37603689A58436B120E0029DA76FE
:100E1000016810D00A6942F020020A6101684A693B
:100E200022F010024A6190F8381022290CD024E0F8
:100E3000640D1C60A7E7CA6842F02002CA6001681E
:100E40004A6922F00202EDE701684A6922F48072E1
:100E50004A6101684A6922F400724A6101684A697C
:100E600022F480624A6101684A6922F400624A61A0
:100E700001684A6922F400424A6190F83810322928
:100E800006D0012180F8381001F0C4FA002010BD0E
:100E90001221F7E7F0B4046B0023E360046BA36056
:100EA000046B2160082440291ED008DC4FF00202A8
:100EB0004FF05503132909D0142945D10CE04629D8
:100EC00012D0A1F58071FF393ED125E0016B0A6196
:100ED000016B0B75FF2104E0016B0A61016B0B755F
:100EE000AA21026B51752FE0016B0C6100211424C3
:100EF0005FF01503066B04EB410712F81150F5552E
:100F000032F8115003EB4107066B2D0A491C09B258
:100F1000F5550429EEDB17E0016B0C611188046BB9
:100F2000090A2175046B117861751188046B090A2F
:100F3000A1751178026BD175016B0B76016B4B7645
:100F4000016B8B76016BCB76F0BC242101F006BCE3
:100F500010B501684A6922F001024A6190F8381020
:100F6000122918D101684A6922F480724A61016825
:100F70004A6922F400724A6101684A6922F4806277
:100F80004A6101684A6922F400624A6101684A695B
:100F900022F400424A6190F83810322906D001212B
:100FA00080F8381001F09CFC002010BD2221F7E7EA
:100FB00070B51B4D0646B5F93C0000EE100A194805
:100FC000F8EEC00A816C96ED000A884700EE100A20
:100FD000144CB8EEC00A883C84ED020AB5F93E0014
:100FE00000EE100A04F1D400F8EEC00A816C96ED10
:100FF000010A884700EE100A04F13C00B8EEC00A6E
:1010000084ED030A816CD5ED010A94ED050A884749
:1010100000EE100AB8EEC00A84ED040A70BD0000AC
:1010200024420020684800202DE9F041DFED4E2ADF
:1010300081EEA22ADFED4D1A4FF4FA7062EE211A0A
:1010400000F09AF84A4A9088918BB2F84C300844E4
:10105000918E194401444748C180B0F90410D0ED85
:10106000000A00EE101AB8EEC00A30EE600ABDEEBB
:10107000C00A10EE103A0381B2F90060B2F91840CC
:10108000B2F93030B2F9485037195A193A4412B20D
:10109000F2B300EE106AF8EEC00A00EE101AB8EED5
:1010A000C00A60EE800A00EE102AB8EEC00A80EE98
:1010B000801ABDEEC10A10EE106A00EE104A468199
:1010C000F8EEC00A00EE101AB8EEC00A60EE800A10
:1010D00000EE102AB8EEC00A80EE801ABDEEC10AFA
:1010E00010EE104A00EE103A8481F8EEC00A00EECD
:1010F000101AB8EEC00A60EE800A00EE102AB8EEB0
:10110000C00A80EE801ABDEEC10A10EE103A00E06F
:1011100021E000EE105AC381F8EEC00A00EE101A6A
:10112000B8EEC00A60EE800A00EE102AB8EEC00ADF
:1011300080EE801ABDEEC10A10EE101A01820D4930
:1011400046200C3906F0D2FDBDE8F04109490A31CC
:10115000402006F0CBBDCA1701EB92718910418186
:101160008181C181EAE7000000003443DB0F494080
:10117000884200200848002070B506462DED0E8BF1
:10118000F0EE418AB0EE618AB0EE609AB0EE40EACD
:1011900018EE900AFFF7D0F941EC1D0B18EE100A7B
:1011A000FFF7CAF941EC100B04F0FEFDB0EE40AAC7
:1011B000F0EE60AA1EEE100AFFF7BEF953EC1A2BF0
:1011C000FFF737F941EC1C0B18EE100AFFF7B4F9E2
:1011D00041EC100B04F084FDF1EE49AAB0EE40BAE8
:1011E000F0EE60BA1AEE900AFFF7A6F953EC1B2B4B
:1011F000FFF71FF953EC1C2BFFF715F953EC1D2BD0
:10120000FFF770F8FFF7ABF90AEE100A18EE900A34
:10121000FFF792F941EC1D0B18EE100AFFF78CF95D
:1012200041EC100B04F0C0FDB0EE40BAF0EE60BA35
:1012300019EE100AFFF780F953EC1B2BFFF7F9F8B2
:1012400041EC1C0B18EE100AFFF776F941EC100B7D
:1012500004F046FDF1EE4E9AB0EE40BAF0EE60BA00
:1012600019EE900AFFF768F953EC1B2BFFF7E1F832
:1012700053EC1C2BFFF736F853EC1D2BFFF7D3F87C
:10128000FFF76DF90DEE100A18EE100AFFF754F98A
:1012900041EC100B04F088FDB0EE40BAF0EE60BAFD
:1012A0001EEE100AFFF748F953EC1B2BFFF7C1F8AD
:1012B00041EC1C0B18EE100AFFF73EF941EC100B45
:1012C00004F00EFDB0EE40BAF0EE60BA1AEE900AED
:1012D000FFF732F953EC1B2BFFF7ABF853EC1C2B49
:1012E000FFF7A1F841EC1B0B18EE900AFFF724F969
:1012F00053EC1B2BFFF797F8FFF731F90DEE900A2F
:1013000018EE900AFFF718F941EC1C0B18EE100AC2
:10131000FFF712F941EC100B04F046FDB0EE40BAB5
:10132000F0EE60BA19EE100AFFF706F953EC1B2B2A
:10133000FFF77FF841EC1B0B18EE100AFFF7FCF8E3
:1013400041EC100B04F0CCFCB0EE408AF0EE608A69
:1013500019EE900AFFF7F0F853EC182BFFF769F835
:1013600053EC1B2BFEF7BEFF53EC1C2BFEF7BAFF12
:10137000FFF7F5F8FDEECA1A00EE100A11EE900A1A
:10138000B1EE402A002800DA404200EE100AF8EEE2
:10139000C0AABDEECD0A10EE100A002800DA4042C5
:1013A00000EE900AF8EEE00AF4EEEA0AF1EE10FA26
:1013B00008DD10EE100A002800DA404200EE900A24
:1013C000F8EEE0AABDEEED1A11EE100A002800DAE0
:1013D000404200EE900AF8EEE00AF4EEEA0AF1EE7E
:1013E00010FA01DDF0EE6DAAFDEEC20A10EE900AD1
:1013F000002800DA404202EE900AF8EEE22AF4EE0B
:10140000EA2AF1EE10FA01DDF0EE42AA02EE906A4D
:10141000F8EEE22AF4EEE2AAF1EE10FA36DD00EE82
:10142000106AB8EEC00A2AEE000AC0EE2A0ABDEE23
:10143000E00A10EE100A00EE106A60F30F04B8EE36
:10144000C00A2DEE000AC0EE2A0ABDEEE00A10EE38
:10145000100A00EE106A60F31F44B8EEC00A2DEEC9
:10146000800AC0EE2A0ABDEEE00A10EE100A00EE75
:10147000106A60F30F05B8EEC00A22EE000AC0EE53
:101480002A0ABDEEE00A10EE100A0DE011EE900AF5
:1014900060F30F0410EE100A60F31F4411EE100AFF
:1014A00060F30F0510EE900A60F31F450248C0E993
:1014B0000745BDEC0E8B70BDE04700202748C721D3
:1014C0000268D16200680621C163264C24480025C9
:1014D00020602548E060303820611830606130308D
:1014E000A0612248E061224860622248A06222484E
:1014F0004FF4167605274FF00C08E062322005F015
:1015000041FF05F08DFD54F82500F0B1007B052862
:101510001BD2DFE800F0031A1A030300052D01D2E5
:10152000012004E00A2D01D2022000E00320314610
:1015300005F022FDB5FBF7F007FB10503146401CCB
:1015400005F01AFD962005F01DFF6D1CB5FBF8F1A6
:1015500008FB1155322005F015FFCFE7900300205E
:101560001442002068490020C0420020904A002018
:10157000E8420020F8420020104300202DE9F0410D
:101580002DED028BFEF7C7FF2F4C0E46054646ECAD
:10159000180BA06BFEF7D0FF41EC100B04F0A0FB82
:1015A00053EC182B51EC100BFEF743FFFEF7D7FF5F
:1015B000264F46EC185B3861A06BFEF7BDFF41EC8F
:1015C000100B04F0F1FB53EC182B51EC100BFEF751
:1015D00030FFFEF7C4FF78611D48B0F902006428AF
:1015E00005DDA089B0F57A7F0BD9401E08E010F127
:1015F000640F06DAA08941F28831884201D2401C8A
:10160000A081A089B4F90E1000EE100A91FBF0F24F
:10161000B8EE400A00FB1211F6EE000A491C09B2AE
:1016200060EE200A00EE101AE181B8EEC00A80EEEA
:10163000201A9FED080A21EE000A84ED0E0ABDEC87
:10164000028BBDE8F08100008800002044490020A2
:1016500020430020DB0F4940014801F043B900005E
:101660004C020020014801F03DB90000FC020020BE
:10167000014801F037B90000A402002001681823D6
:10168000CAB2103AB2FBF3F2054B6FF30901032A19
:101690009B5C436500D9091D016508467047000041
:1016A000208F000830B50468256825F48025256062
:1016B000046863608368402B036803D09960006806
:1016C000C26030BD9A600068C16030BD08B507F0E7
:1016D00045FADFF8F4803A4F3A4DDFF8F0A0DFF832
:1016E000F09008F1080400901421684605F051FEBE
:1016F00097ED040A2A21374805F0D4FC97ED050A36
:101700002B21344805F0CEFC98F80000464638B14D
:1017100001284DD00228A888A0F596704BD002E091
:10172000A88800F596702080E88800F596706080A3
:1017300094ED000A2E21274805F0B4FC30782C21C6
:10174000401C00F003003070BAF93C00564600EE31
:10175000100A2048B8EEC00A05F0A4FCB6F93E0015
:101760002D2100EE100A1B48B8EEC00A05F09AFCC5
:10177000B9F90C004E4600EE100A30211548B8EEBB
:10178000C00A05F08FFCB6F90E00312100EE100AF8
:101790001048B8EEC00A05F085FC96F90A002F2122
:1017A00000EE100A0B48B8EEC00A05F07BFC9BE780
:1017B000A88800F596702080E888A0F59670B6E7B6
:1017C000444900206C420020D80000202442002020
:1017D000C8410020CC01002008B50D480B4910225B
:1017E000C0E903120B4BC0E909324022C0E90F12D5
:1017F00041658021816507F0B1F9009005216846B7
:1018000005F0C7FD02F0FCFBF8E700000000024015
:10181000B4490020000802400A88C2F30A02A2F577
:10182000806202804A788B78D20842EA4312C2F37F
:101830000A02A2F5806242808A78CB78920942EA55
:1018400083020B7942EA8322C2F30A02A2F5806284
:1018500082800A794B79520842EAC312C2F30A0223
:10186000A2F58062C2804A79920902724A79C2F373
:1018700001124272CA8842810A8982814A89C281E0
:101880000A7B02824A7B4282C989818270472DE9A4
:10189000F8431D46DDE90886914607460CB208E08C
:1018A000A0B243464A463946009600F006F8641C4A
:1018B00024B2AC42F4DDBDE8F8832DE9F0411F46C7
:1018C000154606460C46DDF8188007E0F1B2E0B296
:1018D00043463A4602F0EAFE641CA4B2AC42F5D993
:1018E000BDE8F0812DE9F8430D46DDE9087498461E
:1018F0000646014691463B4628460094FFF7DDFF29
:101900003B464A46314640460094FFF7D6FF3B46E9
:10191000424629463046009400F009F83B464246CC
:1019200029464846009400F002F8BDE8F8832DE906
:10193000F0411F46154606460C46DDF8188007E0C4
:10194000E1B2F0B243463A4602F0B0FE641CA4B2E3
:10195000AC42F5D9BDE8F0812DE9F04107461C46BF
:1019600015460E461420DDF8188005F0BFFC0780F0
:10197000468085800C21C1800472C0F80C80BDE8CF
:10198000F081002801D00172012070472DE9FE434B
:1019900016460F4604005CD02088A188E2880144E6
:1019A000491E1FFA81F861880A44521E95B200222E
:1019B000CDE900262B464246FFF769FF012F45D1AE
:1019C000CDE900762088E1880144891E8AB2691E2B
:1019D0008BB26188401C491C89B280B2FFF782FF3C
:1019E000207A01280FD1CDE900762088E1880144D2
:1019F000091F8AB2E91E8BB26188C01CC91C89B25A
:101A000080B2FFF744FF207C01280CD1009620888B
:101A1000E18801230844401C81B2A5F1090080B28D
:101A20004246FFF74AFF207CE168CDE900100296AC
:101A3000A188E088083D091A491E8AB22188082336
:101A40000844401C00B229B202F082FF0120BDE828
:101A5000FE830020FBE710B50446406805F07AFBE2
:101A60000020606010BD00002DE9F04117460D46D2
:101A70000646002424E000BF06EBC400017831B123
:101A800001290AD002290ED0032917D111E040689C
:101A90003A46012100F02CF810E040683A46012156
:101AA00000F0BEF90AE040683A46012100F090F8E3
:101AB00004E040683A460121FFF768FF641CA4B2C5
:101AC000AC42D9D3BDE8F0812DE9F04107461C4670
:101AD00015460E460C2005F009FC078046808580DF
:101AE000C480BDE8F081002801D0816001207047EA
:101AF0001CB500B38368F3B1012910D0CDE9001201
:101B00004188C288048880880A44521E204493B2C7
:101B1000401E82B22046FFF7BAFE01201CBD002104
:101B2000CDE90031C3888288B0F90210B0F9000015
:101B300002F076FDF1E700201CBD2DE9F0470746D5
:101B40002DED028BB0EE408ADDE90A981D46144661
:101B50000E461820DDF830A005F0C8FB078046804F
:101B600001468460AC4200DD254600EE904ACD601F
:101B70000E20F8EEE00AB0EE480AC1ED040AA1F822
:101B80000490C880084600F009F881F8158081F8B3
:101B900014A00846BDEC028BBDE8F087002816D0E3
:101BA000D0ED020AB8EEE01AB4EEC01AF1EE10FA67
:101BB00008DCD0ED030AB8EEE01AB4EEC01AF1EE7C
:101BC00010FA01D2B8EEE00A80ED040A0120704755
:101BD0002DE9F04315462DED028B83B00E4604002F
:101BE0007ED0B4F800C0A08861886044401E87B2EF
:101BF000E088D4ED040A0844401E83B2A068E2687D
:101C000000EE100A101A4FF00009B8EEC00ACDE934
:101C1000009570EEC00A00EE100A3A466046B8EE33
:101C2000C00A80EE808AFFF732FE012E7ED1607DF1
:101C3000012110B101282CD05AE0A088CDE900156F
:101C4000801E80B2801E00EE100A60888846B8EEC2
:101C5000C00AC11C8BB2801C20EE080A81B2208809
:101C60007F1EBCEEC00A401CBAB210EE106A80B2F1
:101C7000FFF70DFECDE9008560882788011D8BB236
:101C8000B11C39448AB2401C81B2761CB81980B2AA
:101C90002CE0A088CDE90015801E80B2801E00EEE9
:101CA000100A60888846B8EEC00A011D8BB2401C3D
:101CB00020EE080A81B220887F1EBCEEC00A401CBC
:101CC000BAB210EE106A80B2FFF70CFECDE90085C3
:101CD00060882288C11C8BB2761C91198EB200E0FC
:101CE0002EE0801C81B2521C90B23246FFF7CFFD2D
:101CF000207D01281ED12069FEF71EFC41EC100B4F
:101D000010A053EC102B02F0DDFE0090CDE9019500
:101D10000646A0880823801E82B26088801D01B21A
:101D20002088401C00B202F013FE00E002E03046C2
:101D300005F010FA012003B0BDEC028BBDE8F08382
:101D40000020F8E72A56616C3A25372E33660000EA
:101D50000FB470B5C0B0040026D0A06810B1FEF773
:101D6000B1FA06B246AB4FF480716846459A03F06B
:101D70007BFF00B2002817DB3044401CA56805F04B
:101D8000B5FAA06078B12946FEF7A3FA284605F017
:101D9000E1F9A06869463044FEF79BFA012040B0A3
:101DA00070BC5DF814FBA5600020F8E72DE9F04158
:101DB00007461C4615460E46102005F097FA078088
:101DC00046808580C480BDE8F081002801D0017381
:101DD000012070470FB430B5C1B004001DD0A06819
:101DE000002510B105F0B6F9A56046AB4FF480713F
:101DF0006846459A03F038FF00B200280DDB401C0E
:101E000005F074FAA060002803D06946FEF761FA75
:101E1000012041B030BC5DF814FB0020F9E7000060
:101E20002DE9FE4315468946040055D02088A18837
:101E3000E2880144491E8FB261884FF000080A44CD
:101E4000521E96B2227B012A30D0CDE9008533465E
:101E50003A4600BFFFF746FD701E83B2CDE900850C
:101E6000781E82B26088401C81B22088401C80B2FB
:101E7000FFF738FDA268B2B1A088022813D3E18829
:101E8000022910D3B9F1010F16D0CDE90085608881
:101E9000B61E801C81B22088BF1E801CB3B2BAB2AD
:101EA00080B2FFF7F4FC0120BDE8FE830122CDE9FA
:101EB000002533463A46CDE7CDE90028001F0295BC
:101EC00082B26088091F8BB2801C01B22088801CFE
:101ED00000B202F03DFDE6E70020E5E70B480C49C3
:101EE00001220378D1F8061023B1B1F5D27F04D8CE
:101EF0004270704709B1027070474378012BFBD1E3
:101F0000B1F5077FF8D3C2707047000000010020D0
:101F1000504A002010B558B1084C491E0BD310F898
:101F2000013B5340DBB234F8133083EA1222F4E76A
:101F30004FF6FF7010BD104610BD0000489300081A
:101F400010B5064C04E000BF10F8013B5340E25CC2
:101F5000491E89B2F8D2104610BD00004892000810
:101F6000F0B50A7D01209040344A136843F0010324
:101F70001360136823F47C53136013684C6A43EABC
:101F8000042313602D4B1C331C6884431C602B4DB1
:101F90002B4CCE690C35A6B92E6886432E608F89EE
:101FA0004E6867F31F464F6904EBC707C7F84066E2
:101FB0000F890E6867F31F464F6904EBC707C7F820
:101FC0004466CE69012E14D12E6806432E600E8819
:101FD0004D6866F31F454E6904EBC606C6F84056C9
:101FE0000E89CD6866F31F454E6904EBC604C4F83C
:101FF0004456124C8D69241D002D256806D00543DA
:1020000025600E4C0D69143415B104E08543F7E7E3
:102010002568854325600D69012D02D1256805439A
:102020002560096A012902D1196801431960106805
:1020300020F0010010600020F0BD000000660040AC
:10204000006000407047000010B504460068416918
:10205000C943C90714D182685E49914377D00021F2
:1020600083685D4A9A4374D0002283685B48984332
:1020700071D000201143014302D02046FEF768FFD3
:102080002168C868496910F0030FC1F3400104D00A
:1020900019B100212046FEF765FE216808694969EB
:1020A00010F0030FC1F3001104D019B10121204633
:1020B000FEF758FE20688169426911F0010F4369FB
:1020C000C2F30022C3F3C03308D03AB133B1E16B9D
:1020D00041F00101E1636FF00101816120688169D4
:1020E000C1F340024169C1F340234169C1F3C031EA
:1020F00042B13BB131B1E16B41F00201E1636FF0FC
:1021000002018161206881694269C1F380014369EC
:10211000C2F38022C3F3C03341B13AB133B1E16BB2
:1021200041F00401E1636FF004018161206881697D
:1021300011F0700F11D000234169C1F3C022416931
:10214000C1F3C0315BB12AE001E002E003E001210C
:1021500086E7012289E701208CE70123ECE7F2B151
:10216000E9B1816901F07001402926D006DC10290F
:1021700009D020290BD030290DD11AE0502920D0C8
:10218000602908D121E0E16B41F0080102E0E16B38
:1021900041F01001E163816921F070018161E06B20
:1021A000002805D0012084F838002046FFF74AFFB8
:1021B00010BDE16B41F02001ECE7E16B41F0400123
:1021C000E8E7E16B41F08001E4E7E16B41F4807105
:1021D000E0E7000003000004000300080000031013
:1021E0002DE9F041040004D094F83800002518B11E
:1021F00007E00120BDE8F08184F83950204600F066
:1022000093F8022084F838002068016821F0020168
:1022100001602068016841F00101016000F076FD75
:102220000746032605E000BF00F070FDC01B0A282A
:1022300063D820684068C007F6D020684168C907A5
:1022400068D0A169012901683FD021F080010160B7
:10225000E0690128206801683AD021F0400101605E
:10226000206A01282068016835D021F02001016032
:10227000606A01282068016830D021F010010160F7
:10228000A06A0128206801682BD021F008010160B4
:10229000E06A01282068016826D021F0040101606D
:1022A000D4E902010843D4E90412114308436168E8
:1022B000491E08432168C8612068016821F00101B6
:1022C000016000F023FD07461CE041F08001BEE7FD
:1022D00041F04001C3E741F02001C8E741F010019F
:1022E000CDE741F00801D2E741F00401D7E700BF94
:1022F00000F00CFDC01B0A2804D904F8386F032035
:10230000657077E720684068C007F1D120684068B1
:10231000C00703D0042084F838006AE7E563012091
:1023200084F83800002065E710B5044600681449B9
:1023300086B0884222D11349086840F000700860D6
:102340000868694600F0007005904FF440700090F6
:1023500002200190002002900320039009200490A5
:10236000094800F0E9FB00220621142000F01EFDC0
:10237000142000F00FFD204602F0BCF806B010BD9E
:1023800000640040403802400004024010B590F85C
:102390003820012A01D0122A39D190F83920012A97
:1023A00035D0012280F8392090F83820122A29D01F
:1023B0005FF0220280F838200022C26303685C6963
:1023C00044F480745C6103685C6944F400745C618B
:1023D00003685C6944F480645C6103685C6944F48C
:1023E00000645C6103685C6944F400445C6180F8EB
:1023F000392000680029416906D041F0100141618F
:10240000002010BD3222D5E741F00201F7E702209B
:1024100010BD00002DE9F0410546C948854250D164
:10242000696BC84C086804F13C0243280AD00ADCF6
:102430002B287DD002DC1128F1D115E04128F5D000
:102440004228ECD1D7E040F20526A0F20523B042A5
:102450006FD004DC44286DD05828E0D132E0012B45
:1024600069D0FE2BDBD136E1B7480B7D03704B7D85
:1024700043708B7D8370C97DC170B249006860393B
:10248000486694ED010AD4ED000A30EEC00A84EDEE
:10249000020AD2ED0E0A30EE600A82ED010A9FEDCB
:1024A000AB1AC0EE010A9FEDAA0A20EE800A82ED67
:1024B000020A206BE06200F029FC2063E16A401A06
:1024C000606336E19F4E087D203E0B2808D003DC78
:1024D000C0B1022816D103E00C2801D00D2811D17B
:1024E0007070887D4B7D00EB0320B080087ECB7D33
:1024F00000EB0320F080887E4B7E00EB03203081D0
:10250000C87EB0701078E0B370780B2841D1F088A5
:10251000A0F2C53001B2B181B08800EE101AA0F26D
:10252000C53000B2F081B378B372B8EEC00A03E0F0
:1025300038E0F4E05FE0EFE0D4ED030A30EE600A4B
:10254000BDEEC00A10EE103A00EE100A1BB2A2F85F
:102550004030B8EEC00AD4ED040A30EE600ABDEE99
:10256000C00A10EE104A24B2A2F842409FED790A48
:1025700040F2E63701F2F31182ED0E0AB94208D8B3
:1025800000E006E000F2F310B84202D822F8443F1F
:1025900054807069306100F0B9FB70613169401A94
:1025A000B061C6E0087D552811D1C87EFF280ED144
:1025B000644C487D843401280AD0012020722069AF
:1025C000E06000F0A3FB2061E168401A6061B0E0C8
:1025D000C87D8B7D00EB032020804B7E097E03EBC2
:1025E000012149426180938F1844A080D08F084414
:1025F000E0800220E2E74124B0FBF4F204FB120089
:10260000504E00EB4000A036898A26F83010686BE7
:102610000168C08AB1FBF4F204FB121101EB410125
:1026200006EBC1014880686B0168008BB1FBF4F2D6
:1026300004FB121101EB410106EBC1018880686BBC
:102640000168807EB1FBF4F204FB121101EB410141
:1026500006EBC1018871686B0068B0FBF4F1B0FB58
:10266000F4F204FB110104FB120001EB410106EB43
:10267000C10100EB400006EBC000C968816000F0BA
:1026800045FB696B0968B1FBF4F204FB121101EB25
:10269000410106EBC101C860686B0068B0FBF4F152
:1026A000B0FBF4F204FB110104FB120201EB410147
:1026B00002EB420206EBC10106EBC202C968926856
:1026C000891AB0FBF4F204FB120000EB400006EBA9
:1026D000C00001612DE0204C087D207098B10128D8
:1026E00011D002280FD118484A7D001D02708A7D42
:1026F0004270CA7D8270097EC17090ED000AB1EE11
:10270000400A84ED010AE068A06000F0FFFAE06092
:10271000A168401A20610CE00F4C203C01E00E4CF7
:10272000103C6068206000F0F1FA60602168401A97
:10273000A0602868416941F002014161BDE8F08173
:102740004C010020E84100207800002000003443C4
:10275000DA0F494000000000084300202DE9F05F37
:10276000044690F839000E46012813D04FF00108B6
:1027700084F8398094F8380022280ED05FF01200D7
:1027800084F83800216888684FF00007400106D5BA
:1027900000250DE00220BDE8F09F3220F0E78868B8
:1027A000000101D5012503E08868C00055D5022548
:1027B0004FF4C07000EB05100A5802F001020A50F5
:1027C000216B8A68EAB3D4F800C05CF80030134388
:1027D000CA68496842EAC1010B434CF80030216BDA
:1027E0000A7C02F00F020A614FF4C271226801EB09
:1027F0000511535823F00F03535022685358D4F84F
:1028000030C0DCF810C043EA0C035350216B4FF486
:10281000C47303EB05130A7DD1F8151042EA0122B7
:102820002168CA50216B4FF4C67303EB05130A7E6F
:10283000D1F8191042EA01222168CA5021680A58C9
:1028400000E010E042F001020A5000F05FFA814619
:10285000DFF880A0DFF880B01EE0042004F8380F15
:102860000120677097E722681358D1F80CC00988D7
:1028700043EA0C0343EA41511150B0E7701C0BD0FE
:102880002EB100F043FAA0EB0900B04204D90320B6
:1028900004F8380F67707EE78DB12068012D8168DC
:1028A00012D00E4888430028E8D194F83800322826
:1028B0000DD0404604F8380F002067706BE72068A1
:1028C00081682AEA0100EEE72BEA0100EBE722200B
:1028D000F0E70000030000040003000800000310FC
:1028E000704700002DE9F041056D0446296890F815
:1028F0005420082000FA02F211424FF004074FF072
:10290000000617D021680A68520713D50A6822F01A
:1029100004020A6094F854108840A860E06C40F00B
:102920000100E06484F8357084F83460A16C09B16A
:1029300020468847296894F85420514800FA02F24A
:10294000114217D021684A69120613D54A6922F04C
:1029500080024A6194F854108840A860E06C40F00E
:102960000200E06484F8357084F83460A16C09B129
:10297000204688472968424894F85420C01C00FA31
:1029800002F2114217D021680A68920713D50A682B
:1029900022F002020A6094F854108840A860E06CAB
:1029A00040F00400E06484F8357084F83460A16C71
:1029B00009B1204688472A6894F85410102000FA7C
:1029C00001F31A421BD021680A68120717D50A685A
:1029D00057034FF0310228D5AB6020680168090326
:1029E00003D400BF84F8352005E00068000302D559
:1029F000412084F83500216C09B1204688472B68B6
:102A000094F85410202000FA01F2134236D02168C5
:102A10000B68DB0632D50B685B031CD5AA60206807
:102A2000016809030DD4616C0FE00B68DB0503D46A
:102A30000B6823F008030B6094F854108840A860DA
:102A4000D0E70068000319D5E16B002916D02046B5
:102A5000BDE8F04108470A68D20503D40A6822F0AD
:102A600010020A6094F854108840A860E06CE0649A
:102A7000112084F8350084F83460E5E7BDE8F08182
:102A80000100800070B504001AD00220636A84F847
:102A900035002268116818480140D4E9010528432F
:102AA000D4E903563543284365692843A56928437B
:102AB000E5692843256A28430843042B02D005E032
:102AC000012070BDD4E90B1319430843106022683C
:102AD0005069616A20F007000843042901D1A16A06
:102AE000084350612046FEF7C9FD0020E064012044
:102AF00084F83500002070BD3F8010F070B50446AA
:102B000090F83400012814D0012084F83400022009
:102B100084F835002068056825F001050560204629
:102B2000FEF7C0FD2068016841F00101016000204E
:102B300070BD022070BD00002DE9F84FDFF888B1AC
:102B400000224FF001084FF0030A4FF00F090BF17C
:102B5000040E00BF0B6808FA02F42340A3426ED1B2
:102B60004D68022D01D0122D0ED1D50800EB850C39
:102B7000DCF820505607F70E09FA07F6B5430E6940
:102B8000BE402E43CCF82060066855000F790AFA43
:102B900005FC07F0030726EA0C06AF403743076041
:102BA0004E68012E05D0022E03D0112E01D0122E18
:102BB0000ED18668CF6826EA0C06AF40374387609F
:102BC0004668A6430C79C4F300149440344344602F
:102BD000C4688E6824EA0C04AE402643C6604C6884
:102BE000E4006AD5394C256845F4804525602468A1
:102BF00022F0030504F480440094354C2E19D6F8D5
:102C0000084895072F0F09FA07F5AC43314DA84244
:102C100001D1002529E0304DA84201D1012524E051
:102C20002E4DA84201D102251FE02D4DA84201D111
:102C300003251AE02B4DA84202D1042515E03CE003
:102C4000294DA84201D105250FE0284DA84201D108
:102C500006250AE0264DA84201D1072505E0254DAD
:102C6000A84201D1082500E00925BD402543C6F84A
:102C70000858DBF800405D464E689C43F60300D5DB
:102C80001C432C60DEF8004075464E689C43B6033A
:102C900000D51C432C600C4D08352C684E689C43B5
:102CA000F60200D51C432C60074D0C352C684E688D
:102CB0009C43B60200D51C432C60521C102AFFF422
:102CC00049AFBDE8F88F0000003C014044380240A5
:102CD00000300140000002400004024000080240B1
:102CE000000C024000100240001402400018024094
:102CF000001C0240002002400069084000D0012072
:102D000070470AB1816170470904FBE70148006818
:102D1000704700007400002002480168491C0160EF
:102D200070470000740000200B4810B5016841F4A2
:102D300000710160016841F480610160016841F443
:102D400080710160032000F051F8002000F006F8C7
:102D500000F015F8002010BD003C024010B50446FC
:102D600000F05CF94FF47A71B0FBF1F000F05AFC1E
:102D700000222146501E00F019F8002010BD10B5A9
:102D8000032000F033F80022BDE810401146501E29
:102D900000F00CB800F01F020121914040098000B2
:102DA00000F1E020C0F8001170470000F0B40E4BB5
:102DB0001B680C46C3F30223C3F10705042D00D999
:102DC0000425191D072901D2002300E0DB1E01267E
:102DD00006FA05F1491E214099409E40761E164094
:102DE0003143F0BC01F0A4BB0CED00E0064900F05B
:102DF000070208684FF6FF03184040EA0220034A22
:102E000010430860704700000CED00E00000FA0578
:102E10002DE9F05FDFF8FCA104460F46DAF8000068
:102E2000DFF8F48100F00F017B4807F0FF0941F261
:102E3000883508F10808B94262D28AF80090DAF8B9
:102E4000001001F00F01B9427ED12178890707D522
:102E5000D8F80020A36822F0F0021A43C8F8002036
:102E60002178C9072ED0616801291AD002291BD008
:102E7000032919D000688007002865DAD8F8000017
:102E8000464620F003000843C8F80000FFF73EFF65
:102E900007466068012810D002281AD003281ED0E7
:102EA00029E000688003E7E700688001E4E700BFED
:102EB000FFF72CFFC01BA84259D83068C0F381002F
:102EC0000128F5D189E000BFFFF720FFC01BA84211
:102ED0004DD83068C0F381000228F5D17DE030681C
:102EE000FFF714FFC01BA842F9D940E0FFF70EFF1F
:102EF000C01BA8423BD8306810F00C0FF6D16CE034
:102F00002178890707D5D8F80020A36822F0F002BD
:102F10001A43C8F800202178C9074CD061680129FC
:102F200028D0022929D0032927D00068800700284B
:102F300049DAD8F8002022F003020A43C8F800203A
:102F4000FFF7E4FE064600E03DE0606801281DD082
:102F5000022829D0032838D0AB464546286810F00F
:102F60000C0F28D0FFF7D2FE811B5945F6D903205C
:102F7000BDE8F09F00688003D9E700688001D6E7CC
:102F8000FFF7C4FE811B594502D9F0E7AB46454621
:102F90002868C0F381000128F2D10CE0FFF7B6FEEB
:102FA000811B594502D9E2E7AB4645462868C0F384
:102FB00081000228F2D18AF80090DAF8000000F0CF
:102FC0000F00B84209D00120D2E744462068FFF73D
:102FD0009DFE801BA842F9D9C9E72078400707D594
:102FE000D8F80010E26821F4E0511143C8F800104D
:102FF0002078000708D5D8F80010226921F4604134
:1030000041EAC201C8F800100020FFF7A7FE002027
:10301000AEE70000003C02400038024010B500F06E
:1030200043F808490968F02292FAA2F201F0F0018F
:10303000B2FA82F2D140044A515CC84003490860A8
:1030400010BD000008380240288F000870000020E2
:1030500010B5FFF7E3FF074909684FF4E05292FA11
:10306000A2F201F4E051B2FA82F2D140024A515C7C
:10307000C84010BD08380240288F000810B5FFF77F
:10308000CDFF074909684FF4604292FAA2F201F4B9
:103090006041B2FA82F2D140024A515CC84010BD90
:1030A00008380240288F000830B51948006810F031
:1030B0000C01184812D0441004290ED008290DD153
:1030C0001349091F0A6802F03F030A68550247F6D0
:1030D000C07204D5B4FBF3F003E0204630BDB0FB72
:1030E000F3F00B680968134092FAA2F2B2FA82F286
:1030F000D34058434FF4403292FAA2F201F44031E7
:10310000B2FA82F2D140491C4900B0FBF1F030BD67
:10311000083802400024F4002DE9F84F04460078F6
:10312000DFF81CA3C74DC0074FF000064BD0DAF8FC
:1031300000105046C1F38101012908D00068C0F396
:10314000810002280AD1281D0068400206D528689F
:10315000800338D56068002871D034E0DFF8E4924D
:1031600009F1020989F80060FFF7D0FD804641F2BD
:10317000883705E0FFF7CAFDA0EB0800B8427DD80C
:1031800028688003F6D4207989F80000606868B167
:10319000FFF7BCFD804605E0FFF7B8FDA0EB080097
:1031A000B842ECD828688003F6D50CE0FFF7AEFDF6
:1031B000804605E0FFF7AAFDA0EB0800B842DED884
:1031C00028688003F6D420789F4F80074FF0010BCA
:1031D00045D5DAF80010504611F00C0F4FF0F80901
:1031E00009D00068C0F3810002280BD19448001F69
:1031F0000068400206D42868800714D5E0680128DA
:103200001DD110E0E068D8B1C7F800B0FFF77EFD2F
:10321000804605E0FFF77AFDA0EB08006428AED8F1
:1032200028688007F6D5286899FAA9F22169B2FAC8
:1032300082F220F0F8009140084328600FE0FCE0A3
:103240003E60FFF763FD804606E000BFFFF75EFDCE
:10325000A0EB0800642811D828688007F6D42078ED
:10326000000729D5DFF8D8917848616909F16C0920
:1032700099B1C0F800B0FFF749FD00E086E0804654
:1032800006E000BFFFF742FDA0EB080064287DD8F0
:10329000D9F800008007F5D50EE00660FFF736FD8F
:1032A000804605E0FFF732FDA0EB080064286DD8EA
:1032B000D9F800008007F5D4207840075AD5604837
:1032C0003830016841F0805101600068DFF880917A
:1032D00000F080500090D9F8001041F48071C9F8D6
:1032E0000010FFF713FD804606E000BFFFF70EFD5C
:1032F000A0EB0800642849D8D9F80000C005F5D52E
:10330000DFF83C8108F1680888F80060FFF7FEFCF0
:1033100041F28839009005E0FFF7F8FC0099411A66
:10332000494533D8D8F800008007F5D4207A88F8CA
:103330000000A06878B1FFF7E9FC009006E000BF4C
:10334000FFF7E4FC0099411A49456ED8D8F800000F
:103350008007F5D50EE0FFF7D9FC009006E000BF2E
:10336000FFF7D4FC0099411A49455ED8D8F800000F
:103370008007F5D4A069E8B3DAF80010C1F3810141
:1033800002295AD002283E6605D000E04DE0FFF742
:10339000BDFC04464CE0FFF7B9FC064605E000BF63
:1033A000FFF7B4FC801B64283FD828688001F7D45D
:1033B000D4E90701084347F6C07292FAA2F2616AA3
:1033C000B2FA82F29140A26A4FF0FF3303EB52024D
:1033D0004FF4403393FAA3F3B3FA83F39A401143C3
:1033E00008434FF0706292FAA2F2E16AB2FA82F2F6
:1033F000914000E01FE008431149091F0860C7F829
:1034000060B0FFF783FC044605E000BFFFF77EFCD9
:10341000001B642809D828688001F7D50BE000BF9D
:10342000FFF774FC001B642802D90320BDE8F88F65
:1034300028688001F4D40020F8E70120F6E70000B6
:10344000083802400038024000004742800E4742E0
:10345000007000402DE9F0470446007900268946B7
:1034600001280CD0012727716079B046012808D0C7
:103470005FF0010684F804803046BDE8F087022042
:10348000FBE702206071FFF741FC05460BE000BF3F
:10349000FFF73CFC401B022805D90420607184F82A
:1034A00004800320E9E720684068C043C007EFD1EB
:1034B00020688068A060C9F800006771DAE710B57D
:1034C000044600F10801FFF7C5FF08B1002010BD58
:1034D000A06810BD70B5040008D02079012807D07D
:1034E000012525716079002620B107E0012070BD1B
:1034F000022070BD2671204600F00CF80220607199
:103500002068016841F004010160657126710020A6
:1035100070BD000008B500680649884208D1064819
:10352000016841F040010160006800F04000009037
:1035300008BD0000000806503438024070B5040091
:1035400004D094F85100002510B106E0012070BDB0
:1035500084F85050204600F033F8022084F85100DF
:103560002068016821F040010160D4E901010843AD
:10357000D4E903121143084361690843218B01F424
:1035800000710843E1690843216A0843A16A0843BE
:1035900021680860A069042101EA1040616A0843BB
:1035A000216848602168E06A08612068C16921F4E7
:1035B0000061C1616565012084F85100002070BD83
:1035C00000B500680E4987B0884217D10D480168E0
:1035D00041F4804101600068694600F48040059034
:1035E0004FF46040009002200190002002900320E0
:1035F0000390052004900448FFF79EFA07B000BD31
:103600000038004040380240000402404FF0E02102
:103610000428086903D020F004000861704740F0D6
:103620000400FAE710B5401EB0F1807F01D30120FD
:1036300010BD4FF0E02460610F21601700F078FFAB
:103640000020A06107202061002010BD30B590F857
:103650003820012A19D0012200F8382F02234370A4
:10366000D1E900342343D1E902452C4323430C69BB
:1036700023434C69896923430B4350F8381C4B643E
:10368000427000210170084630BD022030BD30B5C7
:1036900090F83820012A20D0012280F83820022317
:1036A00080F8393003685C6824F070045C6003685B
:1036B0005C680D682C435C6003689C6824F080049F
:1036C0009C6003689C6849680C439C6080F83920C2
:1036D000002180F83810084630BD022030BD70B59A
:1036E000044690F838000D4601280DD0012684F8D4
:1036F0003860022084F8390042B1042A18D0082A20
:103700002AD00C2A4DD139E0022070BD206801F08A
:10371000EBFE2068816941F00801816120688169C0
:1037200021F004018161206881692A69114311E057
:10373000206801F005FF2068816941F40061816122
:103740002068816921F480618161206881692A692A
:1037500041EA0221816124E0206801F023FF206812
:10376000C16941F00801C1612068C16921F004010B
:10377000C1612068C1692A69114311E0206801F024
:1037800041FF2068C16941F40061C1612068C169DD
:1037900021F48061C1612068C1692A6941EA02217E
:1037A000C16184F83960002084F8380070BD10B51C
:1037B000040003D094F8390010B107E0012010BDD7
:1037C000002084F83800204600F00CF8022084F82D
:1037D0003900211D206801F01BFE012084F839000A
:1037E000002010BD70B500680024022586B0B0F13D
:1037F000804F19D01C49884214D11C48016841F0FF
:10380000020101600068694600F002000590E801CD
:103810000090CDE901540320CDE90340144800BFD6
:10382000FFF78AF906B070BD1048001F016841F02B
:10383000010101600068012600F0010005904FF4CD
:1038400000400090CDE90154CDE90346694609489E
:10385000FFF772F908200090CDE90154CDE9034645
:1038600069460548DCE70000000401404438024096
:1038700000080240000002400004024010B5044667
:103880000068012201F024FE08492068884202D025
:103890000749884203D1416C41F4004141642068EA
:1038A000016841F001010160002010BD00000140ED
:1038B0000004014010B504460068002201F008FE33
:1038C000114841F2111221689310814202D00F4831
:1038D000814209D1086A104206D1086A184203D110
:1038E000486C20F4004048642068016A114206D107
:1038F000016A194203D1016821F001010160012030
:1039000084F83900002010BD00000140000401408F
:103910007047000038B501680446086810F0010FD0
:10392000C86800F4807007D030B10868486800901B
:10393000E06B40F00100E06308684A69C0F34000B2
:1039400002F0010238B132B1086848680090E06BBB
:1039500040F00400E0630868C0F38002486900F0AA
:1039600001003AB130B1086848680090E06B40F05F
:103970000200E0630868C0F3C002486900F001007B
:103980003AB130B1086848680090E06B40F0080038
:10399000E0630868C968C0F3401001F0200118B165
:1039A00011B1204601F0ACFE21680868C968C0F377
:1039B000C01001F0800118B111B1204601F0B0FF34
:1039C00021680868CA68C0F3801002F0400201252F
:1039D000C0B1BAB1CA68204622F04002CA6094F869
:1039E0003910322917D00168CA6822F48072CA607F
:1039F00001684A6922F001024A6180F8395000BF2B
:103A000000F060F9E06B002804D084F839502046BB
:103A1000FFF77EFF38BD222180F83910F0E770B53E
:103A2000040004D094F83900002510B106E001200C
:103A300070BD84F83850204600F020F8022084F849
:103A400039002068C16821F40051C160204601F0AE
:103A5000ABFE2068016921F4904101612068416951
:103A600021F02A0141612068C16841F40051C16020
:103A7000E563012084F83900002070BD2DE9F0478E
:103A80000746534DD0F800C00024524803260221B7
:103A90000122514B86B04FF000694FF4806AAC456B
:103AA0002CD1056845F4002505600068029200F4F9
:103AB00000200590CDE900610820CDE9036069464A
:103AC0001846FFF739F8464D44482860C5E9019487
:103AD000C5E9034A6C61AC61EC612C62C5E9094639
:103AE000EC6228462C63FEF7CDFF7D6300220621A1
:103AF0003420AF63FFF75AF9342031E0DFF8E48077
:103B00000725C44531D13348001D036843F0100335
:103B100003600068049500F010000590C0208DE857
:103B2000470069463048FFF707F82D4D2F485835B4
:103B30002860C5E90194C5E9034A6C61AC61EC6198
:103B40002C62C5E90946EC6228462C63FEF79AFF11
:103B50007D63002207212520AF63FFF727F9252089
:103B6000FFF718F906B0BDE8F087DFF88480C44598
:103B7000F8D1D0F800C04CF4003CC0F800C0006898
:103B8000049500F4003005900C208DE8470069464C
:103B90001846FEF7D1FF124D1048B0354830286066
:103BA000C5E90194C5E9034A6C61AC61EC612C6222
:103BB000C5E90946EC6228462C63FEF763FF7D6386
:103BC000002207212620AF63FFF7F0F82620C7E781
:103BD000004C00404038024000000240406002407B
:103BE0004C020020001001400004024040640240EA
:103BF00000440040704700002DE9F047044690F86B
:103C0000390099460D46012801D0222858D12DB3FC
:103C100022B394F83800012852D0012684F8386085
:103C20000027E76394F8390022281AD05FF01200C9
:103C300084F83900A284E2844FF48058E08C4B462B
:103C4000401EE084A0684FF0000240454FF0800124
:103C5000204613D101F097FE08BB04E00120BDE827
:103C6000F0873220E4E728882168C0F30800486024
:103C7000206908B16D1C08E0AD1C06E001F083FE70
:103C800068B9216815F8010B4860E08C0028D5D18F
:103C90004B4600224021204601F075FE08B103206A
:103CA000DDE794F83900322806D084F8396000BF87
:103CB00084F838700020D2E7222084F83900F7E732
:103CC0000220CCE7704700BF00BF00BF00BF00BFAD
:103CD00000BF00BF00BF00BF00BF00BF00BF7047F4
:103CE00070B501220E4DD40321462846FFF709F88E
:103CF0000122960331462846FFF703F8FFF7E3FF5A
:103D0000002221462846FEF7FCFFFFF7DCFF0022D9
:103D100031462846FEF7F5FFBDE87040FFF7D3BFF8
:103D20000008024070B5104D4FF4004400222146B7
:103D30002846FEF7E6FF6610002231462846FEF7C9
:103D4000E0FFFFF7C0FF012231462846FEF7D9FF0A
:103D5000FFF7B9FF012221462846FEF7D2FFBDE852
:103D60007040FFF7B0BF0000000802402DE9F041AD
:103D70001E4F054600244FF400484FF480462806A5
:103D800001D5012200E0002241463846FEF7B9FF86
:103D90006806050EFFF797FF012231463846FEF709
:103DA000B0FFFFF790FF002231463846FEF7A9FF2B
:103DB000FFF789FF641CE4B2082CE0D301224146DE
:103DC0003846FEF79EFFFFF77EFF01223146384658
:103DD000FEF797FFFFF777FF002231463846FEF7E0
:103DE00090FFBDE8F041FFF76EBF00000008024001
:103DF00000212248FFF742FD04212048FFF73EFD45
:103E00001E494FF47A700A6850630968886301227A
:103E100080211B48FEF775FF4FF4FA7003F0B2FAE9
:103E200000211848FEF7B2FA64221749174800F03B
:103E30006DF83C221649174800F068F8142216491C
:103E4000164800F063F8012003F07AFF4FF0FF34CA
:103E5000204603F011F9002003F044F9204603F056
:103E60000BFA03F0C7F8012003F052F9600003F0E9
:103E700073FA0B4C206804F025F9FBE7540300208B
:103E8000000002404C010020684300200C0200208A
:103E9000144A00208C010020CC430020CC010020DB
:103EA0008400002070B5044690F83900012801D044
:103EB000122829D121B31AB394F83800012823D04D
:103EC000012084F83800A162A2850025E56394F8FA
:103ED0003900122816D0222084F8390008461346EB
:103EE000666B216802463046091DFEF707FE206812
:103EF000416941F04001416184F83850002070BDB3
:103F0000012070BD3220E7E7022070BD10B50368C4
:103F1000DC6844F01004DC60FFF7C4FF002010BD33
:103F2000F8B5044600680E460168C90663D5016805
:103F300040680090606B02682F4882420AD02F4888
:103F4000824207D02C486030824203D02B48603038
:103F5000824201D1202522E027481830C514824230
:103F60001DD026481830824219D02348783082422A
:103F700015D022487830824211D01F48AD0230302F
:103F800082420CD01D483030824208D01A4890300E
:103F9000824204D019489030824200D0AD012046C0
:103FA00001F064FB606B0068016821F001010160B1
:103FB000606B124900684831884202D90F48001FDF
:103FC00005E00D49A831884203D90C48083805603E
:103FD00008E0094A084948321039904201D9CD60B9
:103FE00000E08D60606B00684660606B006801688F
:103FF00041F001010160F8BD106002401064024010
:104000002DE9F0470025294EDFF8A490AA464FF08D
:10401000010800BF05EB450756F8270088B106EBFD
:104020008704A18889B2FEF767FE0028A07A05D030
:1040300048B3012823D0022828D125E038B101282F
:104040000BD006EB8700807A022810D01EE084F89F
:104050000A802089401C208118E02089401C80B201
:1040600020810A2812D3A4F808A00220A07299F88F
:10407000002008FA05F0104389F800000FE0A4F8CA
:1040800008A084F80AA001E084F80AA008FA05F064
:1040900099F80020C0F1FF01114089F800106D1C53
:1040A000EDB2082DB6D3BDE8F0870000B44900207A
:1040B0003401002008B504F051FDDFF85CA00227B0
:1040C0000326164C4FF4805900254FF0010800904C
:1040D0000A21684603F05DF949465046FEF70CFE9A
:1040E00068B10128F4D120780028F1D0012810D03F
:1040F00002280AD00328EBD184F80080E8E7207872
:1041000028B1012805D00228E2D12670E0E7277007
:10411000DEE72570DCE7000000080240080100200F
:104120000C480B494FF4002201600321416000213B
:104130008160C0E903124FF44012C0E90521012259
:10414000C0E9072141628162C162FEF749B80000FF
:10415000006400404C010020154808B5016841F496
:1041600000110160016801F400110091016841F43F
:10417000800101600068002200F4800000900821A6
:104180000D20FEF713FE0D20FEF704FE002208218D
:104190001020FEF70BFE1020FEF7FCFD0022082188
:1041A0003A20FEF703FEBDE808403A20FEF7F2BDD4
:1041B0003038024000B585B0142207496846FCF744
:1041C0005DF80021684603F0FEF80449086002200B
:1041D00002F0EEFF05B000BD0C8F000800000020CB
:1041E0002DE9F041354886B0016841F004010160D5
:1041F000016801F004010591016841F0800101604E
:10420000016801F080010591016841F00101016040
:10421000016801F001010591016841F002010160AE
:10422000016801F002010591016841F00801016097
:104230000068012500F0080005904CF2070000908E
:104240000024CDE90154DFF87880694640460394A4
:10425000FEF772FCF0208DE8310069461948FEF740
:104260006BFC3020CDE90004694640460294FEF71D
:1042700063FC40F607408DE83100134F694638462D
:10428000FEF75AFC2E030096CDE9015469463846E4
:104290000394FEF751FC009669464046CDE901457E
:1042A000FEF74AFC0420CDE9000469460748029461
:1042B000FEF742FC06B0BDE8F08100003038024055
:1042C000000802400000024000040240000C0240CE
:1042D0000349024808600846FFF7FCB8000806508A
:1042E000CC0300200B480A494FF4007201604FF4E0
:1042F0008271416000218160C1600161C0E90512E5
:10430000C1610162416281620A21C162FFF716B98F
:1043100000380040D803002010B513488AB04FF091
:104320008041016053210024C0E9011442F20F7161
:10433000C0E90314FFF73BFA079407A90A48089459
:10434000FFF7A5F96020CDE9000402940022694638
:1043500005480494FFF7C3F9042269460248FFF7B1
:10436000BEF90AB010BD00005403002010B51A4871
:1043700090B01849016040F24F110024C0E90114C7
:10438000C721C0E903144461FFF711FA0E940EA986
:1043900011480F94FFF77BF900944FF40050CDE9DA
:1043A000044001940294039469460B480694FFF775
:1043B0004DF9602007906420CDE908040A940B941D
:1043C0000C94082207A904480D94FFF788F910B04F
:1043D00010BD000000040140900300200848074978
:1043E00001604FF4E1314160002181600C22C16025
:1043F000C0E904128161C161FFF711BB004C0040AC
:104400008C0100200848074901604FF4E131416008
:10441000002181600C22C160C0E904128161C16188
:10442000FFF7FDBA00100140CC01002009480849FF
:104430004FF4806201600849416000218160C0E959
:1044400003120422C0E90521C161FFF7E8BA0000A8
:10445000004400400C020020A086010030B5224D2F
:10446000224A95F9083092F9000095F9091098420E
:1044700003D192F90100884234D01D4807244BB380
:10448000012B04D0022B1AD0032B29D10AE00129D9
:1044900004D0022922D0032922D101E002241DE008
:1044A00000241BE0012904D0022906D0032917D1DA
:1044B00001E0062412E0042410E005240EE00129A6
:1044C00004D002290AD003290AD101E0082405E01A
:1044D000012403E021B995F844500DB980F8264035
:1044E0001370517030BD0000204300208800002070
:1044F000E047002010B58AB0002104460120CDE934
:1045000006100591009101910291039104910E21F1
:10451000CDE9080169462046FDF722FD00B1FEE71E
:10452000024820631C3060630AB010BD884100203F
:104530000907090E002806DA00F00F0000F1E0205C
:1045400080F8141D704700F1E02080F800147047D7
:1045500000BF00BF00BF00BF00BF00BF00BF00BF63
:1045600000BF00BF00BF00BF00BF00BF00BF00BF53
:1045700000BF00BF00BF00BF00BF00BF00BF00BF43
:1045800000BF00BF00BF00BF00BF00BF00BF00BF33
:1045900000BF00BF00BF00BF00BF00BF00BF00BF23
:1045A00000BF00BF00BF00BF00BF00BF00BF00BF13
:1045B00000BF00BF00BF00BF00BF00BF00BF00BF03
:1045C00000BF00BF00BF00BF00BF00BF00BF00BFF3
:1045D00000BF00BF00BF00BF00BF00BF00BF00BFE3
:1045E00000BF00BF00BF00BF00BF00BF00BF00BFD3
:1045F00000BF00BF00BF00BF00BF00BF00BF00BFC3
:1046000000BF00BF00BF00BF00BF00BF00BF00BFB2
:1046100000BF00BF00BF00BF00BF00BF7047000069
:104620002DE9FF4F83B0C818401EDDF840A0914629
:104630008B460C4607B24FF00008381B411C082976
:1046400001DB082000E0401CC0B202900025039E60
:1046500018E000BFBAF80000A84205D9DAF8042033
:1046600008FB00202A5C00E0002201211198CDE91E
:10467000000121463046029B00F03AF8761C6D1C82
:1046800036B2ADB24D45E5D3083424B208F101008D
:104690001FFA80F8BC4205DCBAF8021001EB0B00EF
:1046A000A042CADA07B0BDE8F08F000070B58028DC
:1046B0001AD2402918D2CD0801F007040126A640DD
:1046C0000A4C002A04EBC004F6B2625D01D032430A
:1046D00000E0B2436255012B06D100F0CFF9605DD6
:1046E000BDE8704000F018BA70BD0000E043002043
:1046F0002DE9FC5F99460446C81701EB5070C610BF
:1047000001EB09000190401EC517DDE90C3E00EBEE
:104710005570C710BE4202D14FF0010C01E04FF0BE
:10472000000C01F10800009048287DD2002C7BDBB2
:10473000802C79DA4A4D00291BDA09EB01000028A8
:1047400072DDFF268640F0B215F83460494206401B
:10475000CA4003B1D2438243164305F83460BEF128
:10476000010F7BD1E0B2002100F088F915F8340088
:1047700070E0C81701EB507020F00700A1EB000AB1
:10478000FF2000FA0AFB02FA0AF0354D6FEA000832
:1047900005EBC405BCF1000F17D0C9F10807A7EB62
:1047A0000A07FF22FA4002EA0B0203B14046AB5D62
:1047B000104093431843A855BEF1010F4ED1C9B222
:1047C000E0B200F05BF9A85D44E04FF0FF090BF0A8
:1047D000FF0C03B1404615F8068000EA0C0028EAF9
:1047E0000C0840EA0800A855082F21DA01984FEA82
:1047F000E07C00EB5C7C2CF0070CA0EB0C00C0F123
:10480000080C29FA0CF04FEAE17C01EB5C7C2CF0FF
:10481000070CA1EB0C0CCCF1080C22FA0CF203B142
:10482000D2430240EB5D00E018E083431A43EA55AF
:10483000BEF1010F12D1C9B2E0B200F01FF9A85DBC
:1048400000F06AF9082F09DA0098C1B2E0B200F06E
:1048500015F9E85DBDE8FC5F00F05EB9BDE8FC9FBE
:10486000E043002010B5FFF773FEAE2000F043F9DF
:10487000002000F040F9102000F03DF9402000F049
:104880003AF9812000F037F92F480088C0B200F0D3
:1048900032F9A02000F02FF9C02000F02CF9A6205A
:1048A00000F029F9A82000F026F93F2000F023F9B4
:1048B000D32000F020F9002000F01DF9D52000F0F1
:1048C0001AF9802000F017F9D92000F014F9F1202E
:1048D00000F011F9DA2000F00EF9122000F00BF9C7
:1048E000DB2000F008F9402000F005F9202000F05E
:1048F00002F9022000F0FFF88D2000F0FCF81420EF
:1049000000F0F9F8A42000F0F6F8A62000F0F3F883
:10491000AF2000F0F0F800210C4B0A465FF00000D9
:1049200003EBC004401CC0B262548028F8D3491C79
:10493000C9B20829F2D300F087F80021BDE8104081
:10494000084600F0AEB8000080000020E0430020E0
:104950002DE9FF4F87B00020DDE915760290C818D9
:10496000401E00B20590002090468946049063E006
:10497000A1EB0900411C082901DB082000E0401CD4
:10498000C0B203900025079C3FE002991498405C58
:10499000A0F12001C9B220B10A2816D00498C8B1EC
:1049A00001E0012004900025CDE90076002249466F
:1049B0002046039BFFF79CFE6D1C641C2DB224B2A5
:1049C000062DF1DB0498D0B11DE00298401C00B226
:1049D00002902BE001EB41001A49002501EB400B4E
:1049E000CDE900761BF8052049462046039BFFF7DA
:1049F0007FFE6D1C641C2DB224B2062DF0DB0298E4
:104A0000401C00B202901FFA8AF505F1060AC24561
:104A1000BBD90BE0CDE90076002249462046039B36
:104A2000FFF766FE6D1C641CADB224B24545F1D3A0
:104A300009F108000FFA80F90599894598DD0BB056
:104A4000BDE8F08F388F000870B50B4E0024E006EB
:104A5000010E002000F012F85FF0000506EBC50023
:104A6000005D00F059F86D1CEDB2802DF6D3641C8A
:104A7000E4B2082CEBD370BDE043002010B504462F
:104A8000B02000EBD100C0B200F035F8102040EAB1
:104A9000141000F030F804F00F00BDE8104000F0F2
:104AA0002AB810B50446B031C8B200F024F810207E
:104AB00040EA141000F01FF804F00F00BDE81040A9
:104AC00000F019B80FB4802110B5A0B0002423ABBA
:104AD0006846229A01F0C8F810F0FF0006D0401C8A
:104AE00002F004FC04466946FBF7F3FB20B02046C5
:104AF00010BC5DF814FB10B50446FFF7F1F8782000
:104B0000FFF734F90020FFF731F92046FFF72EF9BF
:104B1000BDE81040FFF706B910B50446FFF7E0F80E
:104B20007820FFF723F94020FFF720F92046FFF710
:104B30001DF9BDE81040FFF7F5B8000098B0FFF789
:104B400091FE282380220F210020FCF7BDFFDFF813
:104B5000948200234446C8F80400A3A000901A22BF
:104B600019461846FCF7F8FEA04D00231A22E8600B
:104B70009FA0009019461C20FCF7EEFE28609DA027
:104B8000002300901A220C211846FCF7E5FEA860CD
:104B900099A0009000231A220C211C20FCF7DCFEB7
:104BA00068600C23302234210020FDF7FFF801213A
:104BB000A060FDF70AF90C2332221B210020FDF72B
:104BC000F5F88EA1E060FDF705F901263520CDE965
:104BD00000069FED8D0A00224FF425732421104614
:104BE0000296FCF7AAFF20613323422200213E20D7
:104BF000FDF7DCF801216061FDF7E7F80C23502296
:104C000034213020FDF7D2F80121A061FDF7DDF855
:104C100050227E4903A8FBF731FB60680490E968E5
:104C2000069129680891A9680A9169680C91A168A0
:104C30000E91E16810912169129161691491A16945
:104C4000169108F11C01FCF74EFF01221146606825
:104C5000FCF74EFF4FF4FA7002F094FB01220021A2
:104C60006068FCF745FF03A8FCF7F5FE68A16069E2
:104C7000FDF7B0F86AA16069FDF76AF801221146F4
:104C80006069FDF7CDF8642002F07CFB654FDFF82A
:104C900098B1DFF898A1B14601244E46397806FA5A
:104CA00004F008424FEA540055F8200001D00121D9
:104CB00000E00021FCF765FEA41CA4B2082CEDD393
:104CC0005B484446D0F8060000EE100AD8F8100001
:104CD000B8EE400AFCF762FF9BF8011001295DD095
:104CE0009BF802000128534802685BD052A1A068DB
:104CF000FDF770F852A16069FDF76CF8DAF8000072
:104D00005646007B022803D050A16069FDF720F8C9
:104D1000F069007B022803D04EA16069FDF718F806
:104D2000F068007B022803D04CA16069FDF710F801
:104D30003069007B022803D04AA16069FDF708F8BA
:104D40007069007B022803D048A16069FDF700F874
:104D5000B069007B022803D046A16069FCF7F8FF28
:104D6000706A007B022803D044A16069FCF7F0FF61
:104D7000B06A007B022803D042A16069FCF7E8FF1B
:104D8000F06A007B022803D040A16069FCF7E0FFD5
:104D90004048007840B1032808D00BE025483EA1E8
:104DA0000268A4E73EA1A2E73FA100E041A160693B
:104DB000FCF7CEFF42484068FBF7BEFB41EC100B0E
:104DC00040A153EC102BA069FDF704F800220A2142
:104DD00003A8FCF749FEFFF737FE042002F0D2FAE1
:104DE0005AE70000100100204C460000A4490020B2
:104DF00046520000424C0000524200004A5F546993
:104E00006D526D3A0000000000002544D09100086A
:104E10004F4C45440A5374617274696E6700000018
:104E20004F4B210034010020000100206849002080
:104E3000504A0020B4000020436E74443A256400B8
:104E40004F46464C494E453A0A0000004779726F7A
:104E5000200000004A756467200000004D5F4C2070
:104E6000200000004D5F5220200000004D5F4620D2
:104E7000200000004D5F42202000000050495420D7
:104E800020000000594157202000000055505020BC
:104E9000200000000801002053746172742100009A
:104EA00054696D6F757421000A43444B5F4F4E2166
:104EB000212100000A43444B5F4F46462E2E00003E
:104EC000244200204779726F3A252E346600000094
:104ED0002DE9FF410DF12808DFF824C098E8F00023
:104EE000C0F840C0DFF81CC0C0F844C0DFF818C0EC
:104EF000C0F848C08DE8F00002F0B2FBBDE8FF81C9
:104F00006176000891760008E174000870B5224EC1
:104F10009FED200A214C86ED020A86ED030A608A85
:104F20000025C8281CD91E48FEF7C9FA00EE100A51
:104F3000DFED1C0A9FED1C1AB8EE400A94F905003B
:104F400060EE200A9FED190A00EE810A00EE900A39
:104F5000F8EEE00A20EE200A86ED040A658201E000
:104F6000401C6082A08AB0F5966F0FD90C48FEF7FE
:104F7000A6FA4FF000420021101AA94101DA0120DF
:104F800001E04FF0FF306071A58270BD401CA0822F
:104F900070BD000000000000E047002088000020F5
:104FA000CC030020000016440000802F00007A434C
:104FB00070B5284D284C4FF0010695F82C000109DA
:104FC00026D100F00F00062822D2DFE800F003030C
:104FD00003031D1DB5F82D00B0F5FA7F0FD0A670A4
:104FE000FDF794FEE06295F82C0000F00F0084F8C5
:104FF00028001A4890ED010A84ED0C0A08E026709A
:10500000FDF784FEE06003E06670FDF77FFEE0617F
:105010001348D5F80610C269914202D00022C0E9B7
:10502000071295F82C1011F00F0105D0012903D0BB
:10503000022901D0032904D1B5F82D10026A1144C8
:105040000162006AB0F5C87F03D3E670FDF75EFE2B
:10505000E06370BD504A0020004900202442002037
:105060008800002010B5FDF751FE0149886010BD91
:10507000FC0000202DE9F05F9B4C9C4D81462DEDFE
:10508000028B92469A4F8B462046A1782A780023BD
:1050900090F9040097ED010A4FF0010891426FD09A
:1050A00008B1002A6CD0FDEEC00A4FF4B47010EEC7
:1050B000901A91FBF0F600FB161109B2218100292C
:1050C00001DA01F5B47109B25A26218191FBF6F19A
:1050D00049B2A17184ED0F0A84F804802A2A15D000
:1050E0000DDC0A2A3ED005DCA2B3022A10D0082A21
:1050F0000CD114E0202A26D0282A07D139E0A02A92
:105100003FD003DC802A26D0822A41D0237163E07D
:10511000A1EB011101EB41014FF407723EE0A1EB5D
:10512000011101EB41014FF4E17237E091FBF0F224
:1051300000FB121000EE100AB8EEC00A84ED0A0A55
:1051400084ED090A48E0A1EB011101EB410100EBFC
:105150004101EBE725E0A1EB011101EB41014FF427
:1051600087721BE0A1EB011101EB410140F2EF124C
:1051700014E0A1EB011101EB410140F295120DE0A9
:1051800039E0A1EB011101EB410140F23B1205E0D6
:10519000A1EB011101EB410140F2492202EB410177
:1051A000C4E723715348FEF78AF900EE100AB8EEFF
:1051B000400ADFED510A30EE600ADFED500A60EE82
:1051C000200A94ED0A0A9FED4E1A00EE810A84ED42
:1051D000090AE0784042E0702878A070D4ED090A0E
:1051E0009FED481A80EE810ADFED470A20EE200A83
:1051F00084ED120A0FE001280DD1D4ED0F0A30EE34
:10520000600ABDEEC00A10EE100A00B220824B30D8
:10521000962800D92371A06CFBF78EF941EC100B96
:1052200000F05EFDB0EE408AF0EE608A4846FBF783
:1052300072F9894649EC110B064653EC182B51ECD8
:10524000110BFBF7F6F8FBF78AF9304DA860A06C5C
:10525000FBF772F941EC100B00F0A6FD49EC116B65
:1052600053EC102B51EC110BFBF7E3F8FBF777F93C
:10527000E860BAF1010F04D094F9031011FB0BF0B0
:1052800023E0D7ED010A224910EE900A884203DBA1
:105290004FF0FF30608106E010EE900A1D49884211
:1052A00001D3A4F80A80B4F90A00DFED1B1A01EE5D
:1052B000100AB0EE600A1548B8EEC11A3C3001EE93
:1052C000210A85ED050A816C884700EE100AB8EEC8
:1052D000C00A85ED040A97ED010A85ED060ABDECCA
:1052E000028BBDE8F09F0000880000203401002000
:1052F00024420020CC0300200000004F0000344274
:105300000000003000003443DB0F4940E04700203C
:10531000000070420000FAC200001042012002F0BA
:1053200031F8FBE710B5FDF7F7FCBDE8104002F0DF
:1053300040B800001F4810B5016892B041F080519C
:105340000160006800F0805011901B48016841F432
:10535000804101600068022400F480401190012027
:10536000009001908005CDE9064005200890D220EC
:10537000CDE9090407200B906846FDF7CDFE0D200E
:10538000CDE90C0400200E904FF4A0500F90E002E5
:10539000109005210CA8FDF73BFDFDF73FFE4FF4F3
:1053A0007A71B0FBF1F0FEF73DF90420FEF72EF91B
:1053B00012B010BD40380240007000401048016833
:1053C00041F4700101600F48016841F00101016082
:1053D0000C4A00210832116002680B4B1A4002602F
:1053E000031D0A4A1A60026822F4802202600548FE
:1053F0000C3001600249580680390860704700008F
:1054000088ED00E000380240FFFFF6FE1030002477
:10541000F0B50268234B244D244E254F254C4FF008
:10542000804C984209D0604507D0A84205D0B042D0
:1054300003D0B84201D0A04204D122F0700E4A68D5
:1054400042EA0E0298421BD0604519D0A84217D0FC
:10545000B04215D0B84213D0A04211D0164DA84288
:105460000ED0164DA8420BD0154DA84208D0154DB0
:10547000A84205D0144DA84202D0144DA84203D131
:1054800022F44075CA682A4302608A68C2620A68C8
:105490008262984201D0A04201D1096901630121D1
:1054A0004161F0BD000001400004004000080040E0
:1054B000000C004000040140004001400044014055
:1054C0000048014000180040001C0040002000403F
:1054D00010B50123046A8B409C430462036A8A402E
:1054E0001343036210BD000030B5026A22F00102CE
:1054F0000262026A436884690D6824F073042543DC
:1055000022F002048A6822430B4CA04202D00B4CCA
:10551000A0420BD122F00804CA6823F4407322434E
:105520004C6922F004021C438B692343436085616C
:1055300049684163026230BD00000140000401403F
:1055400030B5026A22F010020262026A436884697E
:105550000D6824F4E64444EA05248D6822F0200214
:1055600042EA05120D4DA84202D00D4DA8420ED1BF
:10557000CD6822F0800242EA05124D6923F44063AF
:1055800043EA85038D6922F0400243EA85034360C4
:10559000846149688163026230BD000000000140FF
:1055A0000004014030B5026A22F480720262036A8C
:1055B0004268C46923F4007324F073050C682C431B
:1055C0008D6843EA05230D4DA84202D00C4DA84238
:1055D0000ED1CD6823F4006343EA05234D6922F41C
:1055E000405242EA05128D6923F4806342EA0512B3
:1055F0004260C4614968C163036230BD000001407C
:105600000004014030B5026A22F480520262046A4A
:105610004268C3690D6823F4E64343EA05238D68B5
:1056200024F4005444EA0534084DA84202D0084D41
:10563000A84204D14D6922F4804242EA85124260B8
:10564000C36149680164046230BD0000000001408C
:105650000004014010B53C210348FEF761FCBDE8A1
:1056600010400148FEF756B98C010020104910B5D2
:1056700088420FD10F49A1F14800FCF7CDF80D4C3D
:10568000483CE06BA063FDF741FBE063A16B401A6F
:10569000206410BD0849884203D1BDE8104001F0E4
:1056A0009DBD06498842F4D1FBF7EEFA10BD00001B
:1056B0000C020020684300208C010020CC01002057
:1056C0000FB4802130B5A1B005466846FAF7EFFD6A
:1056D0006C4626AA2046259900F0D8FA002201E05F
:1056E000521CD2B214F8010B0028F9D1FF236946ED
:1056F0002846FEF781FA21B030BC5DF814FB0000AB
:1057000010B590F83910222903D0322901D0022097
:1057100010BD8168B1F5805F11D001690029016871
:105720001FD0496801F07F03816A4A1C82620B70B6
:10573000C18D491E0904090CC18518D030E00269E9
:10574000816A002A0268526805D0D2B20A80816A52
:10575000491C8162ECE7C2F308020A80816A891C55
:10576000F7E74A68816A4B1C83620A70E0E70168C8
:10577000CA6822F02002CA6090F83910322911D08C
:105780000168CA6822F48072CA6001684A6922F01E
:1057900001024A615FF0010180F83910FEF72AFA30
:1057A000002010BD1221F7E72DE9F0410168044601
:1057B000086920F44052E068104308612268D0680C
:1057C00049F20C6188432369A168E569194363695B
:1057D0002B4319430143D1602168486920F440728A
:1057E000A06910434861E26964263225B2F5004F92
:1057F00049494A4822681DD0824201D08A426AD172
:10580000FDF73CFC00EBC00101EB00106168B04605
:105810008900B0FBF1F1B1FBF8F6FDF72FFC00EBCE
:10582000C00101EB001061688900B0FBF1F7FDF7E2
:1058300025FC69E0824201D08A4219D1FDF71EFCA5
:1058400000EBC00101EB00106168B0464900B0FBFD
:10585000F1F1B1FBF8F6FDF711FC00EBC00101EB33
:10586000001061684900B0FBF1F7FDF707FC18E094
:10587000FDF7EEFB00EBC00101EB00106168B046E4
:105880004900B0FBF1F1B1FBF8F6FDF7E1FB00EBED
:10589000C00101EB001061684900B0FBF1F7FDF7B2
:1058A000D7FB00EBC00101EB001061685FEA41012A
:1058B000B0FBF1F1B1FBF8F06FF01801484307EBD2
:1058C000800005EB0011B1FBF8F0216866F31F10B2
:1058D0008860BDE8F081FDF7BBFB00EBC00101EB88
:1058E00000106168B0468900B0FBF1F1B1FBF8F639
:1058F000FDF7AEFB00EBC00101EB00106168890011
:10590000B0FBF1F7FDF7A4FB00EBC00101EB0010C9
:1059100061688900CCE700000014014000100140DC
:1059200090F83910122903D0322901D00220704793
:105930008168B1F5805F016A0BD04A1C026202687F
:1059400009785160C18C491E0904090CC1840ED02C
:1059500017E009880268C1F3080151600169002954
:10596000016A02D0491C0162ECE7891CFBE701686F
:10597000CA6822F08002CA600068C16841F0400134
:10598000C160002070472DE9F0471D4690460E4645
:105990000446FDF7BBF907465FEA08004FF000092F
:1059A0004FF0010808D030E0681C05D095B1FDF734
:1059B000ADF9C01BA8420DD82068006836EA000087
:1059C000F2D127E0681C20D025B1FDF79FF9C01B5C
:1059D000A8421AD92068C16821F08001C1602068FE
:1059E000C16821F02001C1602068C16821F4807184
:1059F000C1602068416921F00101416184F839806A
:105A000084F838900320BDE8F0872068006836EA03
:105A10000000D7D00020F6E710B514210348FEF7A8
:105A20007FFABDE810400148FDF774BFCC010020AB
:105A300010B564210348FEF773FABDE81040014831
:105A4000FDF768BF0C02002010B5304C40F2B630B4
:105A500094F82610092950D2DFE801F0054F0E37DF
:105A60004F3E424C48009FED2A0A84ED020A84ED25
:105A7000030A84ED040A40E0264991ED010A264913
:105A800084ED060AB1F9002000EE102A234AF8EE50
:105A9000C00A92ED060A60EE800AC4ED020AB1F96E
:105AA000022000EE902AF8EEE00A60EE800AC4EDD3
:105AB000030AB1F9041000EE901AF8EEE00A20EEA5
:105AC000800A84ED040AA08417E04FF4FA700022E3
:105AD0000146FFF7CFFA10E0A084FFF717FA0CE0B9
