:020000040800F2
:10000000A80600208D580008E1010008E30100085F
:10001000E7010008EB010008EF0100080000000004
:10002000000000000000000000000000F3010008D4
:10003000F501000800000000F7010008A5580008BD
:10004000A7580008A7580008A7580008A758000894
:10005000A7580008A7580008A7580008A758000884
:10006000A75800087B65000819650008A758000814
:100070006B170008A7580008A7580008A7580008E1
:100080002B160008A7580008A75800089505000877
:10009000B1050008A7580008A7580008A75800088D
:1000A000A7580008A7580008A7580008A758000834
:1000B00083040008A7580008A7580008A75800089C
:1000C000A7580008A7580008A7580008A758000814
:1000D000A7580008A7580008A7580008A758000804
:1000E000A7580008A7580008A7580008A7580008F4
:1000F000A7580008A7580008A7580008A7580008E4
:10010000A7580008A7580008A7580008A7580008D3
:10011000A7580008A758000825040008A758000899
:10012000A7580008A7580008A7580008A7580008B3
:10013000A7580008A7580008A75800087708000823
:10014000A758000893080008A7580008A7580008F7
:10015000631A0008A7580008A7580008A758000805
:10016000A7580008A7580008A7580008A758000873
:10017000A7580008A7580008A7580008A758000863
:10018000A7580008A7580008DFF80CD008F0CCFAF0
:10019000004800479D010008A806002088B002F032
:1001A000B1FA19E00D4801690091808AADF80400A8
:1001B00016220A4902A807F077FF02A80FC801F02B
:1001C000CBFB48B1054A517C507A02F0B0FB034AA0
:1001D000117C507A02F0EEFBE4E70000F40100200D
:1001E000704700BFFEE700BFFEE700BFFEE700BFAD
:1001F000FEE77047704770471CB50121042003F0EB
:1002000023FE0620009001208DF8040000208DF8C8
:10021000060003208DF805006946064804F046FDF7
:100220000221044804F0BEFD0421024804F0BAFD96
:100230001CBD00000008024010B5002107E04AF292
:10024000104200BF1300A2F10102FBD1491C814200
:10025000F5D310BD10B5002106E0282200BF130021
:10026000A2F10102FBD1491C8142F6D310BD00006E
:1002700000B58BB00121084603F0E6FD01210820FE
:1002800003F015FE0121080403F022FE0720099067
:1002900002208DF8280003208DF8290009A947487D
:1002A00004F004FD02220021444804F08AFD0222E9
:1002B0000121424804F085FD032202213F4804F059
:1002C00080FD5320ADF818000020ADF81A0040F66C
:1002D000C41007900020ADF8200006A9384802F0AD
:1002E00088FEA720ADF818000020ADF81A003548A8
:1002F000006807900020ADF8200006A9324802F0FF
:1003000078FE7020ADF804000120ADF80600002052
:10031000ADF808004FF47A7003900220ADF8100099
:100320000020ADF81200ADF814004FF48070ADF865
:10033000160001A9224802F0F1FE01A9204802F0AE
:1003400026FF0020039001A91F4802F0E7FE0821C4
:100350001B4803F070F80821194803F075F80821CC
:10036000194803F068F80121154802F0ADFE01219B
:10037000154802F0A9FE0121114802F0C3FE012137
:10038000114802F0BFFE4FF47A700D493431086015
:10039000091D086000200C4948630BB000BD0949E5
:1003A00009680A4A1268891A814204DA054909680B
:1003B000064A1268881A04494863704700000240E0
:1003C000000C00400000002000400140040000201C
:1003D0000EB50121102003F06AFD01230222032142
:1003E000362002F02EFB41F28730ADF800000020ED
:1003F000ADF80200ADF808001420019069462C48C1
:1004000002F0F7FD0EBD10B50121294802F07AFE79
:1004100001221146264803F08DFA0121244803F0F9
:100420009DFA10BD10B50121214803F09AFA48B198
:1004300001211F4803F0A6FA01211D4803F08EFA9E
:1004400002F0A4F910BD0EB50121084603F02FFDFE
:100450004FF0FF3001905320ADF800000020ADF8C0
:100460000800ADF802000121880702F02DFE694660
:100470004FF0804002F0BDFD0121880702F042FEEE
:100480000EBD10B50121880703F06BFA58B10121A8
:10049000880703F077FA0121880703F05FFA042147
:1004A000044804F08AFC10BD4FF08040406A704759
:1004B000001000400008024000B589B00121084644
:1004C00003F0C2FC0121480603F0F1FC09220C21D3
:1004D000A64804F076FC09220B21A44804F071FC24
:1004E0004FF4C050009002208DF8040069469F48E8
:1004F00004F0DCFB012300221146142002F0A1FAD3
:100500009B4803F0DFFD06A803F000FF00208DF8F4
:100510001E008DF81F008DF820008DF821008DF849
:10052000220001208DF8230000208DF81A008DF89C
:100530001B0008208DF81C0003208DF81D00ADF86D
:10054000180006A98A4803F0D6FD00208DF8120095
:100550008DF8130001208DF814000020ADF808007C
:10056000ADF80A00ADF80C00ADF80E00ADF81000C3
:1005700001208DF8150002A803F047FE0122022198
:100580007B4804F041F901221146794804F03CF916
:1005900009B000BD10B50121754804F09DF930B1D6
:1005A0000121734804F033FA01207249087010BD2C
:1005B00000B585B002216E4804F08EF900287DD088
:1005C00002216B4804F023FA6A460021684804F0CF
:1005D00000F840F205210098884233D19DF80C00C4
:1005E0009DF80B1040EA012000B26349C8809DF8D5
:1005F0000E109DF80D0041EA002000B25E494881CE
:100600009DF810109DF80F0041EA002000B25A49F1
:1006100088810846C08808810846008900F4805017
:10062000B0F5805F06D10846C088A0F5F850FF38C5
:1006300000B208815048008940F6B831081A00B26B
:100640004D49088140F206210098884233D19DF837
:100650000C009DF80B1040EA012000B24749C88009
:100660009DF80E109DF80D0041EA002000B24349AC
:1006700048819DF810109DF80F0041EA002000B25B
:100680003E4988810846C08808810846008900F4F0
:100690008050B0F5805F06D10846C088A0F5F850BC
:1006A000FF3800B208813548008940F6B831081A91
:1006B00000B2324908813248008800E002E0401C64
:1006C0002F49088005B000BD30B585B004460D4601
:1006D00040F2FF10009000208DF808008DF809000E
:1006E00008208DF80A00200A8DF80B00E1B28DF881
:1006F0000C10290A8DF80D10E9B28DF80E100021AA
:100700008DF80F108DF810108DF811108DF8121053
:100710006946174803F068FE05B030BD00B585B0E6
:1007200040F2FF10009000208DF808008DF80900BD
:1007300008208DF80A0000208DF80B0000218DF8AC
:100740000C108DF80D108DF80E108DF80F108DF81F
:10075000101004218DF8111000218DF81210694637
:10076000034803F041FE05B000BD00000000024058
:10077000006400400A000020C4000020DC000020CB
:100780000800002000B589B00121022003F05CFBC5
:100790000121480603F08BFB0121880603F087FB4B
:1007A00009220D21FB4804F00CFB09220C21F94819
:1007B00004F007FB4FF44050009002208DF8040035
:1007C0006946F44804F072FA012302220021412014
:1007D00002F037F90123002211463F2002F031F9DF
:1007E000ED4803F06FFC06A803F090FD00208DF8A3
:1007F0001E008DF81F008DF820008DF821008DF867
:10080000220001208DF8230000208DF81A008DF8B9
:100810001B0008208DF81C0003208DF81D00ADF88A
:10082000180006A9DC4803F066FC0E208DF81200C3
:1008300000208DF8130001208DF814000020ADF881
:100840000800ADF80A00ADF80C00ADF80E0001206C
:10085000ADF810008DF8150002A803F0D6FC0122B7
:100860001146CD4803F0D0FF01221021CA4803F001
:10087000CBFF09B000BD10B50121C74804F02CF82A
:1008800030B10121C44804F0C2F80120C349087006
:1008900010BD00B585B01021BF4804F01DF8002838
:1008A0006FD01021BC4804F0B2F86A460121BA4862
:1008B00003F08FFE9DF80800002862D19DF8090022
:1008C00000285ED19DF80A0008285AD140F2012183
:1008D0000098884211D19DF80C009DF80B1040EA59
:1008E000012000B2AE4908809DF80E109DF80D0061
:1008F00041EA002000B2AA49488040F20221009853
:10090000884211D19DF80C009DF80B1040EA01209F
:1009100000B2A44908809DF80E109DF80D0041EA30
:10092000002000B29F49488040F20321009888428D
:1009300011D19DF80C009DF80B1040EA012000B287
:10094000994908809DF80E109DF80D0041EA00209D
:1009500000B2954948800098B0F5017F11D19DF80B
:100960000C009DF80B1040EA012000B28F4908806E
:100970009DF80E109DF80D0041EA002000B28B4951
:10098000488005B000BDF0B585B004460D4616465A
:100990001F464FF40070009000208DF808008DF87D
:1009A000090008208DF80A00200A8DF80B00E1B23A
:1009B0008DF80C10290A8DF80D10E9B28DF80E1083
:1009C000310A8DF80F10F1B28DF81010390A8DF838
:1009D0001110F9B28DF8121069466F4803F004FD4A
:1009E00005B0F0BD70B586B004460D460026002067
:1009F0008DF80C008DF80D0008208DF80E00082CE5
:100A00000FD2DFE804F00405060708090A0B00BF4F
:100A100000BF00BF00BF00BF00BF00BF46EA042602
:100A200001E006B070BD00BF102D1BD2DFE805F05D
:100A300008090A0B0C0D0E0F1011121314151617BE
:100A400000BF00BF00BF00BF00BF00BF00BF00BFAE
:100A500000BF00BF00BF00BF00BF00BF00BF46EA2D
:100A6000051600E0DDE700BF019655208DF80F0068
:100A700055218DF810108DF811108DF812108DF889
:100A800013108DF814108DF815108DF81610002025
:100A90004249087001A9404803F0A6FC00BF3F4846
:100AA00000780028FBD000BFBBE7F0B585B0044656
:100AB0000D461746012600208DF808008DF8090024
:100AC00008208DF80A00082C0FD2DFE804F0040596
:100AD000060708090A0B00BF00BF00BF00BF00BF28
:100AE00000BF00BF46EA042601E005B0F0BD00BF2C
:100AF000102D1BD2DFE805F008090A0B0C0D0E0FB4
:100B0000101112131415161700BF00BF00BF00BF4D
:100B100000BF00BF00BF00BF00BF00BF00BF00BFDD
:100B200000BF00BF00BF46EA051600E0DDE700BFDA
:100B300000968DF80B7055218DF80C108DF80D1066
:100B40008DF80E108DF80F108DF810108DF8111013
:100B50008DF8121000201149087069460E4803F004
:100B600043FC00BF0D4800780028FBD000BFBCE765
:100B7000F0B585B005460E461446022700208DF8D4
:100B800008008DF8090008208DF80A00082D1FD2F2
:100B90000EE0000000040240006800400B0000204E
:100BA000180000202C0000204000002054000020ED
:100BB000DFE805F00405060708090A0B00BF00BFBF
:100BC00000BF00BF00BF00BF00BF47EA052701E02C
:100BD00005B0F0BD00BF102E1BD2DFE806F00809FB
:100BE0000A0B0C0D0E0F101112131415161700BF5F
:100BF00000BF00BF00BF00BF00BF00BF00BF00BFFD
:100C000000BF00BF00BF00BF00BF00BF47EA06171C
:100C100000E0DDE700BF009741F28830844201DD4B
:100C2000044603E0F948844200DA0446200A8DF8BD
:100C30000B00E1B28DF80C1055218DF80D108DF8D8
:100C40000E108DF80F108DF810108DF811108DF812
:100C500012100020EE4908706946EE4803F0C4FB0C
:100C600000BFEB4800780028FBD000BFB0E72DE9BB
:100C7000F04186B006460F4614461D464FF0030865
:100C800000208DF80C008DF80D0008208DF80E0066
:100C9000082E0FD2DFE806F00405060708090A0B44
:100CA00000BF00BF00BF00BF00BF00BF00BF48EAD9
:100CB000062802E006B0BDE8F08100BF102F1BD26D
:100CC000DFE807F008090A0B0C0D0E0F10111213C4
:100CD0001415161700BF00BF00BF00BF00BF00BF44
:100CE00000BF00BF00BF00BF00BF00BF00BF00BF0C
:100CF00000BF48EA071800E0DCE700BFCDF8048039
:100D000041F28830844201DD044603E0BF4884425A
:100D100000DA0446002C04DA01DD204600E06042DF
:100D200004B2B5F5FA6F02DD4FF4FA6503E015F58C
:100D3000FA6F00DAB84D200A8DF80F008DF81040D8
:100D4000290A8DF811108DF8125055218DF81310C5
:100D50008DF814108DF815108DF816100020AC4980
:100D6000087001A9AB4803F03FFB00BFA84800781A
:100D70000028FBD000BF9DE72DE9F04186B0054675
:100D80000E4614461F464FF0040800208DF80C0054
:100D90008DF80D0008208DF80E00082D0FD2DFE829
:100DA00005F00405060708090A0B00BF00BF00BFD5
:100DB00000BF00BF00BF00BF48EA052802E006B040
:100DC000BDE8F08100BF102E1BD2DFE806F0080955
:100DD0000A0B0C0D0E0F101112131415161700BF6D
:100DE00000BF00BF00BF00BF00BF00BF00BF00BF0B
:100DF00000BF00BF00BF00BF00BF00BF48EA061829
:100E000000E0DCE700BFCDF8048041F28830844286
:100E100001DD044603E07D48844200DA0446002CEC
:100E200004DA01DD204600E0604204B2200A8DF8B9
:100E30000F008DF81040390A8DF811108DF81270DE
:100E400055218DF813108DF814108DF815108DF8AC
:100E5000161000206E49087001A96E4803F0C4FA0C
:100E600000BF6B4800780028FBD000BFA7E72DE942
:100E7000F04186B006460F4614461D464FF0050861
:100E800000208DF80C008DF80D0008208DF80E0064
:100E9000082E0FD2DFE806F00405060708090A0B42
:100EA00000BF00BF00BF00BF00BF00BF00BF48EAD7
:100EB000062802E006B0BDE8F08100BF102F1BD26B
:100EC000DFE807F008090A0B0C0D0E0F10111213C2
:100ED0001415161700BF00BF00BF00BF00BF00BF42
:100EE00000BF00BF00BF00BF00BF00BF00BF00BF0A
:100EF00000BF48EA071800E0DCE700BFCDF8048037
:100F000041F28830844201DD044603E03F488442D8
:100F100000DA0446002C04DA01DD204600E06042DD
:100F200004B2200A8DF80F008DF8104055218DF87D
:100F300011108DF81210290E8DF81310290C8DF850
:100F40001410290A8DF815108DF81650002030491C
:100F5000087001A92F4803F047FA00BF2C48007819
:100F60000028FBD000BFA5E72DE9F04385B0064679
:100F70000F4614461D46DDF830804FF0060900206C
:100F80008DF808008DF8090008208DF80A00082E59
:100F90000FD2DFE806F00405060708090A0B00BFB8
:100FA00000BF00BF00BF00BF00BF00BF49EA062965
:100FB00002E005B0BDE8F08300BF102F1BD2DFE8D0
:100FC00007F008090A0B0C0D0E0F1011121314155F
:100FD000161700BF00BF00BF00BF00BF00BF00BFAB
:100FE00000BF00BF00BF00BF00BF00BF00BF00BF09
:100FF00049EA071900E0DCE700BFCDF8009041F2B4
:10100000883084420ADD04460CE0000078ECFFFFE3
:101010000B0000200068004030F8FFFFFC488442CD
:1010200000DA0446002C04DA01DD204600E06042CC
:1010300004B2002D04DA01DD284600E0684205B262
:10104000200A8DF80B00E1B28DF80C10290A8DF8FA
:101050000D10E9B28DF80E104FEA18618DF80F10DF
:101060004FEA18418DF810104FEA18218DF8111031
:1010700008F0FF018DF812100020E649087069465B
:10108000E54803F0B1F900BFE24800780028FBD042
:1010900000BF8EE72DE9F04186B005460E461446A6
:1010A0001F464FF0070800208DF80C008DF80D004A
:1010B00008208DF80E00082D0FD2DFE805F004059A
:1010C000060708090A0B00BF00BF00BF00BF00BF32
:1010D00000BF00BF48EA052802E006B0BDE8F08185
:1010E00000BF102E1BD2DFE806F008090A0B0C0D1A
:1010F0000E0F101112131415161700BF00BF00BFFA
:1011000000BF00BF00BF00BF00BF00BF00BF00BFE7
:1011100000BF00BF00BF00BF48EA061800E0DCE7E0
:1011200000BFCDF80480B4F5FA6F02DD4FF4FA6425
:1011300003E014F5FA6F00DAB84C002C04DA01DD94
:10114000204600E0604204B2200A8DF80F008DF8BE
:101150001040390A8DF811108DF8127055218DF854
:1011600013108DF814108DF815108DF8161000203E
:10117000A849087001A9A84803F036F900BFA5489E
:1011800000780028FBD000BFA7E72DE9F04186B02A
:1011900007460E4614461D464FF0080800208DF8FD
:1011A0000C008DF80D0008208DF80E00082F0FD2CE
:1011B000DFE807F00405060708090A0B00BF00BFB7
:1011C00000BF00BF00BF00BF00BF48EA072802E021
:1011D00006B0BDE8F08100BF102E1BD2DFE806F09C
:1011E00008090A0B0C0D0E0F101112131415161707
:1011F00000BF00BF00BF00BF00BF00BF00BF00BFF7
:1012000000BF00BF00BF00BF00BF00BF00BF48EA73
:10121000061800E0DCE700BFCDF80480B4F5FA6FF3
:1012200002DD4FF4FA6403E014F5FA6F00DA7B4C48
:10123000002C04DA01DD204600E0604204B2200AFE
:101240008DF80F008DF8104055218DF811108DF894
:101250001210290E8DF81310290C8DF81410290A7C
:101260008DF815108DF8165000206A49087001A9F4
:10127000694803F0B9F800BF664800780028FBD041
:1012800000BFA5E72DE9F04385B005460E4614469C
:1012900098460C9F4FF0090900208DF808008DF842
:1012A000090008208DF80A00082D0FD2DFE805F0AC
:1012B0000405060708090A0B00BF00BF00BF00BFF6
:1012C00000BF00BF00BF49EA052902E005B0BDE844
:1012D000F08300BF102E1BD2DFE806F008090A0BCE
:1012E0000C0D0E0F101112131415161700BF00BFAE
:1012F00000BF00BF00BF00BF00BF00BF00BF00BFF6
:1013000000BF00BF00BF00BF00BF49EA061900E0F0
:10131000DCE700BFCDF80090B4F5FA6F02DD4FF4C2
:10132000FA6403E014F5FA6F00DA3C4C002C04DA9E
:1013300001DD204600E0604204B2200A8DF80B0077
:10134000E1B28DF80C104FEA18218DF80D1008F05D
:10135000FF018DF80E10390E8DF80F10390C8DF835
:101360001010390A8DF81110F9B28DF81210002002
:10137000284908706946284803F036F800BF254818
:1013800000780028FBD000BFA0E72DE9F04186B02F
:1013900004460D4690461E460A2700208DF80C0094
:1013A0008DF80D0008208DF80E00082C0FD2DFE814
:1013B00004F00405060708090A0B00BF00BF00BFC0
:1013C00000BF00BF00BF00BF47EA042702E006B02D
:1013D000BDE8F08100BF102D22D2DFE805F0210822
:1013E000090A0B0C0D0E0F1011121314151600BF65
:1013F00000BF00BF00BF00BF00BF00BF00BF00BFF5
:1014000000BF00BF00BF00BF00BF47EA051708E0EC
:1014100078ECFFFF0B0000200068004030F8FFFF71
:10142000D5E700BF16B1012E00D0002601978DF838
:101430000F808DF8106055218DF811108DF8121065
:101440008DF813108DF814108DF815108DF81610F6
:1014500000203749087001A9364802F0C5FF00BFD7
:10146000334800780028FBD000BFB0E770B586B0E5
:1014700004460D460F2600208DF80C008DF80D0057
:1014800008208DF80E00082C0FD2DFE804F00405C8
:10149000060708090A0B00BF00BF00BF00BF00BF5E
:1014A00000BF00BF46EA042601E006B070BD00BFE1
:1014B000102D1AD2DFE805F01908090A0B0C0D0EE1
:1014C0000F1011121314151600BF00BF00BF00BF8C
:1014D00000BF00BF00BF00BF00BF00BF00BF00BF14
:1014E00000BF00BF46EA051600E0DEE700BF019638
:1014F00055208DF80F0055218DF810108DF8111022
:101500008DF812108DF813108DF814108DF8151039
:101510008DF8161000200649087001A9054802F050
:1015200063FF00BF024800780028FBD000BFBCE783
:101530000B0000200068004000B595B00121424832
:1015400002F082FC0121480402F0B1FC07220321D1
:101550003E4803F036FC08200F9002208DF8400032
:1015600000208DF8420003208DF8410000208DF806
:1015700043000FA9354803F099FB354803F02AFED4
:10158000344811900020ADF84800ADF84A004FF4FF
:101590008060ADF84C000420ADF84E000020ADF89E
:1015A000500011A92A4803F063FE0121284803F0E6
:1015B000E7FE01224021264803F08FFF012302228B
:1015C00000210C2001F03DFA234803F02FFC4FF0DE
:1015D000006000901E48001D0190204802900020ED
:1015E000039012200490002005904FF48060069034
:1015F0000020079008904FF4807009904FF440301D
:101600000A9000200B900C900D900E9069461248A5
:1016100003F0AEFC012210210F4803F070FD012100
:101620000D4803F0DFFC15B000BD10B50C490A48A9
:1016300003F082FD38B10B49074803F04CFD08491F
:10164000054803F0A3FD10BD01002000000002408A
:1016500000440040A086010088600240D0010020C4
:10166000008800200008002000B595B001216848DE
:1016700002F0EAFB0121880402F019FC07220A218A
:10168000644803F09EFB07220B21624803F099FB9C
:101690004FF440600F9002208DF8400000208DF83C
:1016A000420003208DF8410000208DF843000FA96F
:1016B000584803F0FBFA4FF4165011900020ADF893
:1016C0004800ADF84A00ADF84C000C20ADF84E00D3
:1016D0000020ADF8500011A94F4803F0C9FD0121C9
:1016E0004D4803F04DFE012240214B4803F0F5FE2A
:1016F000012303221146272001F0A3F9012302222E
:1017000000210C2001F09DF9444803F08FFB4FF0BD
:10171000006000904048001D019041480290002068
:10172000039006200490002005904FF480600690FE
:101730000020079008904FF4807009904FF44030DB
:101740000A9000200B900C900D900E906946334843
:1017500003F00EFC01221021304803F0D0FC0121DF
:101760002E4803F03FFC15B000BD10B52D492B48A5
:1017700003F0E2FC88B12C49284803F0ACFC29496D
:10178000264803F003FD2649284801F0E1FA2848DD
:101790000068012801D101F005FA10BD10B504461A
:1017A00000BF40211C4803F0C6FE0028F9D02146A6
:1017B000194803F010FE10BD10B5044603E0207870
:1017C000FFF7ECFF641C20780028F8D110BD70B53D
:1017D00004460D4600BF40210F4803F0ACFE002830
:1017E000F9D0E1B20C4803F0F6FD204670BD10B50B
:1017F0001048006818B910A006F0E0FF06E00D4898
:101800000068012802D10EA006F0D8FF10BD00002C
:10181000020020000004024000480040286002400E
:101820000C000020008800100008001014010020A7
:1018300004010020100100207265640A000000000D
:10184000626C75650A00000002780A708278D20026
:10185000038842EA23224A7002799201438842EACD
:1018600063128A700279CA7082795200838842EAD0
:10187000A3220A71427A9201037A42EA0312C388D0
:1018800042EAE3124A71827A8A714289120ACA7163
:10189000027B0A728289120A4A72827B8A72C28928
:1018A000120ACA72027C0A73427C4A73827C8A736F
:1018B000428A1212CA73027D0A74828A12124A7410
:1018C00070470A784B7842EA0322C2F30A02028088
:1018D0004A78D2108B7842EA4312C2F30A0242805D
:1018E0008A789211CB7842EA83020B7942EA83220A
:1018F000C2F30A0282800A7952104B7942EAC3127B
:10190000C2F30A02C2804A791211920802724A791D
:10191000C2F3011242728A79CB7942EA032212B2EF
:1019200042810A7A4B7A42EA032213B283818A7A8D
:10193000CB7A42EA032213B2C3810B7B03744B7B45
:1019400043748A7BCB7B42EA032242820A7C4B7C33
:1019500042EA0322828270470FB49DF8080028B142
:101960009DF8090010B1012004B070470020FBE78A
:1019700000B595B00121604802F066FA01211020FF
:1019800002F0A6FA072211465C4803F01AFA8020FA
:101990000F9002208DF8400000208DF842000320B7
:1019A0008DF8410000208DF843000FA9534803F043
:1019B0007DF9534803F00EFC524811900020ADF819
:1019C0004800ADF84A004FF48060ADF84C000420A8
:1019D000ADF84E000020ADF8500011A9484803F0C2
:1019E00047FC0121464803F0CBFC0122402144483A
:1019F00003F073FD01231A460021442001F021F871
:101A0000414803F013FA4FF0006000903C48001D7D
:101A100001903E4802900020039012200490002084
:101A200005904FF4806006900020079008904FF4D6
:101A3000807009904FF440300A9000200B900C9079
:101A40000D900E906946304803F092FA0122102161
:101A50002D4803F054FB01212B4803F0C3FA15B0C5
:101A600000BD10B52A49284803F066FB002842D083
:101A70002849254803F02FFB2549234803F086FB1E
:101A800022492548FFF71DFF2349488A01F05AF8EB
:101A90002248006838B9204BDA88B3F90C10B3F942
:101AA0000A0000F0D5FE1D480068012823D11A481D
:101AB000B0F90C00032805DD1948C0890F3800B2C1
:101AC0001749C8811448B0F90C0010F1030F05DA6A
:101AD0001348C0890F3000B21149C8810E48C08830
:101AE000A0F58060212190FBF1F00D49C9890844DF
:101AF00000B20B49C88110BD020040000004024042
:101B000000100140A086010088640240E20100202C
:101B10000088002000080020F401002004010020BB
:101B2000DC00002010B52DED048BB0EE408AF0EE05
:101B3000608AB0EE419AF0EE619AB3EE030A28EEA5
:101B4000000ABDEEC00A10EE100A00B2F849C880C3
:101B5000B1EE680AF3EE030A20EE200ABDEEC00AD9
:101B600010EE100A00B2F349C880B3EE030A29EE62
:101B7000000ABDEEC00A10EE100A00B2EE49C8809D
:101B8000B1EE690AF3EE030A20EE200ABDEEC00AA8
:101B900010EE100A00B2E949C880E548B0F9060025
:101BA00001EE100AB8EEC11AF0EE410AE048B0F9B1
:101BB000020001EE100AB8EEC11AB0EE410A00F0C0
:101BC0002BFCDB4880ED030ADA48B0F9060001EE91
:101BD000100AB8EEC11AF0EE410AD648B0F9020078
:101BE00001EE100AB8EEC11AB0EE410A00F014FC82
:101BF000D04880ED030AD048B0F9060001EE100A83
:101C0000B8EEC11AF0EE410ACB48B0F9020001EE7D
:101C1000100AB8EEC11AB0EE410A00F0FDFBC6484A
:101C200080ED030AC548B0F9060001EE100AB8EECF
:101C3000C11AF0EE410AC148B0F9020001EE100AE3
:101C4000B8EEC11AB0EE410A00F0E6FBBB4880EDE9
:101C5000030A044694ED030ABDEEC00A10EE104AD2
:101C600023B2B54C94ED030ABDEEC00A10EE104A43
:101C700022B2B04C94ED030ABDEEC00A10EE104A39
:101C800021B2AB4C94ED030ABDEEC00A10EE104A2F
:101C900020B2FEF778FEBDEC048B10BD10B52DED23
:101CA000048BB0EE408AF0EE608AB0EE419AF0EE1E
:101CB000619ABDEEC80A10EE100A00B29C498880F5
:101CC0009FED9F0A30EE680ABDEEC00A10EE100AC2
:101CD00000B298498880BDEEC90A10EE100A00B221
:101CE000954988809FED960A30EE690ABDEEC00ADC
:101CF00010EE100A00B2914988808D48B0F90400B6
:101D000001EE100AB8EEC11AF0EE410A8848B0F9A7
:101D1000000001EE100AB8EEC11AB0EE410A00F060
:101D200012FC834880ED020A90ED021AF0EE410A9F
:101D3000B0F9020001EE100AB8EEC11AB0EE410A85
:101D400000F06AFB7A4880ED030A7A48B0F9040093
:101D500001EE100AB8EEC11AF0EE410A7548B0F96A
:101D6000000001EE100AB8EEC11AB0EE410A00F010
:101D7000EAFB704880ED020A90ED021AF0EE410A8B
:101D8000B0F9020001EE100AB8EEC11AB0EE410A35
:101D900000F042FB674880ED030A6748B0F9040091
:101DA00001EE100AB8EEC11AF0EE410A6248B0F92D
:101DB000000001EE100AB8EEC11AB0EE410A00F0C0
:101DC000C2FB5D4880ED020A90ED021AF0EE410A76
:101DD000B0F9020001EE100AB8EEC11AB0EE410AE5
:101DE00000F01AFB544880ED030A5448B0F904008F
:101DF00001EE100AB8EEC11AF0EE410A4F48B0F9F0
:101E0000000001EE100AB8EEC11AB0EE410A00F06F
:101E10009AFB4A4880ED020A90ED021AF0EE410A60
:101E2000B0F9020001EE100AB8EEC11AB0EE410A94
:101E300000F0F2FA414880ED030A044694ED030AEB
:101E4000BDEEC00A10EE104A23B23B4C94ED030ADB
:101E5000BDEEC00A10EE104A22B2364C94ED030AD1
:101E6000BDEEC00A10EE104A21B2314C94ED030AC7
:101E7000BDEEC00A10EE104A20B2FEF784FDBDECA4
:101E8000048B10BD2DE9FF5F06460C461546002C5D
:101E900001DD204600E06042002D01DD294600E022
:101EA0006942884205DD002C01DD204606E06042E3
:101EB00004E0002D01DD284600E06842002E01DD2F
:101EC000314600E07142884205DA002E01DD3046DD
:101ED00018E0704216E0002C01DD204600E0604270
:101EE000002D01DD294600E06942884205DD002C15
:101EF00001DD204606E0604204E0002D01DD2846B9
:101F000000E06842039948434FF4257190FBF1FBD0
:101F1000002E01DD304600E07042002C01DD21463C
:101F200000E061420144002D0CDD28460BE000007A
:101F3000180000202C000020400000205400002049
:101F400000F8FF45684201EB000A0027B846B94691
:101F5000BAF1000F0BD004FB0BF090FBFAF706FB75
:101F60000BF090FBFAF805FB0BF090FBFAF907EB8E
:101F70000800A0EB090002EE100AB8EEC22AF0EE4B
:101F8000421AA7EB0800484402EE100AB8EEC22A33
:101F9000B0EE421AA7EB0800A0EB090002EE100A0F
:101FA000B8EEC22AF0EE420A07EB0800484402EEFF
:101FB000100AB8EEC22AB0EE420AFFF7B3FDBDE840
:101FC000FF9F2DE9FE4F06460F4690461D460C9C8E
:101FD00004F01000029004F0200904F0010A04F05B
:101FE0000400019004F0020B04F008000090029835
:101FF00008B101200290B9F1000F01D04FF00109A2
:10200000BAF1000F01D04FF0010A019808B1012088
:102010000190BBF1000F01D04FF0010B009808B107
:1020200001200090B42021490860012D02D1E62052
:1020300008600AE0032D03D1B4201C49086004E0C5
:10204000022D02D1322019490860B9F1010F02D1E5
:102050003220164908600298012802D1E62013496F
:102060000860A8F58063DDF834C0CCEB0C1C03EBF2
:102070004C02A7F58063AAEB0B0C0CEB4C1C0CEB91
:102080008C0C03EB8C01A6F58063DDE900CEACEB94
:102090000E0C0CEB4C1C0CEB8C0C03EB8C00034B70
:1020A0001B68FFF7EFFEBDE8FE8F00001400002064
:1020B00010B52DED068BB0EE408AF0EE608AB3EEDF
:1020C000040AB0EE40AA9FEDFE0AF0EE40AAB5EE7B
:1020D000C08AF1EE10FA02DDB0EE480A01E0B1EE7E
:1020E000480A10EE101A084606F0A8F941EC190B40
:1020F0009FEDF40B53EC102B06F0B4F903D29FEDD7
:10210000F00AB0EE408AF14890ED010A80ED000A35
:1021100038EEC80A80ED010A90ED010AD0ED000A00
:1021200030EE600ADFEDE60A20EE200AD0ED010A6B
:10213000B3EE041A00EE810AE54880ED000A00685B
:1021400006F07CF941EC190B9FEDE20B53EC102BE0
:1021500006F0A0F904D29FEDE10ADD4880ED000A07
:10216000DB48006806F06AF941EC190B9FEDDC0BC7
:1021700053EC102B06F076F904D29FEDDB0AD4481D
:1021800080ED000AD24890ED000AB1EE400ABDECA5
:10219000068B10BD10B52DED088BB0EE408AF0EE29
:1021A000608AB7EE000AB0EE40AA9FEDC50AF0EED5
:1021B00040AAB7EE000AB0EE40BACC4890ED010A52
:1021C00080ED000A38EEC80A80ED010A90ED010AA0
:1021D000C748D0ED000A30EE200A80ED000AC3485F
:1021E00090ED010AF7EE000A20EE200AC048D0ED7B
:1021F000000A9FEDB31A00EE810ABC48D0ED010A37
:1022000090ED001A70EEC10AB7EE001A00EE810AD6
:10221000B84880ED000A006806F010F941EC190B8F
:102220009FEDAC0B53EC102B06F034F904D29FED6C
:10223000AB0AB04880ED000AAE48006806F0FEF830
:1022400041EC190B9FEDA60B53EC102B06F00AF98D
:1022500004D29FEDA50AA74880ED000AA54890ED9D
:10226000000AB1EE400ABDEC088B10BD10B52DED93
:10227000068BB0EE408AF0EE608AB3EE040AB0EE50
:1022800040AA9FED8F0AF0EE40AAB5EEC08AF1EEAB
:1022900010FA02DDB0EE480A01E0B1EE480A10EE95
:1022A000101A084606F0CAF841EC190B9FED850B91
:1022B00053EC102B06F0D6F803D29FED810AB0EE56
:1022C000408A8D4890ED010A80ED000A38EEC80A78
:1022D00080ED010A90ED010AD0ED000A30EE600AAF
:1022E000DFED770A20EE200AD0ED010AB3EE041AE2
:1022F00000EE810A814880ED000A006806F09EF831
:1023000041EC190B9FED730B53EC102B06F0C2F848
:1023100004D29FED720A794880ED000A7748006880
:1023200006F08CF841EC190B9FED6D0B53EC102B64
:1023300006F098F804D29FED6C0A704880ED000A10
:102340006E4890ED000AB1EE400ABDEC068B10BD60
:1023500010B52DED088BB0EE408AF0EE608AB0EE3D
:10236000000AB0EE40AA9FED560AF0EE40AA9FED9B
:10237000640AB0EE40BA634890ED010A80ED000AAD
:1023800090ED020A80ED010A38EEC80A80ED020ADB
:1023900090ED020AF0EE000A20EE200AD0ED020ACB
:1023A0009FED471A00EE810AD0ED020A90ED011A66
:1023B00070EEC10A9FED521A00EE810A524880ED7C
:1023C000000A006806F03AF841EC190B9FED410B4A
:1023D00053EC102B06F05EF804D29FED400A4A48F9
:1023E00080ED000A4848006806F028F841EC190B17
:1023F0009FED3B0B53EC102B06F034F804D29FED0D
:102400003A0A414880ED000A3F4890ED000AB1EEDB
:10241000400ABDEC088B10BD10B52DED088BB0EE59
:10242000408AF0EE608AB2EE040AB0EE40AA9FED58
:10243000240AF0EE40AAB6EE000AB0EE40BA3348E5
:1024400090ED010A80ED000A38EEC80A80ED010A1D
:1024500090ED010A2E48D0ED000A30EE200A80ED02
:10246000000A2A4890ED010AF2EE040A20EE200A42
:102470002748D0ED000A9FED121A00EE810A23488A
:10248000D0ED010A90ED001A70EEC10AB6EE001A06
:1024900000EE810A1F4880ED000A006805F0CEFFBB
:1024A00041EC190B9FED0B0B53EC102B05F0F2FFD9
:1024B00004D29FED0A0A174880ED000A15482BE068
:1024C0000000000000000000000000006800002084
:1024D00070000020000000000070A74000803B4515
:1024E000000000000070A7C000803BC57400002001
:1024F000800000207C000020840000208C00002050
:10250000CDCCCC3D0C020020900000209400002097
:10251000A00000209C000020006805F08FFF41EC27
:10252000190B1FED110B53EC102B05F09BFF04D280
:102530001FED130A6B4880ED000A6A4890ED000A0F
:10254000BDEC088B10BD10B52DED088BB0EE408AA8
:10255000F0EE608AB2EE040AB0EE40AA1FED280A3F
:10256000F0EE40AA1FED2A0AB0EE40BA5E4890EDA8
:10257000010A80ED000A38EEC80A80ED010A90EDEC
:10258000010A5A48D0ED000A30EE200A80ED000A18
:10259000554890ED010AF2EE040A20EE200A534855
:1025A000D0ED000A1FED3A1A00EE810A4E48D0ED38
:1025B000010A90ED001A70EEC10A1FED3F1A00EEFD
:1025C000810A4B4880ED000A006805F037FF41ECB6
:1025D000190B1FED400B53EC102B05F05BFF04D2E1
:1025E0001FED420A424880ED000A4148006805F0AC
:1025F00025FF41EC190B1FED460B53EC102B05F09A
:1026000031FF04D21FED480A394880ED000A3848EE
:1026100090ED000ABDEC088B10BD10B52DED088BB8
:10262000B0EE408AF0EE608A9FED320AB0EE40AA2A
:102630001FED5D0AF0EE40AAB2EE040AB0EE40BA19
:102640002D4890ED010A80ED000A38EEC80A80EDB1
:10265000010A90ED010A2948D0ED000A30EE200A67
:1026600080ED000A244890ED010ADFED220A20EEF9
:10267000200A2248D0ED000A1FED6F1A00EE810AF1
:102680001D48D0ED010A90ED001A70EEC10AB2EEBD
:10269000041A00EE810A1A4880ED000A006805F06D
:1026A000CDFE41EC190B1FED750B53EC102B05F013
:1026B000F1FE04D21FED770A114880ED000A1048A0
:1026C00090ED000AB5EEC00AF1EE10FA03D21FED4C
:1026D000840A80ED000A0A4890ED000ABDEC088BE0
:1026E00010BD00009C000020A4000020B0000020CD
:1026F000AC00002000009643B4000020C000002081
:10270000BC00002010B5002403F026F84FF4A060B0
:1027100000F052FBFDF770FD00F0A8F9FFF728F973
:10272000FEF7A2FFFDF78FFEFDF752FEFDF7C4FE98
:10273000FEF728F800F0B8F900F0E3F94FF4FA706A
:10274000FDF77AFD0BE0641C0A2C08DD06E002218F
:102750000D4802F032FB3220FDF76EFDF7E703F083
:10276000A7F8FF28EFD003F013F9FF28EBD003F010
:10277000BDFB03F08FFEFDF77BFDFDF744FE4FF43C
:10278000FA70FDF759FD10BD0008024010B557481A
:10279000B0F90E0001EE100AB8EEC11AF0EE410ACF
:1027A0005248B0F9080001EE100AB8EEC11AB0EEB6
:1027B000410AFFF7CDFD4D4880ED040A90ED041A63
:1027C000F0EE410A4A4890ED061AB1EE411AB0EE19
:1027D000410AFFF74BFD454880ED050A4548B0F931
:1027E0000E0001EE100AB8EEC11AF0EE410A41489F
:1027F000B0F9080001EE100AB8EEC11AB0EE410AB5
:10280000FFF7C8FC3B4880ED040A90ED041AF0EE97
:10281000410A374890ED051AB1EE411AB0EE410A6F
:10282000FFF746FC334880ED050A024692ED050AA3
:10283000BDEEC00A10EE102A11B22C4A92ED050A24
:10284000BDEEC00A10EE102A10B2FDF73DFF10BD1C
:1028500010B5264BB3F90E30244CB4F90040A34216
:1028600003DA224B1B88214CE381204BB3F90E3055
:102870001E4CB4F90240A34203DD1C4B5B881B4C89
:10288000E381032905DD1B4BDB890F3B1BB2194C90
:10289000E38111F1030F05DA164BDB890F331BB20D
:1028A000144CE381A2F58063212493FBF4F3114CD3
:1028B000E48923441BB20F4CE3812346B3F90E3065
:1028C000B4F90040A34203DA0A4B1B88094CE381A8
:1028D000084BB3F90E30074CB4F90240A34203DDB4
:1028E000044B5B88034CE38110BD0000C400002052
:1028F00028020020DC00002010B52DED028BB0EE88
:10290000408A00F004F900EE100AB8EEC00AF0EEBA
:10291000408AF0EE480AFFF780FEBDEEC00A10EED6
:10292000104A2046FDF73BFDBDEC028B10BD70B593
:1029300005460C463B48006801281AD1012D03D1F9
:1029400039480078A84205D1012C12D137480078C7
:10295000A0420ED04FF47A7035490860091D086016
:102960000020304908604FF48071324802F01CFAB0
:102970001BE02C480068C0B9012D03D12A4800781B
:10298000A84205D1012C10D128480078A0420CD0D3
:102990004FF4AF6026490860091D086001202149F5
:1029A00008600102234802F0FDF91F4805701F4826
:1029B000047070BD70B52DED028B04460D460020ED
:1029C0001D49086017480068012806D1022C01D073
:1029D000012D02D10120184908601748006801281C
:1029E00011D100F094F808EE100AF2EE0A0AB8EEDF
:1029F000C80AFFF712FEBDEEC00A10EE106A30469C
:102A0000FDF7CDFC05E00C48006810B900200B492B
:102A100048631420FDF710FC03480470BDEC028BE2
:102A200070BD0000F8000020F4000020F500002038
:102A3000340C004000000240FC0000200040014037
:102A40007047F8B507460C4615461E46F8B28DF895
:102A50000000E0B28DF80100E8B28DF802008DF8B8
:102A60000360684600F0ADF9F8BD00001CB5012117
:102A7000084601F0E9F94FF48070009001208DF8CC
:102A8000040000208DF8060003208DF8050069463B
:102A9000044802F00BF94FF48071024802F084F907
:102AA0001CBD0000000002401CB50121022001F005
:102AB000CBF90121022001F0FAF930200090032027
:102AC0008DF8050002208DF8040001208DF8070024
:102AD0006946194802F0EAF802220521164802F078
:102AE00070F902220421144802F06BF902231A46FD
:102AF0000321124800F0F1FF0121104800F002FB11
:102B00001CBD47F6FF700D49243108607047002155
:102B10000A4824300068A0F5FE41FF3947F6FF70EF
:102B2000064A2432106006480078012801D1084680
:102B300070474842FCE700000004024000040040E7
:102B40000001002010B5014601F0400001F08002B4
:102B500000B1012002B101228D4B1B688BB9012805
:102B60000FD18C4B1B68C3F101038A4C23602346B1
:102B70001B6833B94FF42F63874CE3819623874C4E
:102B8000E381834B1B6843B9012806D14FF42F63BF
:102B9000814CE3819623814CE3817D4B1860804B0F
:102BA0001A6010BD10B52DED0A8B7E4890ED000A1D
:102BB000B8EEC00A10EE101A084605F03FFC41ECD2
:102BC0001C0B9FED790B53EC102B05F098FB41EC9F
:102BD0001B0B9FED770B53EC102B05F01EFB41EC0C
:102BE000190B6E49B1F90E0005F0F8FB41EC1A0B18
:102BF00053EC192B05F06AFA41EC180B05F0FFFBBA
:102C000000B26649C8810846B0F90E00B1F900105B
:102C1000884203DA614800886049C8815F48B0F99A
:102C20000E005E49B1F90210884203DD5B4840881E
:102C30005A49C8815B4890ED010AB8EEC00A10EE0F
:102C4000101A084605F0FAFB41EC1C0B9FED560BE1
:102C500053EC102B05F053FB41EC1B0B9FED540B79
:102C600053EC102B05F0D9FA41EC190B4A49B1F994
:102C70000E0005F0B3FB41EC1A0B53EC192B05F0D9
:102C800025FA41EC180B05F0BAFB00B24249C881A5
:102C90000846B0F90E00B1F90010884203DA3E4848
:102CA00000883D49C8813C48B0F90E003A49B1F965
:102CB0000210884203DD384840883749C881BDEC9E
:102CC0000A8B10BD10B50268002A01DD012200E068
:102CD000002230320A700268002A01DD026801E039
:102CE000026852420A2392FBF3F230324A700268C1
:102CF000002A01DD026801E0026852420A2392FBC9
:102D0000F3F403FB142230328A704268002A01DD9A
:102D1000012200E000223032CA704268002A01DD40
:102D2000426801E0426852420A2392FBF3F23032D9
:102D30000A714268002A01DD426801E0426852429D
:102D40000A2392FBF3F403FB142230324A7110BDC4
:102D50008A78303A4B78303B03EB830302EB430332
:102D60000A78303A5200521E13FB02F202604A798E
:102D7000303A0B79303B03EB830302EB4303CA7811
:102D8000303A5200521E13FB02F2426070470000BC
:102D90000801002004010020C4000020DC00002005
:102DA0000C0100201401002000000000008076408B
:102DB000000000000000C04032490143324A116067
:102DC000704770B5002100230F22C4781CB32E4C2D
:102DD000246804F4E064C4F5E064C4F30721C1F19D
:102DE0000404E3B20A4144789C40E1B28478144080
:102DF00021430C07210E254C05786155047804F019
:102E00001F050124AC4005786D11AD0005F1E025EA
:102E1000C5F8004109E0047804F01F050124AC4026
:102E20001B4D0678761145F8264070BD194A0A40B8
:102E30000243154B1B1F1A60704739B1124A121D0D
:102E400012680243104B1B1D1A6006E00E4A121D49
:102E5000126882430C4B1B1D1A607047042808D16E
:102E60004FF0E021096941F004014FF0E0221161C7
:102E700007E04FF0E021096921F004014FF0E02262
:102E8000116170470000FA050CED00E000E400E07D
:102E900080E100E080FFFF1F10B50446FE48844239
:102EA00008D10121084601F07BF80021012001F042
:102EB00077F89DE0B4F1804F08D10121084601F078
:102EC0005EF80021012001F05AF891E0F3488442B5
:102ED00008D10121022001F052F80021022001F066
:102EE0004EF885E0EE48844208D10121042001F02B
:102EF00046F80021042001F042F879E0E9488442D4
:102F000008D10121082001F03AF80021082001F041
:102F100036F86DE0E448844208D10121102001F028
:102F20002EF80021102001F02AF861E0DF488442E9
:102F300008D10121202001F022F80021202001F0F9
:102F40001EF855E0DA48844208D10121022001F040
:102F500027F80021022001F023F849E0D5488442F7
:102F600009D10121080401F01BF800214FF4803041
:102F700001F016F83CE0D048844209D10121480410
:102F800001F00EF800214FF4003001F009F82FE0B5
:102F9000CA48844209D10121880401F001F80021C6
:102FA0004FF4802000F0FCFF22E0C548844208D1A5
:102FB0000121402000F0E3FF0021402000F0DFFF6E
:102FC00016E0C048844208D10121802000F0D7FFDC
:102FD0000021802000F0D3FF0AE0BB48844207D1E3
:102FE0000121801500F0CBFF0021A01500F0C7FFE4
:102FF00010BD00220288A84B98420ED0AC4B9842DC
:103000000BD0B0F1804F08D0A44B984205D0A44B10
:10301000984202D0A34B984204D14FF68F731A40C6
:103020004B881A43A04B984207D0A04B984204D03B
:103030004FF6FF431A400B891A4302804B68C36264
:103040000B880385944B984202D0994B984201D14A
:103050008B7A03860123838270474FF0FF314160F2
:103060000021018001814180817270470185828247
:1030700070470A46002101884FF68F7319401143AB
:103080000180704741627047C16270470146486ADB
:1030900070470146088D704721B1028842F0020254
:1030A000028004E002884FF6FD731A4002807047E8
:1030B00021B1028842F00402028004E002884FF647
:1030C000FB731A400280704721B1028842F08002EF
:1030D000028004E002884FF67F731A400280704736
:1030E00002884FF6F7731A40028002880A43028072
:1030F000704702884FF6FF431A40028002880A4355
:103100000280704721B1028842F00102028004E08F
:1031100002884FF6FE731A400280704770B5002493
:1031200000220023058C4FF6FE7635400584028C84
:103130008388048B4FF68F752C40B51E2C400D886C
:103140002C43751E2A408D892A434D882A43524DAF
:10315000A84202D0564DA84213D14FF6F7752A4027
:10316000CD892A434FF6FB752A408D882A434FF6B6
:10317000FF652B404FF6FF552B400D8A2B434D8AA0
:103180002B43838004838D684563028470BD70B5D2
:10319000002400220023058C4FF6EF76354005848D
:1031A000028C8388048B48F6FF752C404FF6FF4550
:1031B0002C400D884FF6FF7606EA05252C434FF686
:1031C000DF752A408D8906EA05152A434D8806EAEF
:1031D00005152A43304DA84202D0354DA8421DD1D5
:1031E0004FF67F752A40CD894FF6FF7606EA051522
:1031F0002A434FF6BF752A408D8806EA05152A43F3
:103200004FF6FF352B404FF2FF752B400D8A06EA33
:1032100085052B434D8A06EA85052B43838004836D
:103220008D688563028470BD70B500240022002380
:10323000058C4FF6FF6635400584028C8388848BAD
:103240004FF68F752C404FF6FC752C400D882C43A3
:103250004FF6FF552A408D894FF6FF7606EA052581
:103260002A434D8806EA05252A430B4DA84202D081
:103270000F4DA84238D14FF2FF752A40CD894FF645
:10328000FF7606EA05252A434FF6FF352A408D884A
:1032900006EA05252A4319E0000001400004004029
:1032A00000080040000C00400010004000140040E6
:1032B000000401400040014000440140004801403A
:1032C00000180040001C0040002000404EF6FF7532
:1032D0002B404DF6FF752B400D8A06EA05152B4352
:1032E0004D8A06EA05152B43838084838D68C56368
:1032F000028470BD70B5002200230024058C4EF6B8
:10330000FF7635400584038C8488828B48F6FF75F0
:103310002A404FF6FF452A400D884FF6FF7606EA11
:1033200005252A434DF6FF752B408D8906EA0535A4
:103330002B434D8806EA05352B43FE4DA84202D0AB
:10334000FD4DA84208D14BF6FF752C400D8A4FF673
:10335000FF7606EA85152C43848082838D68056498
:10336000038470BD00210180418081808160818162
:10337000C18101824182704770B50346002000245C
:103380001846183001258D40ACB21D8CA5431D8414
:1033900009B108290AD100EB610005684FF68F7664
:1033A000354005600568154305600FE00D1FC5F346
:1033B0004E052844056848F6FF76354005600568E7
:1033C0004FF6FF7606EA02263543056070BD41637D
:1033D000704781637047C1637047016470470A4654
:1033E0000021018B4FF68F73194011430183704701
:1033F0000A460021018B48F6FF7319404FF6FF7310
:1034000003EA02231943018370470A460021818B96
:103410004FF68F7319401143818370470A4600218C
:10342000818B48F6FF7319404FF6FF7303EA0223BE
:103430001943818370470A460021018B4FF6F773C9
:1034400019401143018370470A460021018B4FF256
:10345000FF7319404FF6FF7303EA022319430183F8
:1034600070470A460021818B4FF6F77319401143CC
:10347000818370470A460021818B4FF2FF73194008
:103480004FF6FF7303EA02231943818370470A460C
:103490000021018B4FF6FB731940114301837047E4
:1034A0000A460021018B4FF6FF3319404FF6FF7398
:1034B00003EA02231943018370470A460021818BE6
:1034C0004FF6FB7319401143818370470A46002170
:1034D000818B4FF6FF3319404FF6FF7303EA022347
:1034E0001943818370470A460021018B4FF67F7391
:1034F00019401143018370470A460021018BC1F333
:103500000E014FF6FF7303EA02231943018370474C
:103510000A460021818B4FF67F7319401143818346
:1035200070470A460021818BC1F30E014FF6FF73ED
:1035300003EA02231943818370470A460021018C64
:103540004FF6FD7319401143018470470A4600216C
:10355000018C4FF6F77319401143018470470A46F6
:103560000021018C4FF6DF7319404FF6FF7303EA19
:1035700002131943018470470A460021018C4FF65B
:103580007F7319404FF6FF7303EA02131943018456
:1035900070470A460021018C4FF6FF5319404FF641
:1035A000FF7303EA02231943018470470A4600218E
:1035B000018C4FF2FF7319404FF6FF7303EA0223A9
:1035C0001943018470470A460021018C4DF6FF73B0
:1035D00019404FF6FF7303EA023319430184704721
:1035E00030B5002301248C40A3B2048C9C43048496
:1035F000048C02FA01F5ADB22C43048430BD30B521
:10360000002304248C40A3B2048C9C430484048CC7
:1036100002FA01F5ADB22C43048430BD828B4FF227
:10362000FF331A408283828B4FF6FF7303EA012334
:103630001A4382837047F0B50C46154600210022DC
:103640000026078C4EF6FF7C07EA0C070784818B67
:10365000028C4FF6FF7707EA043640F6FF47394001
:103660004FF6FF7707EA052739434FF6FF7707EA5A
:103670000337394345F6FF773A4046F480573A43DB
:1036800081830284F0BD828B4FF6F3731A408283EC
:10369000828B0A4382837047F0B50C4615460021A1
:1036A00000220026078C4FF6FF6C07EA0C07078400
:1036B000818B028C4FF6FF7707EA04264FF60C77D2
:1036C00039404FF6FF7707EA03172F4339434FF28C
:1036D000FF573A4046F480773A4381830284F0BD35
:1036E000028B4FF2FF331A400283028B4FF6FF73B7
:1036F00003EA01231A4302837047F0B50C461546CE
:10370000002100220026078C4FF6EF7C07EA0C0709
:103710000784018B028C4FF6FF7707EA041640F608
:10372000FF4739404FF6FF7707EA033739434FF633
:10373000FF7703E0000001400004014007EA05278D
:1037400039434FF65F773A4046F010073A4301831A
:103750000284F0BD028B4FF6F3731A400283028B92
:103760000A4302837047F0B50C461546002100223B
:10377000068C4FF6FE773E400684018B028C4FF696
:103780000C7631407E1C06EA03162E4331434FF679
:10379000F576324044F00106324301830284F0BDE5
:1037A00070B505460C46208850B92389A2886188E7
:1037B0002846FFF7D8FFE1882846FFF7CBFF25E032
:1037C000208804280AD12389A28861882846FFF727
:1037D00094FFE1882846FFF783FF17E02088082838
:1037E0000AD12389A28861882846FFF755FFE1881E
:1037F0002846FFF748FF09E02389A2886188284608
:10380000FFF719FFE1882846FFF708FF70BD002188
:1038100001804180012181800021C18001817047A8
:103820002DE9F04105460C4600260127608808B9BD
:10383000022600E00026A088012801D1022700E02E
:1038400001272088A0B92389A28861882846FFF72C
:103850008AFFE1882846FFF77DFF23893A463146F3
:103860002846FFF74AFFE1882846FFF739FF13E0B3
:103870002389A28861882846FFF73FFFE188284610
:10388000FFF72EFF23893A4631462846FFF76BFFA4
:10389000E1882846FFF75EFFBDE8F0810146486BEE
:1038A00070470146886B70470146C86B70470146F8
:1038B000086C70470A884B881A438B881A43CB8858
:1038C0001A430B891A434B891A438B891A43A0F870
:1038D000442070470021018041808180C1800181A6
:1038E00041818181704731B1B0F8442042F40042F7
:1038F000A0F8442005E0B0F84420C2F30E02A0F87E
:103900004420704721B1828842F00402828004E0A2
:1039100082884FF6FB731A408280704721B18288FB
:1039200042F00102828004E082884FF6FE731A4062
:10393000828070471AB183890B43838102E08389B7
:103940008B43838170478182704702460020138A2F
:103950000B400BB1012000E000207047CA430282F7
:10396000704730B50246002000230024158A05EA7E
:103970000103958905EA010413B10CB1012000E0AF
:10398000002030BDCA430282704741EA0203A0F81A
:10399000483070471AB183890B43838102E08389E1
:1039A0008B438381704721B1828842F00802828074
:1039B00004E082884FF6F7731A40828070470189CD
:1039C0004FF6F8721140018170470A4600210189C3
:1039D0004FF68F73194011430181704730B504468B
:1039E0000D4629462046FFF7F0FF208940F00700EA
:1039F000208130BD2DE9F04104460D4616461F4694
:103A0000602D06D13B46012231462046FFF775FE68
:103A100005E03B46012231462046FFF7A4FE294639
:103A20002046FFF7D2FF208940F007002081BDE843
:103A3000F08130B50C4600210189C9B24FF6FF75FF
:103A400005EA0325154325432943018130BD2DE9AE
:103A5000F04105460E4617469846002443463A462E
:103A600031462846FFF7E5FF2C894FF6F8700440F1
:103A700044F007044FF68F70044044F070042C812A
:103A8000BDE8F081F0B504460D4616461F463B469C
:103A9000324629462046FFF7CCFF208940F480407B
:103AA0002081F0BD82884FF68F731A408280828811
:103AB0000A438280704702894FF6F8731A400281E8
:103AC00002890A430281704702894FF67F731A40C8
:103AD000028102890A4302817047F0B50C461546FF
:103AE0001E460021002200230189028B038C4FF621
:103AF000F877394021434FF6FC473A4040F201172E
:103B00003A434FF6DD773B404FF6FF7707EA06175B
:103B10002F433B43018102830384F0BD21B182889E
:103B200042F08002828004E082884FF67F731A4060
:103B300082807047A0F8501070470000FA48006873
:103B400040F00100F84908600020F749083108609A
:103B5000F5480068F5490840F3490860F448091D34
:103B60000860081F006820F48020091F08600020FA
:103B7000ED490C31086070470021EB4A921C11702E
:103B800011460870704710B501460022002300203E
:103B90004A11012A02D1E44C236808E0022A03D129
:103BA000E14C7034236802E0DF4C7434236801F088
:103BB0001F02012494401C400CB1012000E00020B1
:103BC00010BD38B5002000900024002500BF312032
:103BD000FFF7D9FF05460098401C00900098B0F50B
:103BE000A06F01D0002DF2D03120FFF7CCFF08B13B
:103BF000012400E00024204638BD01460020CA4AC6
:103C0000106820F0F80040EAC10010607047C94910
:103C1000086070470021C44A703211701170012889
:103C200002D004280AD104E00121BF4A7032117089
:103C300005E00521BC4A7032117000E000BF00BFF2
:103C40007047BD490860704770B5049C41EA821511
:103C50000126C6EB530645EA0645054345EA0465D9
:103C6000B14E361D356070BDB2490866704782019D
:103C700042EA0172AC4B84331A607047AD498866E2
:103C80007047AC49C864704702460020A64B083311
:103C9000186820F0EC6042EA01031843A24B083395
:103CA00018607047024600209F4B0833186820F0C8
:103CB000784042EA010318439B4B08331860704771
:103CC00001460020984A0832106820F0030008439B
:103CD0001060704794480830006800F00C0070478E
:103CE00001460020904A0832106820F0F000084396
:103CF00010607047014600208B4A0832106820F49B
:103D0000E05008431060704701460020864A0832A0
:103D1000106820F4604040EAC10010607047F0B5C0
:103D20000021002200240225002602237E4F0837AE
:103D30003F6807F00C0121B1042905D0082937D1CB
:103D400005E07E4F076036E07D4F076033E0764F39
:103D50003F1D3F68C7F38056734F3F1D3F6807F014
:103D60003F036EB1764FB7FBF3F7DFF8BCC10CF140
:103D7000040CDCF800C0CCF3881C07FB0CF40CE04E
:103D80006E4FB7FBF3F7DFF8A0C10CF1040CDCF8C1
:103D900000C0CCF3881C07FB0CF4634F3F1D3F6849
:103DA000C7F301477F1C7D00B4FBF5F7076002E015
:103DB000624F076000BF00BF5B4F08373F6807F0E6
:103DC000F00109095F4F7A5C0768D7404760564F9A
:103DD00008373F6807F4E051890A5A4F7A5C476810
:103DE000D7408760504F08373F6807F46041490B60
:103DF000544F7A5C4768D740C760F0BD002100F49B
:103E00004072B2F5407F0AD1474A0832116821F466
:103E1000F8114D4A02401143434A08321160424AA8
:103E200070321268C0F30B031A433F4B70331A60B1
:103E3000704741494439086070473F49403908603C
:103E4000704742490860704739B1374A30321268CA
:103E50000243354B30331A6006E0334A3032126881
:103E60008243314B30331A60704739B12E4A3432B5
:103E7000126802432C4B34331A6006E02A4A34326B
:103E800012688243284B34331A60704739B1264A8E
:103E9000383212680243244B38331A6006E0224A53
:103EA000383212688243204B38331A60704739B178
:103EB0001D4A4032126802431B4B40331A6006E031
:103EC000194A403212688243174B40331A607047D8
:103ED00039B1154A443212680243134B44331A6015
:103EE00006E0114A4432126882430F4B44331A6091
:103EF000704739B10C4A1032126802430A4B103332
:103F00001A6006E0084A103212688243064B1033EA
:103F10001A607047E1B1044A143212680243024B3E
:103F200014331A6019E0000000380240FFFFF6FE6B
:103F30001030002400004742800E47420024F40065
:103F400040787D011C010020FFFCFF0F5C0147420F
:103F50005B4A126882435A4B1A60704739B1584A1B
:103F6000121D12680243564B1B1D1A6006E0544A8C
:103F7000121D12688243524B1B1D1A60704739B1E3
:103F80004F4A0C32126802434D4B0C331A6006E064
:103F90004B4A0C3212688243494B0C331A6070470B
:103FA00039B1474A103212680243454B10331A6048
:103FB00006E0434A103212688243414B10331A60C4
:103FC000704739B13E4A3C32126802433C4B3C33A5
:103FD0001A6006E03A4A3C3212688243384B3C335E
:103FE0001A60704739B1364A403212680243344B86
:103FF00040331A6006E0324A403212688243304B46
:1040000040331A60704739B12D4A44321268024376
:104010002B4B44331A6006E0294A4432126882432B
:10402000274B44331A60704739B1254A4C32126825
:104030000243234B4C331A6006E0214A4C3212688B
:1040400082431F4B4C331A60704739B11C4A5032BF
:10405000126802431A4B50331A6006E0184A503275
:1040600012688243164B50331A60704739B1144AB4
:10407000D21F12780243124BDB1F1A7006E0104A5F
:10408000D21F127882430E4BDB1F1A7070470C4808
:104090006030006840F08070094960310860704706
:1040A00001460020064A083A12680A400AB1012077
:1040B00000E0002070470249891F08707047000027
:1040C0001438024010B50446FE48844209D101214B
:1040D0004806FFF754FF00214FF00070FFF74FFF35
:1040E00008E001218806FFF74AFF00214FF08060B9
:1040F000FFF745FF10BD30B50246002000231468CD
:1041000024F002041460146844F00104146000E018
:104110005B1C546804F001041CB94FF6FF74A34201
:10412000F6D1546804F001040CB900206CE08C79DD
:10413000012C04D1146844F08004146003E0146876
:1041400024F080041460CC79012C04D1146844F06C
:104150004004146003E0146824F0400414600C7AF6
:10416000012C04D1146844F02004146003E01468A6
:1041700024F0200414604C7A012C04D1146844F01B
:104180001004146003E0146824F0100414608C7AA6
:10419000012C04D1146844F00804146003E014688E
:1041A00024F008041460CC7A012C04D1146844F083
:1041B0000404146003E0146824F0040414608C7890
:1041C000A407CD7844EA05640D7944EA05444D79A5
:1041D00044EA05540D886D1E2C43D461146824F004
:1041E00001041460002300E05B1C546804F0010427
:1041F0001CB14FF6FF74A342F6D1546804F00104D9
:104200000CB1002000E0012030BD10B50021837A00
:10421000012202FA03F1AC4A126842F00102AA4BF1
:104220001A60A94A1C3212688A43A74B1C331A60D1
:10423000027BCAB9A44A0C3212688A43A24B0C33DF
:104240001A604288C38842EA03439F4A4032847A14
:1042500042F834300288838842EA03439A4A403263
:10426000847A02EBC4025360027B012A19D1964A78
:104270000C3212680A43944B0C331A60428803884C
:1042800042EA0343904A4032847A42F83430C2888A
:10429000838842EA03438C4A4032847A02EBC402A8
:1042A0005360C27A3AB9884A121D12688A43864B13
:1042B0001B1D1A6006E0844A121D12680A43824BD5
:1042C0001B1D1A60028932B97F4A143212688A4370
:1042D0007D4B14331A600289012A06D17A4A1432BE
:1042E00012680A43784B14331A60427B012A06D1C4
:1042F000754A1C3212680A43734B1C331A60724AA7
:10430000126822F00102704B1A6010BD0021817109
:10431000C171017241728172C1728170C1700321D9
:1043200001710221417101210180704766490968CC
:1043300041F00101644A11601146096843F60E72AA
:104340009143614A11601146096841EA00211160F8
:104350001146096821F001011160704721B102681E
:1043600042F48032026003E0026822F4803202608C
:104370007047E1B1026842F0800202604FF4C272FD
:10438000125842F480734FF4C27213504FF4CA7241
:10439000125842F480734FF4CA7213504FF4D27221
:1043A000125842F480734FF4D27213501BE002682B
:1043B00022F0800202604FF4C272125822F480731D
:1043C0004FF4C27213504FF4CA72125822F4807321
:1043D0004FF4CA7213504FF4D272125822F4807301
:1043E0004FF4D2721350704710B502460020936804
:1043F00003F08063B3F1806F00D110E0936803F0A5
:104400000063B3F1006F01D1012008E0936803F06D
:104410008053B3F1805F01D1022000E00420042822
:1044200079D002F5C07303EB00131B6803F001049D
:1044300002F5C07303EB00131C600B7A7BB94B7A57
:104440000C8843EA445302F5C07404EB001424685A
:10445000234302F5C07404EB0014236010E00B7AD0
:104460004C6843EAC4034C7A234302F5C07404EB5E
:1044700000142468234302F5C07404EB0014236085
:104480008B7A03F00F038B7202F5C07303EB0013FA
:104490005B6823F00F0402F5C07303EB00135C604C
:1044A00002F5C07303EB00135B688C7A234302F5BB
:1044B000C07404EB001463608B7B1C064B7B44EAE6
:1044C000034403E000640040006600400B7B44EAC4
:1044D0000323CC7A234302F5C07404EB0014A360D9
:1044E0008B7C1C064B7C44EA03440B7C44EA03238C
:1044F000CC7B234302F5C07404EB0014E36002F5A7
:10450000C07303EB00131B6843F0010402F5C07392
:1045100003EB00131C6010BD10B50246002321B14F
:10452000012907D002290FD109E09068F94C00EA6F
:1045300004030BE09068F84C00EA040306E090687E
:10454000F64C00EA040301E0002300BF00BFF44C76
:10455000181BA34216D007DC83B16FF080601844AB
:1045600070B1022818D111E0B0F5007F10D0ED4CE9
:10457000204448B1B0F5003F0ED10BE002230DE01E
:1045800000230BE0002309E0002307E0012305E0FE
:10459000012303E0012301E0002300BF00BFD8B2E4
:1045A00010BD21B1012907D002290FD109E082688D
:1045B00042F0800282600AE0826842F40042826037
:1045C00005E0826842F40002826000E000BF00BFA4
:1045D000704710B500F5D87303EB01131B6803F0A7
:1045E00004031372137A53B900F5D87303EB011364
:1045F0001B6840F2FF7404EA5353136009E000F5AE
:10460000D87303EB01131B686FF0604404EAD30313
:10461000536000F5D87303EB01131B6803F002032A
:10462000537200F5D87303EB01135B6803F00F03BB
:10463000937200F5D87303EB01135B681B0AD37404
:1046400000F5D87303EB01139B68D37200F5D873A0
:1046500003EB01139B681C0A147300F5D87303EB7A
:1046600001139B681C0C547300F5D87303EB011302
:104670009B681B0E937300F5D87303EB0113DB6883
:10468000D37300F5D87303EB0113DB681C0A1474B1
:1046900000F5D87303EB0113DB681C0C547400F5B0
:1046A000D87303EB0113DB681B0E937421B9C36845
:1046B00043F02003C36003E0036943F02003036178
:1046C00010BD21B9C26842F02002C26003E0026955
:1046D00042F02002026170470246002019B9D368F7
:1046E00003F0030006E0012903D1136903F003007E
:1046F00000E00020704710B502460B4600204FF640
:10470000FF71BBB9146824F0020444F00104146082
:1047100000E0491E546804F00304012C01D0002974
:10472000F7D1546804F00304012C01D0002032E0DA
:10473000012030E0012B13D1146824F0030414602D
:1047400000E0491E546804F003040CB10029F8D1BC
:10475000546804F003040CB100201CE001201AE0AE
:10476000022B17D1146824F0010444F002041460F1
:1047700000E0491E546804F00304022C01D0002913
:10478000F7D1546804F00304022C01D0002002E0A9
:10479000012000E0002010BD014600200A6822F040
:1047A000010242F002020A604A6802F00302022A91
:1047B00000D10120704701464FF6FF7200200B68C0
:1047C00023F002030B6000E0521E4B6803F002036B
:1047D000022B01D1002AF7D14B6803F00203022B10
:1047E00000D001207047014600208A6902F0700065
:1047F0007047014600208A69100E7047014600206C
:104800008A69C2F3074070471AB143690B43436199
:1048100002E043698B434361704710B502460020B4
:1048200001F4700343B19369C1F3130423400BB146
:1048300001202DE000202BE001F0807343B153688C
:10484000C1F3130423400BB1012021E000201FE03D
:1048500001F0006343B19368C1F3130423400BB12B
:10486000012015E0002013E001F0007343B1D3688C
:10487000C1F3130423400BB1012009E0002007E03D
:104880001369C1F3130423400BB1012000E00020A1
:1048900010BD0022244B994202D10023836111E014
:1048A000C1F3130201F000730BB1C2600AE001F022
:1048B00080630BB1026105E001F000630BB182601F
:1048C00000E0426070470246002002EA01030BB19B
:1048D000012000E00020704770B504460D46002618
:1048E00060692840002872D0B5F5807F69D01DDC52
:1048F000082D42D006DC012D2DD0022D31D0042D03
:104900007FD134E0102D3ED0202D42D0402D78D1E3
:1049100045E000000300000400030008000003104D
:10492000000100080001FFF77000F030B5F5004FFE
:1049300061D009DCB5F5007F4AD0B5F5806F4DD068
:10494000B5F5006F5DD150E0B5F5803F2DD0B5F5E0
:10495000003F56D12FE0A0685549FFF7B4FF064647
:1049600051E0E0680321FFF7AEFF06464BE0E06848
:104970000821FFF7A8FF064645E0E0681021FFF791
:10498000A2FF06463FE020690321FFF79CFF064691
:1049900039E020690821FFF796FF064633E02069D9
:1049A0001021FFF790FF06462DE060680821FFF711
:1049B0008AFF064627E060681021FFF784FF06465D
:1049C00021E0A0690121FFF77EFF06461BE01BE006
:1049D000A0690221FFF777FF064614E0A0690421D1
:1049E000FFF771FF06460EE00BE0A0697021FFF7AC
:1049F0006AFF064607E060680421FFF764FF064689
:104A000001E0002600BF00E00026304670BDB1F591
:104A1000007F3AD00FDC202928D006DC01291CD0E9
:104A200004291DD0082940D11DE0402921D0B1F52D
:104A3000807F3AD126E0B1F5004F31D006DCB1F5E8
:104A4000806F25D0B1F5006F2FD124E0B1F5803F04
:104A500012D0B1F5003F28D111E0154A826025E05F
:104A60000822C26022E01022C2601FE00822026118
:104A70001CE01022026119E00822426016E01022B8
:104A8000426013E00422426010E0042242600DE024
:104A9000042242600AE0002282610422426005E0B2
:104AA000002282610422426000E000BF00BF704724
:104AB00001010100002044490860091D0860091D2A
:104AC0000860091D086041483F491431086070477B
:104AD00000213D498279002A3AD00A4612680368CB
:104AE0009A430B461A600A1D126803689A430B1D0D
:104AF0001A60027911440A6803681A430A60324A4C
:104B00000832126803689A432F4B08331A601A1D43
:104B1000126803689A432C4B0C331A604279102AAE
:104B20000ED11A1F126803681A43274B08331A6004
:104B30001A1D126803681A43234B0C331A600DE0E8
:104B40002149427911440A6803681A430A6005E062
:104B5000027911440A6803689A430A607047002189
:104B6000016001710C21417100218171704716496A
:104B7000103109680143144A103211607047014630
:104B80000020114A143212680A400AB1012000E0E4
:104B9000002070470C49143108607047014600201E
:104BA0000022094B1B6803EA0102074B14331B6800
:104BB0000B4013B10AB1012000E000207047024908
:104BC0001431086070470000003C0140FFFF7F0087
:104BD00010B504468C48844208D101210846FFF7ED
:104BE00088F900210120FFF784F95EE087488442BC
:104BF00008D101210220FFF77CF900210220FFF7F4
:104C000078F952E08248844208D101210420FFF75C
:104C100070F900210420FFF76CF946E07D488442DA
:104C200008D101210820FFF764F900210820FFF7CF
:104C300060F93AE07848844208D101211020FFF75A
:104C400058F900211020FFF754F92EE073488442F0
:104C500008D101212020FFF74CF900212020FFF787
:104C600048F922E06E48844208D101214020FFF734
:104C700040F900214020FFF73CF916E069488442E2
:104C800008D101218020FFF734F900218020FFF7AF
:104C900030F90AE06448844207D101218015FFF70A
:104CA00028F90021A015FFF724F910BDF0B50A4638
:104CB00000210023002400BF3DE0012505FA01F397
:104CC000156805EA03049C4234D105684F000326A9
:104CD000BE40B543056015794E00B54006683543C2
:104CE00005601579012D02D01579022D16D1856840
:104CF0004F000326BE40B543856055794E00B54050
:104D0000866835438560456801268E40B543456019
:104D1000456896798E40B6B235434560C5684F0008
:104D20000326BE40B543C560D5794E00B540C66880
:104D30003543C560491C1029BFD3F0BD4FF6FF7144
:104D400001600021017141718171C171704708B525
:104D50004FF480320092009A0A430092009AC26196
:104D6000C161009AC261C2690092C269009208BD25
:104D70000246002013690B400BB1012000E0002027
:104D800070470146086980B27047024600205369A7
:104D90000B400BB1012000E000207047014648693C
:104DA00080B2704701837047418370470AB1018325
:104DB00000E0418370474161704742694A40426167
:104DC0007047F0B5002300244D07ED0E02FA05F3FD
:104DD000CE1000F1200555F826504E07F70E0F268D
:104DE000BE40B543CF1000F1200646F82750CE1044
:104DF00000F1200555F8265045EA0304CE1000F1D5
:104E0000200545F82640F0BD0000024000040240A5
:104E100000080240000C0240001002400014024052
:104E200000180240001C024000200240016821F0EE
:104E3000010101600021016041608160C160016188
:104E400021214161DB49884204D13D21D94A103AF0
:104E500091608CE0D7491831884205D14FF47461D4
:104E6000D44A103A916082E0D2493031884205D16B
:104E70004FF47411CF4A103A916078E0CD4948312F
:104E8000884205D14FF07461CA4A103A91606EE0D1
:104E9000C8496031884204D1C749C64A103AD16036
:104EA00065E0C4497831884204D1C449C14A103A06
:104EB000D1605CE0BF499031884204D1C049BD4A0D
:104EC000103AD16053E0BB49A831884205D14FF078
:104ED0003D51B84A103AD16049E0BA49884204D1FC
:104EE0003D21B84A083A116041E0B649183188427C
:104EF00005D14FF47461B34A083A116037E0B14903
:104F00003031884205D14FF47411AE4A083A11602D
:104F10002DE0AC494831884205D14FF07461A94A6F
:104F2000083A116023E0A7496031884204D1A249C0
:104F3000A44A121F11601AE0A2497831884204D1B4
:104F40009E49A04A121F116011E09E49903188428B
:104F500004D19B499B4A121F116008E09949A8316E
:104F6000884204D14FF03D51964A121F116070479C
:104F700010B500220268944B1A40CC680B6823439A
:104F80004C6923438C692343CC6923430C6A234334
:104F90004C6A23438C6A23434C6B23438C6B23431F
:104FA0001A430260426922F00702D1E90B3423431D
:104FB0001A4342610B6943604B6883608B68C3602E
:104FC00010BD0021016041608160C16001614161EB
:104FD0008161C161016241628162C16201634163B9
:104FE0008163704721B1026842F00102026003E070
:104FF000026822F001020260704721B1026842F4A7
:105000000042026003E0026822F40042026070473E
:1050100021B1026842F02002026003E0026822F03F
:10502000200202607047416070470146486880B2C4
:10503000704722B1036843F40023036003E0036870
:1050400023F4002303600161704721B1026842F438
:105050008022026003E0026822F48022026070472E
:105060000AB1016100E0C1607047014600200A6892
:1050700002F400220AB1012000E00020704701463E
:1050800000200A6802F001020AB1012000E00020BD
:105090007047014600204A6902F03800704730B579
:1050A00003460A4600200024464DAB4202D2414945
:1050B000103901E04349103902F000550DB14C6838
:1050C00000E00C68414D2C4004EA02050DB10120BE
:1050D00000E0002030BD02463A4B9A4202D23548E9
:1050E000103801E03748103801F000531BB1374B3E
:1050F0000B40C36002E0354B0B408360704710B536
:1051000001F080034BB122B1436943F08003436156
:1051100003E0436923F08003436180290BD02AB167
:10512000036801F01E042343036004E0036801F0F8
:105130001E04A343036010BD70B502460020002486
:105140000025204EB24202D21A4B103B01E01D4B0B
:10515000103B1F4E0E4036B11E2606EAD1241668BB
:1051600006EA040502E0566906F0800501F00056E3
:105170000EB15C6800E01C68144E344004EA01067D
:1051800016B10DB1012000E0002070BD02460D4BAC
:105190009A4202D20748103801E00A48103801F05C
:1051A00000531BB1094B0B40C36002E0074B0B409F
:1051B00083607047106002403D000020400F0020D7
:1051C00000003D20106402403F801CF07D0F7D0FE9
:1051D0003C0F3C0F10B50446F748844208D101212A
:1051E0001020FEF7DDFE00211020FEF7D9FE3EE084
:1051F000F248844209D101214804FEF7C0FE002193
:105200004FF40030FEF7BBFE31E0ED48844209D197
:1052100001218804FEF7B3FE00214FF48020FEF741
:10522000AEFE24E0E748844209D10121C804FEF71C
:10523000A6FE00214FF40020FEF7A1FE17E0E24891
:10524000844209D101210805FEF799FE00214FF49F
:105250008010FEF794FE0AE0DC48844207D1012169
:105260002020FEF79DFE00212020FEF799FE10BDB4
:105270002DE9FF4705460E460024A14600BFA04683
:10528000B08900B100BF2C8A24F44054F088044354
:105290002C82AC8941F20C608443B0883189084388
:1052A000718908430443AC81AC8A24F44074B0890A
:1052B0000443AC826846FEF732FDBF48854202D007
:1052C000C248854202D1DDF80C9001E0DDF808907B
:1052D000A88900F4004040B109EBC90000EB0910B7
:1052E00031684900B0FBF1F707E009EBC90000EBBA
:1052F000091031688900B0FBF1F76420B7FBF0F0CA
:1053000004012009642101FB1078A88900F4004001
:1053100040B1322000EBC800B0FBF1F000F0070014
:10532000044308E0322000EB08106421B0FBF1F0E8
:1053300000F00F0004432C81BDE8FF874FF41651A5
:10534000016000218180C18001810C214181002107
:105350008181704710B502460020108A20F47060E9
:105360000B884C8823438C882343CC8823431843E1
:10537000108210BD0021018041808180C180704772
:1053800021B1828942F40052828104E082894DF683
:10539000FF731A4082817047028B02F47F420283BE
:1053A000028B0A430283704721B1828942F4004292
:1053B000828103E08289C2F30E028281704721B1AB
:1053C000828A42F40062828204E0828A4FF2FF7392
:1053D0001A4082827047C1F30802828070470146FA
:1053E0008888C0F308007047028A4FF6F0731A40AD
:1053F0000282028A0A430282704721B1828942F006
:105400000202828104E082894FF6FD731A40828194
:10541000704782894FF2FF731A40828182890A4362
:1054200082817047028A4FF6DF731A400282028A35
:105430000A430282704721B1028A42F4804202820A
:1054400004E0028A4BF6FF731A400282704781899A
:1054500041F001018181704721B1828A42F0080246
:10546000828204E0828A4FF6F7731A408282704784
:10547000028BD2B20283028B42EA0122028370477E
:1054800021B1828A42F02002828204E0828A4FF6B1
:10549000DF731A408282704721B1828A42F0100283
:1054A000828204E0828A4FF6EF731A40828270474C
:1054B000828A4FF6FB731A408282828A0A43828272
:1054C000704721B1828A42F00202828204E0828A1D
:1054D0004FF6FD731A40828270471AB1838A0B43DC
:1054E000838202E0838A8B4383827047F0B5034650
:1054F000002400260025002040F66A17B94200D19A
:1055000000BF1846C1F3421401F01F06012707FA35
:1055100006F5012C01D10C3004E0022C01D1103031
:1055200000E014301AB107682F43076002E00768F3
:10553000AF430760F0BD02460020B1F5007F00D107
:1055400000BF13880B400BB1012000E00020704722
:1055500001F40072B2F5007F00D100BFCA4302809F
:10556000704770B50246002400230025002040F655
:105570006A16B14200D100BFC1F3421501F01F030A
:10558000012606FA03F3012D02D19689334006E085
:10559000022D02D1168A334001E0968A33400C1264
:1055A000012606FA04F41688344013B10CB1012028
:1055B00000E0002070BD00000010014000440040E9
:1055C00000480040004C00400050004000140140E2
:1055D00010B50022002340F66A14A14200D100BF9A
:1055E0000A1201249440A3B2DC43048010BD0000E1
:1055F00010B501218803FEF7D3FC00214FF4804051
:10560000FEF7CEFC10BD1A490860704730B5002285
:105610008B071C0F0F2303FA04F2154B08338C1071
:1056200053F824309343124C08348D1044F825303D
:1056300023468C1053F824308C07240F00FA04F40E
:1056400023430B4C08348D1044F8253030BD0949F4
:1056500008607047084908607047002004492031FD
:10566000096801F4807109B1012000E00020704751
:1056700000380140DC002742000427420CB500201E
:10568000019000907648006840F4803074490860CA
:1056900000BF7348006800F4003000900198401C7F
:1056A0000190009818B90198B0F5A06FF1D16C483D
:1056B000006800F4003010B10120009001E00020EB
:1056C00000900098012846D165484030006840F0BD
:1056D00080506349403108606248006840F480406F
:1056E000604908605E48083000685D49083108601C
:1056F0000846006840F4004008600846006840F42E
:10570000A05008605848091F0860081F006840F052
:105710008070091F086000BF5148006800F00070E9
:105720000028F9D040F20560504908604C48083024
:10573000006820F003004A49083108600846006804
:1057400040F00200086000BF45480830006800F0E3
:105750000C000828F8D10CBD10B54548006840F48D
:105760007000434908603E48006840F001003C4931
:10577000086000203A4908310860394800683D490E
:105780000840374908603C48091D0860081F006848
:1057900020F48020091F0860002031490C31086086
:1057A000FFF76CFF4FF0006031498039086010BD91
:1057B00070B500200022022300240221284D083564
:1057C0002D6805F00C0020B1042806D0082834D13B
:1057D00007E02A4D2A4E356033E02A4D284E3560C9
:1057E0002FE01F4D2D1D2D68C5F380541C4D2D1D20
:1057F0002D6805F03F0154B1224DB5FBF1F5184E6F
:10580000361D3668C6F3881605FB06F209E01B4D07
:10581000B5FBF1F5124E361D3668C6F3881605FB4A
:1058200006F20F4D2D1D2D68C5F301456D1C6B0053
:10583000B2FBF3F5124E356003E0104D104E3560AB
:1058400000BF00BF064D08352D68C5F303150E4E89
:10585000705D0B4D2D68C540094E356070BD000070
:10586000003802400070004019544007003C0240DC
:1058700088ED00E0FFFFF6FE103000240024F40065
:105880002C01002040787D0130010020064880472F
:1058900006480047FEE7FEE7FEE7FEE7FEE7FEE715
:1058A000FEE7FEE7FEE7FEE759570008890100081A
:1058B00008B50020009000F0DDFB01236A46752149
:1058C000D02000F025FD40B99DF80000682809D0DF
:1058D000E0A002F073FFFF2008BDE6A002F06EFF1B
:1058E000FF20F9E701226B21D02000F0E3FCFF2824
:1058F00004D1E8A002F062FFFF20EDE707221921A2
:10590000D02000F0D7FCFF2804D1EAA002F056FF17
:10591000FF20E1E700221A21D02000F0CBFCFF2875
:1059200004D1ECA002F04AFFFF20D5E708221B219A
:10593000D02000F0BFFCFF2804D1EDA002F03EFF14
:10594000FF20C9E708221C21D02000F0B3FCFF286B
:1059500004D1F0A002F032FFFF20BDE70222372180
:10596000D02000F0A7FCFF2804D1F3A002F026FF0E
:10597000FF20B1E701223821D02000F09BFCFF2856
:1059800004D1F6A002F01AFFFF20A5E70020A3E74C
:1059900008B50020009001236A4675213C2000F0E4
:1059A000B7FC38B99DF8000048B1F4A002F006FF3A
:1059B000FF2008BDF9A002F001FFFF20F9E7142243
:1059C00000213C2000F076FCFF2804D1FCA002F06E
:1059D000F5FEFF20EDE7002202213C2000F06AFCEA
:1059E000FF2804D1FEA002F0E9FEFF20E1E700203D
:1059F000DFE700B52DED088B83B0062301AA032154
:105A00003C2000F085FCFF2807D1FCA002F0D6FE68
:105A1000FF2003B0BDEC088B00BD9DF805009DF88C
:105A2000041040EA012000B2FB4908809DF80700FD
:105A30009DF8061040EA012000B2F74988809DF8E1
:105A400009009DF8081040EA012000B2F2494880A0
:105A50000846B0F9020000EE100AB8EEC00AB1EE36
:105A6000400A10EE101A084602F0E8FC41EC190B4F
:105A70009FEDEA0B53EC102B02F041FC41EC180BAC
:105A800002F020FDE7490860E348B0F9040000EEA9
:105A9000100AB8EEC00ADFEDE40A80EE201A0846CC
:105AA00080ED021ADC48B0F9000000EE100AB8EEF2
:105AB000C00ADFEDDD0A80EE201A084680ED011AEB
:105AC00090ED000A10EE101A084602F0B7FC41EC07
:105AD0001A0BD44890ED010A10EE101A084602F095
